{
	"vest.sol": {
		"Vesting": {
			"abi": [
				{
					"inputs": [],
					"stateMutability": "nonpayable",
					"type": "constructor"
				},
				{
					"inputs": [
						{
							"internalType": "address",
							"name": "_userAdd",
							"type": "address"
						},
						{
							"internalType": "uint256",
							"name": "start",
							"type": "uint256"
						},
						{
							"internalType": "uint256",
							"name": "duration",
							"type": "uint256"
						},
						{
							"internalType": "uint256",
							"name": "totalAmount",
							"type": "uint256"
						},
						{
							"internalType": "uint256",
							"name": "realeased",
							"type": "uint256"
						}
					],
					"name": "createVestingSchedule",
					"outputs": [],
					"stateMutability": "nonpayable",
					"type": "function"
				},
				{
					"inputs": [
						{
							"internalType": "address",
							"name": "_add",
							"type": "address"
						}
					],
					"name": "getVest",
					"outputs": [
						{
							"components": [
								{
									"internalType": "uint256",
									"name": "start",
									"type": "uint256"
								},
								{
									"internalType": "uint256",
									"name": "duration",
									"type": "uint256"
								},
								{
									"internalType": "uint256",
									"name": "totalAmount",
									"type": "uint256"
								},
								{
									"internalType": "uint256",
									"name": "released",
									"type": "uint256"
								}
							],
							"internalType": "struct Vesting.VestingShecdule",
							"name": "",
							"type": "tuple"
						}
					],
					"stateMutability": "view",
					"type": "function"
				},
				{
					"inputs": [
						{
							"internalType": "address",
							"name": "_useradd",
							"type": "address"
						}
					],
					"name": "release",
					"outputs": [],
					"stateMutability": "nonpayable",
					"type": "function"
				},
				{
					"inputs": [
						{
							"internalType": "address",
							"name": "",
							"type": "address"
						}
					],
					"name": "vestingshecdule",
					"outputs": [
						{
							"internalType": "uint256",
							"name": "start",
							"type": "uint256"
						},
						{
							"internalType": "uint256",
							"name": "duration",
							"type": "uint256"
						},
						{
							"internalType": "uint256",
							"name": "totalAmount",
							"type": "uint256"
						},
						{
							"internalType": "uint256",
							"name": "released",
							"type": "uint256"
						}
					],
					"stateMutability": "view",
					"type": "function"
				}
			],
			"devdoc": {
				"kind": "dev",
				"methods": {},
				"version": 1
			},
			"evm": {
				"assembly": "    /* \"vest.sol\":60:1394  contract Vesting{... */\n  mstore(0x40, 0xa0)\n    /* \"vest.sol\":456:471  block.timestamp */\n  timestamp\n    /* \"vest.sol\":428:471  uint  private currentTime = block.timestamp */\n  0x01\n  sstore\n    /* \"vest.sol\":272:315  constructor(){... */\n  callvalue\n  dup1\n  iszero\n  tag_1\n  jumpi\n  0x00\n  dup1\n  revert\ntag_1:\n  pop\n    /* \"vest.sol\":297:307  msg.sender */\n  caller\n    /* \"vest.sol\":289:307  owner = msg.sender */\n  0xffffffffffffffffffffffffffffffffffffffff\n  and\n  0x80\n  dup2\n  0xffffffffffffffffffffffffffffffffffffffff\n  and\n  dup2\n  mstore\n  pop\n  pop\n    /* \"vest.sol\":60:1394  contract Vesting{... */\n  mload(0x80)\n  codecopy(0x00, dataOffset(sub_0), dataSize(sub_0))\n  0x00\n  assignImmutable(\"0x2a80e1ef1d7842f27f2e6be0972bb708b9a135c38860dbe73c27c3486c34f4de\")\n  return(0x00, dataSize(sub_0))\nstop\n\nsub_0: assembly {\n        /* \"vest.sol\":60:1394  contract Vesting{... */\n      mstore(0x40, 0x80)\n      callvalue\n      dup1\n      iszero\n      tag_1\n      jumpi\n      0x00\n      dup1\n      revert\n    tag_1:\n      pop\n      jumpi(tag_2, lt(calldatasize, 0x04))\n      shr(0xe0, calldataload(0x00))\n      dup1\n      0x19165587\n      eq\n      tag_3\n      jumpi\n      dup1\n      0x1bf0b08b\n      eq\n      tag_4\n      jumpi\n      dup1\n      0x1cc908b8\n      eq\n      tag_5\n      jumpi\n      dup1\n      0x474fc417\n      eq\n      tag_6\n      jumpi\n    tag_2:\n      0x00\n      dup1\n      revert\n        /* \"vest.sol\":696:1267  function release(address _useradd) public {... */\n    tag_3:\n      tag_7\n      0x04\n      dup1\n      calldatasize\n      sub\n      dup2\n      add\n      swap1\n      tag_8\n      swap2\n      swap1\n      tag_9\n      jump\t// in\n    tag_8:\n      tag_10\n      jump\t// in\n    tag_7:\n      stop\n        /* \"vest.sol\":476:692  function createVestingSchedule(address _userAdd, uint start,uint duration,uint totalAmount, uint realeased) public onlyAdmin{... */\n    tag_4:\n      tag_11\n      0x04\n      dup1\n      calldatasize\n      sub\n      dup2\n      add\n      swap1\n      tag_12\n      swap2\n      swap1\n      tag_13\n      jump\t// in\n    tag_12:\n      tag_14\n      jump\t// in\n    tag_11:\n      stop\n        /* \"vest.sol\":210:267  mapping(address=> VestingShecdule) public vestingshecdule */\n    tag_5:\n      tag_15\n      0x04\n      dup1\n      calldatasize\n      sub\n      dup2\n      add\n      swap1\n      tag_16\n      swap2\n      swap1\n      tag_9\n      jump\t// in\n    tag_16:\n      tag_17\n      jump\t// in\n    tag_15:\n      mload(0x40)\n      tag_18\n      swap5\n      swap4\n      swap3\n      swap2\n      swap1\n      tag_19\n      jump\t// in\n    tag_18:\n      mload(0x40)\n      dup1\n      swap2\n      sub\n      swap1\n      return\n        /* \"vest.sol\":1273:1389  function getVest(address _add) public view returns (VestingShecdule memory){... */\n    tag_6:\n      tag_20\n      0x04\n      dup1\n      calldatasize\n      sub\n      dup2\n      add\n      swap1\n      tag_21\n      swap2\n      swap1\n      tag_9\n      jump\t// in\n    tag_21:\n      tag_22\n      jump\t// in\n    tag_20:\n      mload(0x40)\n      tag_23\n      swap2\n      swap1\n      tag_24\n      jump\t// in\n    tag_23:\n      mload(0x40)\n      dup1\n      swap2\n      sub\n      swap1\n      return\n        /* \"vest.sol\":696:1267  function release(address _useradd) public {... */\n    tag_10:\n        /* \"vest.sol\":743:777  VestingShecdule storage userVested */\n      0x00\n        /* \"vest.sol\":780:795  vestingshecdule */\n      dup1\n        /* \"vest.sol\":780:805  vestingshecdule[_useradd] */\n      0x00\n        /* \"vest.sol\":796:804  _useradd */\n      dup4\n        /* \"vest.sol\":780:805  vestingshecdule[_useradd] */\n      0xffffffffffffffffffffffffffffffffffffffff\n      and\n      0xffffffffffffffffffffffffffffffffffffffff\n      and\n      dup2\n      mstore\n      0x20\n      add\n      swap1\n      dup2\n      mstore\n      0x20\n      add\n      0x00\n      keccak256\n        /* \"vest.sol\":743:805  VestingShecdule storage userVested = vestingshecdule[_useradd] */\n      swap1\n      pop\n        /* \"vest.sol\":836:846  userVested */\n      dup1\n        /* \"vest.sol\":836:852  userVested.start */\n      0x00\n      add\n      sload\n        /* \"vest.sol\":818:833  block.timestamp */\n      timestamp\n        /* \"vest.sol\":818:852  block.timestamp > userVested.start */\n      gt\n        /* \"vest.sol\":810:885  require(block.timestamp > userVested.start,' vesting have not yet started') */\n      tag_26\n      jumpi\n      mload(0x40)\n      0x08c379a000000000000000000000000000000000000000000000000000000000\n      dup2\n      mstore\n      0x04\n      add\n      tag_27\n      swap1\n      tag_28\n      jump\t// in\n    tag_27:\n      mload(0x40)\n      dup1\n      swap2\n      sub\n      swap1\n      revert\n    tag_26:\n        /* \"vest.sol\":890:911  uint256  vestedAmount */\n      0x00\n        /* \"vest.sol\":978:988  userVested */\n      dup2\n        /* \"vest.sol\":978:997  userVested.duration */\n      0x01\n      add\n      sload\n        /* \"vest.sol\":954:964  userVested */\n      dup3\n        /* \"vest.sol\":954:976  userVested.totalAmount */\n      0x02\n      add\n      sload\n        /* \"vest.sol\":934:944  userVested */\n      dup4\n        /* \"vest.sol\":934:950  userVested.start */\n      0x00\n      add\n      sload\n        /* \"vest.sol\":916:931  block.timestamp */\n      timestamp\n        /* \"vest.sol\":916:950  block.timestamp - userVested.start */\n      tag_29\n      swap2\n      swap1\n      tag_30\n      jump\t// in\n    tag_29:\n        /* \"vest.sol\":915:976  (block.timestamp - userVested.start) * userVested.totalAmount */\n      tag_31\n      swap2\n      swap1\n      tag_32\n      jump\t// in\n    tag_31:\n        /* \"vest.sol\":915:997  (block.timestamp - userVested.start) * userVested.totalAmount /userVested.duration */\n      tag_33\n      swap2\n      swap1\n      tag_34\n      jump\t// in\n    tag_33:\n        /* \"vest.sol\":890:997  uint256  vestedAmount  = (block.timestamp - userVested.start) * userVested.totalAmount /userVested.duration */\n      swap1\n      pop\n        /* \"vest.sol\":1001:1016  uint releasable */\n      0x00\n        /* \"vest.sol\":1034:1044  userVested */\n      dup3\n        /* \"vest.sol\":1034:1053  userVested.released */\n      0x03\n      add\n      sload\n        /* \"vest.sol\":1019:1031  vestedAmount */\n      dup3\n        /* \"vest.sol\":1019:1053  vestedAmount - userVested.released */\n      tag_35\n      swap2\n      swap1\n      tag_30\n      jump\t// in\n    tag_35:\n        /* \"vest.sol\":1001:1053  uint releasable = vestedAmount - userVested.released */\n      swap1\n      pop\n        /* \"vest.sol\":1080:1081  0 */\n      0x00\n        /* \"vest.sol\":1067:1077  releasable */\n      dup2\n        /* \"vest.sol\":1067:1081  releasable > 0 */\n      gt\n        /* \"vest.sol\":1059:1102  require(releasable > 0,'insuffienct found') */\n      tag_36\n      jumpi\n      mload(0x40)\n      0x08c379a000000000000000000000000000000000000000000000000000000000\n      dup2\n      mstore\n      0x04\n      add\n      tag_37\n      swap1\n      tag_38\n      jump\t// in\n    tag_37:\n      mload(0x40)\n      dup1\n      swap2\n      sub\n      swap1\n      revert\n    tag_36:\n        /* \"vest.sol\":1129:1139  releasable */\n      dup1\n        /* \"vest.sol\":1106:1116  userVested */\n      dup4\n        /* \"vest.sol\":1106:1125  userVested.released */\n      0x03\n      add\n      0x00\n        /* \"vest.sol\":1106:1139  userVested.released += releasable */\n      dup3\n      dup3\n      sload\n      tag_39\n      swap2\n      swap1\n      tag_40\n      jump\t// in\n    tag_39:\n      swap3\n      pop\n      pop\n      dup2\n      swap1\n      sstore\n      pop\n        /* \"vest.sol\":1143:1159  bool callSuccess */\n      0x00\n        /* \"vest.sol\":1174:1184  msg.sender */\n      caller\n        /* \"vest.sol\":1165:1190  payable (msg.sender).call */\n      0xffffffffffffffffffffffffffffffffffffffff\n      and\n        /* \"vest.sol\":1198:1208  releasable */\n      dup3\n        /* \"vest.sol\":1165:1213  payable (msg.sender).call{value: releasable}('') */\n      mload(0x40)\n      tag_41\n      swap1\n      tag_42\n      jump\t// in\n    tag_41:\n      0x00\n      mload(0x40)\n      dup1\n      dup4\n      sub\n      dup2\n      dup6\n      dup8\n      gas\n      call\n      swap3\n      pop\n      pop\n      pop\n      returndatasize\n      dup1\n      0x00\n      dup2\n      eq\n      tag_45\n      jumpi\n      mload(0x40)\n      swap2\n      pop\n      and(add(returndatasize, 0x3f), not(0x1f))\n      dup3\n      add\n      0x40\n      mstore\n      returndatasize\n      dup3\n      mstore\n      returndatasize\n      0x00\n      0x20\n      dup5\n      add\n      returndatacopy\n      jump(tag_44)\n    tag_45:\n      0x60\n      swap2\n      pop\n    tag_44:\n      pop\n        /* \"vest.sol\":1142:1213  (bool callSuccess, ) = payable (msg.sender).call{value: releasable}('') */\n      pop\n      swap1\n      pop\n        /* \"vest.sol\":1228:1239  callSuccess */\n      dup1\n        /* \"vest.sol\":1220:1261  require(callSuccess,'Faild to withdraw ') */\n      tag_46\n      jumpi\n      mload(0x40)\n      0x08c379a000000000000000000000000000000000000000000000000000000000\n      dup2\n      mstore\n      0x04\n      add\n      tag_47\n      swap1\n      tag_48\n      jump\t// in\n    tag_47:\n      mload(0x40)\n      dup1\n      swap2\n      sub\n      swap1\n      revert\n    tag_46:\n        /* \"vest.sol\":738:1267  {... */\n      pop\n      pop\n      pop\n      pop\n        /* \"vest.sol\":696:1267  function release(address _useradd) public {... */\n      pop\n      jump\t// out\n        /* \"vest.sol\":476:692  function createVestingSchedule(address _userAdd, uint start,uint duration,uint totalAmount, uint realeased) public onlyAdmin{... */\n    tag_14:\n        /* \"vest.sol\":361:371  msg.sender */\n      caller\n        /* \"vest.sol\":352:371  owner == msg.sender */\n      0xffffffffffffffffffffffffffffffffffffffff\n      and\n        /* \"vest.sol\":352:357  owner */\n      immutable(\"0x2a80e1ef1d7842f27f2e6be0972bb708b9a135c38860dbe73c27c3486c34f4de\")\n        /* \"vest.sol\":352:371  owner == msg.sender */\n      0xffffffffffffffffffffffffffffffffffffffff\n      and\n      eq\n        /* \"vest.sol\":344:414  require(owner == msg.sender,'only admin can creae a vesting schedule') */\n      tag_50\n      jumpi\n      mload(0x40)\n      0x08c379a000000000000000000000000000000000000000000000000000000000\n      dup2\n      mstore\n      0x04\n      add\n      tag_51\n      swap1\n      tag_52\n      jump\t// in\n    tag_51:\n      mload(0x40)\n      dup1\n      swap2\n      sub\n      swap1\n      revert\n    tag_50:\n        /* \"vest.sol\":635:688  VestingShecdule(start,duration,totalAmount,realeased) */\n      mload(0x40)\n      dup1\n      0x80\n      add\n      0x40\n      mstore\n      dup1\n        /* \"vest.sol\":651:656  start */\n      dup6\n        /* \"vest.sol\":635:688  VestingShecdule(start,duration,totalAmount,realeased) */\n      dup2\n      mstore\n      0x20\n      add\n        /* \"vest.sol\":657:665  duration */\n      dup5\n        /* \"vest.sol\":635:688  VestingShecdule(start,duration,totalAmount,realeased) */\n      dup2\n      mstore\n      0x20\n      add\n        /* \"vest.sol\":666:677  totalAmount */\n      dup4\n        /* \"vest.sol\":635:688  VestingShecdule(start,duration,totalAmount,realeased) */\n      dup2\n      mstore\n      0x20\n      add\n        /* \"vest.sol\":678:687  realeased */\n      dup3\n        /* \"vest.sol\":635:688  VestingShecdule(start,duration,totalAmount,realeased) */\n      dup2\n      mstore\n      pop\n        /* \"vest.sol\":607:622  vestingshecdule */\n      0x00\n        /* \"vest.sol\":607:632  vestingshecdule[_userAdd] */\n      dup1\n        /* \"vest.sol\":623:631  _userAdd */\n      dup8\n        /* \"vest.sol\":607:632  vestingshecdule[_userAdd] */\n      0xffffffffffffffffffffffffffffffffffffffff\n      and\n      0xffffffffffffffffffffffffffffffffffffffff\n      and\n      dup2\n      mstore\n      0x20\n      add\n      swap1\n      dup2\n      mstore\n      0x20\n      add\n      0x00\n      keccak256\n        /* \"vest.sol\":607:688  vestingshecdule[_userAdd] = VestingShecdule(start,duration,totalAmount,realeased) */\n      0x00\n      dup3\n      add\n      mload\n      dup2\n      0x00\n      add\n      sstore\n      0x20\n      dup3\n      add\n      mload\n      dup2\n      0x01\n      add\n      sstore\n      0x40\n      dup3\n      add\n      mload\n      dup2\n      0x02\n      add\n      sstore\n      0x60\n      dup3\n      add\n      mload\n      dup2\n      0x03\n      add\n      sstore\n      swap1\n      pop\n      pop\n        /* \"vest.sol\":476:692  function createVestingSchedule(address _userAdd, uint start,uint duration,uint totalAmount, uint realeased) public onlyAdmin{... */\n      pop\n      pop\n      pop\n      pop\n      pop\n      jump\t// out\n        /* \"vest.sol\":210:267  mapping(address=> VestingShecdule) public vestingshecdule */\n    tag_17:\n      mstore(0x20, 0x00)\n      dup1\n      0x00\n      mstore\n      keccak256(0x00, 0x40)\n      0x00\n      swap2\n      pop\n      swap1\n      pop\n      dup1\n      0x00\n      add\n      sload\n      swap1\n      dup1\n      0x01\n      add\n      sload\n      swap1\n      dup1\n      0x02\n      add\n      sload\n      swap1\n      dup1\n      0x03\n      add\n      sload\n      swap1\n      pop\n      dup5\n      jump\t// out\n        /* \"vest.sol\":1273:1389  function getVest(address _add) public view returns (VestingShecdule memory){... */\n    tag_22:\n        /* \"vest.sol\":1325:1347  VestingShecdule memory */\n      tag_54\n      tag_55\n      jump\t// in\n    tag_54:\n        /* \"vest.sol\":1360:1375  vestingshecdule */\n      0x00\n        /* \"vest.sol\":1360:1381  vestingshecdule[_add] */\n      dup1\n        /* \"vest.sol\":1376:1380  _add */\n      dup4\n        /* \"vest.sol\":1360:1381  vestingshecdule[_add] */\n      0xffffffffffffffffffffffffffffffffffffffff\n      and\n      0xffffffffffffffffffffffffffffffffffffffff\n      and\n      dup2\n      mstore\n      0x20\n      add\n      swap1\n      dup2\n      mstore\n      0x20\n      add\n      0x00\n      keccak256\n        /* \"vest.sol\":1352:1381  return  vestingshecdule[_add] */\n      mload(0x40)\n      dup1\n      0x80\n      add\n      0x40\n      mstore\n      swap1\n      dup2\n      0x00\n      dup3\n      add\n      sload\n      dup2\n      mstore\n      0x20\n      add\n      0x01\n      dup3\n      add\n      sload\n      dup2\n      mstore\n      0x20\n      add\n      0x02\n      dup3\n      add\n      sload\n      dup2\n      mstore\n      0x20\n      add\n      0x03\n      dup3\n      add\n      sload\n      dup2\n      mstore\n      pop\n      pop\n      swap1\n      pop\n        /* \"vest.sol\":1273:1389  function getVest(address _add) public view returns (VestingShecdule memory){... */\n      swap2\n      swap1\n      pop\n      jump\t// out\n    tag_55:\n      mload(0x40)\n      dup1\n      0x80\n      add\n      0x40\n      mstore\n      dup1\n      0x00\n      dup2\n      mstore\n      0x20\n      add\n      0x00\n      dup2\n      mstore\n      0x20\n      add\n      0x00\n      dup2\n      mstore\n      0x20\n      add\n      0x00\n      dup2\n      mstore\n      pop\n      swap1\n      jump\t// out\n        /* \"#utility.yul\":88:205   */\n    tag_58:\n        /* \"#utility.yul\":197:198   */\n      0x00\n        /* \"#utility.yul\":194:195   */\n      dup1\n        /* \"#utility.yul\":187:199   */\n      revert\n        /* \"#utility.yul\":334:460   */\n    tag_60:\n        /* \"#utility.yul\":371:378   */\n      0x00\n        /* \"#utility.yul\":411:453   */\n      0xffffffffffffffffffffffffffffffffffffffff\n        /* \"#utility.yul\":404:409   */\n      dup3\n        /* \"#utility.yul\":400:454   */\n      and\n        /* \"#utility.yul\":389:454   */\n      swap1\n      pop\n        /* \"#utility.yul\":334:460   */\n      swap2\n      swap1\n      pop\n      jump\t// out\n        /* \"#utility.yul\":466:562   */\n    tag_61:\n        /* \"#utility.yul\":503:510   */\n      0x00\n        /* \"#utility.yul\":532:556   */\n      tag_90\n        /* \"#utility.yul\":550:555   */\n      dup3\n        /* \"#utility.yul\":532:556   */\n      tag_60\n      jump\t// in\n    tag_90:\n        /* \"#utility.yul\":521:556   */\n      swap1\n      pop\n        /* \"#utility.yul\":466:562   */\n      swap2\n      swap1\n      pop\n      jump\t// out\n        /* \"#utility.yul\":568:690   */\n    tag_62:\n        /* \"#utility.yul\":641:665   */\n      tag_92\n        /* \"#utility.yul\":659:664   */\n      dup2\n        /* \"#utility.yul\":641:665   */\n      tag_61\n      jump\t// in\n    tag_92:\n        /* \"#utility.yul\":634:639   */\n      dup2\n        /* \"#utility.yul\":631:666   */\n      eq\n        /* \"#utility.yul\":621:684   */\n      tag_93\n      jumpi\n        /* \"#utility.yul\":680:681   */\n      0x00\n        /* \"#utility.yul\":677:678   */\n      dup1\n        /* \"#utility.yul\":670:682   */\n      revert\n        /* \"#utility.yul\":621:684   */\n    tag_93:\n        /* \"#utility.yul\":568:690   */\n      pop\n      jump\t// out\n        /* \"#utility.yul\":696:835   */\n    tag_63:\n        /* \"#utility.yul\":742:747   */\n      0x00\n        /* \"#utility.yul\":780:786   */\n      dup2\n        /* \"#utility.yul\":767:787   */\n      calldataload\n        /* \"#utility.yul\":758:787   */\n      swap1\n      pop\n        /* \"#utility.yul\":796:829   */\n      tag_95\n        /* \"#utility.yul\":823:828   */\n      dup2\n        /* \"#utility.yul\":796:829   */\n      tag_62\n      jump\t// in\n    tag_95:\n        /* \"#utility.yul\":696:835   */\n      swap3\n      swap2\n      pop\n      pop\n      jump\t// out\n        /* \"#utility.yul\":841:1170   */\n    tag_9:\n        /* \"#utility.yul\":900:906   */\n      0x00\n        /* \"#utility.yul\":949:951   */\n      0x20\n        /* \"#utility.yul\":937:946   */\n      dup3\n        /* \"#utility.yul\":928:935   */\n      dup5\n        /* \"#utility.yul\":924:947   */\n      sub\n        /* \"#utility.yul\":920:952   */\n      slt\n        /* \"#utility.yul\":917:1036   */\n      iszero\n      tag_97\n      jumpi\n        /* \"#utility.yul\":955:1034   */\n      tag_98\n      tag_58\n      jump\t// in\n    tag_98:\n        /* \"#utility.yul\":917:1036   */\n    tag_97:\n        /* \"#utility.yul\":1075:1076   */\n      0x00\n        /* \"#utility.yul\":1100:1153   */\n      tag_99\n        /* \"#utility.yul\":1145:1152   */\n      dup5\n        /* \"#utility.yul\":1136:1142   */\n      dup3\n        /* \"#utility.yul\":1125:1134   */\n      dup6\n        /* \"#utility.yul\":1121:1143   */\n      add\n        /* \"#utility.yul\":1100:1153   */\n      tag_63\n      jump\t// in\n    tag_99:\n        /* \"#utility.yul\":1090:1153   */\n      swap2\n      pop\n        /* \"#utility.yul\":1046:1163   */\n      pop\n        /* \"#utility.yul\":841:1170   */\n      swap3\n      swap2\n      pop\n      pop\n      jump\t// out\n        /* \"#utility.yul\":1176:1253   */\n    tag_64:\n        /* \"#utility.yul\":1213:1220   */\n      0x00\n        /* \"#utility.yul\":1242:1247   */\n      dup2\n        /* \"#utility.yul\":1231:1247   */\n      swap1\n      pop\n        /* \"#utility.yul\":1176:1253   */\n      swap2\n      swap1\n      pop\n      jump\t// out\n        /* \"#utility.yul\":1259:1381   */\n    tag_65:\n        /* \"#utility.yul\":1332:1356   */\n      tag_102\n        /* \"#utility.yul\":1350:1355   */\n      dup2\n        /* \"#utility.yul\":1332:1356   */\n      tag_64\n      jump\t// in\n    tag_102:\n        /* \"#utility.yul\":1325:1330   */\n      dup2\n        /* \"#utility.yul\":1322:1357   */\n      eq\n        /* \"#utility.yul\":1312:1375   */\n      tag_103\n      jumpi\n        /* \"#utility.yul\":1371:1372   */\n      0x00\n        /* \"#utility.yul\":1368:1369   */\n      dup1\n        /* \"#utility.yul\":1361:1373   */\n      revert\n        /* \"#utility.yul\":1312:1375   */\n    tag_103:\n        /* \"#utility.yul\":1259:1381   */\n      pop\n      jump\t// out\n        /* \"#utility.yul\":1387:1526   */\n    tag_66:\n        /* \"#utility.yul\":1433:1438   */\n      0x00\n        /* \"#utility.yul\":1471:1477   */\n      dup2\n        /* \"#utility.yul\":1458:1478   */\n      calldataload\n        /* \"#utility.yul\":1449:1478   */\n      swap1\n      pop\n        /* \"#utility.yul\":1487:1520   */\n      tag_105\n        /* \"#utility.yul\":1514:1519   */\n      dup2\n        /* \"#utility.yul\":1487:1520   */\n      tag_65\n      jump\t// in\n    tag_105:\n        /* \"#utility.yul\":1387:1526   */\n      swap3\n      swap2\n      pop\n      pop\n      jump\t// out\n        /* \"#utility.yul\":1532:2443   */\n    tag_13:\n        /* \"#utility.yul\":1627:1633   */\n      0x00\n        /* \"#utility.yul\":1635:1641   */\n      dup1\n        /* \"#utility.yul\":1643:1649   */\n      0x00\n        /* \"#utility.yul\":1651:1657   */\n      dup1\n        /* \"#utility.yul\":1659:1665   */\n      0x00\n        /* \"#utility.yul\":1708:1711   */\n      0xa0\n        /* \"#utility.yul\":1696:1705   */\n      dup7\n        /* \"#utility.yul\":1687:1694   */\n      dup9\n        /* \"#utility.yul\":1683:1706   */\n      sub\n        /* \"#utility.yul\":1679:1712   */\n      slt\n        /* \"#utility.yul\":1676:1796   */\n      iszero\n      tag_107\n      jumpi\n        /* \"#utility.yul\":1715:1794   */\n      tag_108\n      tag_58\n      jump\t// in\n    tag_108:\n        /* \"#utility.yul\":1676:1796   */\n    tag_107:\n        /* \"#utility.yul\":1835:1836   */\n      0x00\n        /* \"#utility.yul\":1860:1913   */\n      tag_109\n        /* \"#utility.yul\":1905:1912   */\n      dup9\n        /* \"#utility.yul\":1896:1902   */\n      dup3\n        /* \"#utility.yul\":1885:1894   */\n      dup10\n        /* \"#utility.yul\":1881:1903   */\n      add\n        /* \"#utility.yul\":1860:1913   */\n      tag_63\n      jump\t// in\n    tag_109:\n        /* \"#utility.yul\":1850:1913   */\n      swap6\n      pop\n        /* \"#utility.yul\":1806:1923   */\n      pop\n        /* \"#utility.yul\":1962:1964   */\n      0x20\n        /* \"#utility.yul\":1988:2041   */\n      tag_110\n        /* \"#utility.yul\":2033:2040   */\n      dup9\n        /* \"#utility.yul\":2024:2030   */\n      dup3\n        /* \"#utility.yul\":2013:2022   */\n      dup10\n        /* \"#utility.yul\":2009:2031   */\n      add\n        /* \"#utility.yul\":1988:2041   */\n      tag_66\n      jump\t// in\n    tag_110:\n        /* \"#utility.yul\":1978:2041   */\n      swap5\n      pop\n        /* \"#utility.yul\":1933:2051   */\n      pop\n        /* \"#utility.yul\":2090:2092   */\n      0x40\n        /* \"#utility.yul\":2116:2169   */\n      tag_111\n        /* \"#utility.yul\":2161:2168   */\n      dup9\n        /* \"#utility.yul\":2152:2158   */\n      dup3\n        /* \"#utility.yul\":2141:2150   */\n      dup10\n        /* \"#utility.yul\":2137:2159   */\n      add\n        /* \"#utility.yul\":2116:2169   */\n      tag_66\n      jump\t// in\n    tag_111:\n        /* \"#utility.yul\":2106:2169   */\n      swap4\n      pop\n        /* \"#utility.yul\":2061:2179   */\n      pop\n        /* \"#utility.yul\":2218:2220   */\n      0x60\n        /* \"#utility.yul\":2244:2297   */\n      tag_112\n        /* \"#utility.yul\":2289:2296   */\n      dup9\n        /* \"#utility.yul\":2280:2286   */\n      dup3\n        /* \"#utility.yul\":2269:2278   */\n      dup10\n        /* \"#utility.yul\":2265:2287   */\n      add\n        /* \"#utility.yul\":2244:2297   */\n      tag_66\n      jump\t// in\n    tag_112:\n        /* \"#utility.yul\":2234:2297   */\n      swap3\n      pop\n        /* \"#utility.yul\":2189:2307   */\n      pop\n        /* \"#utility.yul\":2346:2349   */\n      0x80\n        /* \"#utility.yul\":2373:2426   */\n      tag_113\n        /* \"#utility.yul\":2418:2425   */\n      dup9\n        /* \"#utility.yul\":2409:2415   */\n      dup3\n        /* \"#utility.yul\":2398:2407   */\n      dup10\n        /* \"#utility.yul\":2394:2416   */\n      add\n        /* \"#utility.yul\":2373:2426   */\n      tag_66\n      jump\t// in\n    tag_113:\n        /* \"#utility.yul\":2363:2426   */\n      swap2\n      pop\n        /* \"#utility.yul\":2317:2436   */\n      pop\n        /* \"#utility.yul\":1532:2443   */\n      swap3\n      swap6\n      pop\n      swap3\n      swap6\n      swap1\n      swap4\n      pop\n      jump\t// out\n        /* \"#utility.yul\":2449:2567   */\n    tag_67:\n        /* \"#utility.yul\":2536:2560   */\n      tag_115\n        /* \"#utility.yul\":2554:2559   */\n      dup2\n        /* \"#utility.yul\":2536:2560   */\n      tag_64\n      jump\t// in\n    tag_115:\n        /* \"#utility.yul\":2531:2534   */\n      dup3\n        /* \"#utility.yul\":2524:2561   */\n      mstore\n        /* \"#utility.yul\":2449:2567   */\n      pop\n      pop\n      jump\t// out\n        /* \"#utility.yul\":2573:3126   */\n    tag_19:\n        /* \"#utility.yul\":2750:2754   */\n      0x00\n        /* \"#utility.yul\":2788:2791   */\n      0x80\n        /* \"#utility.yul\":2777:2786   */\n      dup3\n        /* \"#utility.yul\":2773:2792   */\n      add\n        /* \"#utility.yul\":2765:2792   */\n      swap1\n      pop\n        /* \"#utility.yul\":2802:2873   */\n      tag_117\n        /* \"#utility.yul\":2870:2871   */\n      0x00\n        /* \"#utility.yul\":2859:2868   */\n      dup4\n        /* \"#utility.yul\":2855:2872   */\n      add\n        /* \"#utility.yul\":2846:2852   */\n      dup8\n        /* \"#utility.yul\":2802:2873   */\n      tag_67\n      jump\t// in\n    tag_117:\n        /* \"#utility.yul\":2883:2955   */\n      tag_118\n        /* \"#utility.yul\":2951:2953   */\n      0x20\n        /* \"#utility.yul\":2940:2949   */\n      dup4\n        /* \"#utility.yul\":2936:2954   */\n      add\n        /* \"#utility.yul\":2927:2933   */\n      dup7\n        /* \"#utility.yul\":2883:2955   */\n      tag_67\n      jump\t// in\n    tag_118:\n        /* \"#utility.yul\":2965:3037   */\n      tag_119\n        /* \"#utility.yul\":3033:3035   */\n      0x40\n        /* \"#utility.yul\":3022:3031   */\n      dup4\n        /* \"#utility.yul\":3018:3036   */\n      add\n        /* \"#utility.yul\":3009:3015   */\n      dup6\n        /* \"#utility.yul\":2965:3037   */\n      tag_67\n      jump\t// in\n    tag_119:\n        /* \"#utility.yul\":3047:3119   */\n      tag_120\n        /* \"#utility.yul\":3115:3117   */\n      0x60\n        /* \"#utility.yul\":3104:3113   */\n      dup4\n        /* \"#utility.yul\":3100:3118   */\n      add\n        /* \"#utility.yul\":3091:3097   */\n      dup5\n        /* \"#utility.yul\":3047:3119   */\n      tag_67\n      jump\t// in\n    tag_120:\n        /* \"#utility.yul\":2573:3126   */\n      swap6\n      swap5\n      pop\n      pop\n      pop\n      pop\n      pop\n      jump\t// out\n        /* \"#utility.yul\":3132:3240   */\n    tag_68:\n        /* \"#utility.yul\":3209:3233   */\n      tag_122\n        /* \"#utility.yul\":3227:3232   */\n      dup2\n        /* \"#utility.yul\":3209:3233   */\n      tag_64\n      jump\t// in\n    tag_122:\n        /* \"#utility.yul\":3204:3207   */\n      dup3\n        /* \"#utility.yul\":3197:3234   */\n      mstore\n        /* \"#utility.yul\":3132:3240   */\n      pop\n      pop\n      jump\t// out\n        /* \"#utility.yul\":3318:4201   */\n    tag_69:\n        /* \"#utility.yul\":3477:3481   */\n      0x80\n        /* \"#utility.yul\":3472:3475   */\n      dup3\n        /* \"#utility.yul\":3468:3482   */\n      add\n        /* \"#utility.yul\":3565:3569   */\n      0x00\n        /* \"#utility.yul\":3558:3563   */\n      dup3\n        /* \"#utility.yul\":3554:3570   */\n      add\n        /* \"#utility.yul\":3548:3571   */\n      mload\n        /* \"#utility.yul\":3584:3647   */\n      tag_124\n        /* \"#utility.yul\":3641:3645   */\n      0x00\n        /* \"#utility.yul\":3636:3639   */\n      dup6\n        /* \"#utility.yul\":3632:3646   */\n      add\n        /* \"#utility.yul\":3618:3630   */\n      dup3\n        /* \"#utility.yul\":3584:3647   */\n      tag_68\n      jump\t// in\n    tag_124:\n        /* \"#utility.yul\":3492:3657   */\n      pop\n        /* \"#utility.yul\":3743:3747   */\n      0x20\n        /* \"#utility.yul\":3736:3741   */\n      dup3\n        /* \"#utility.yul\":3732:3748   */\n      add\n        /* \"#utility.yul\":3726:3749   */\n      mload\n        /* \"#utility.yul\":3762:3825   */\n      tag_125\n        /* \"#utility.yul\":3819:3823   */\n      0x20\n        /* \"#utility.yul\":3814:3817   */\n      dup6\n        /* \"#utility.yul\":3810:3824   */\n      add\n        /* \"#utility.yul\":3796:3808   */\n      dup3\n        /* \"#utility.yul\":3762:3825   */\n      tag_68\n      jump\t// in\n    tag_125:\n        /* \"#utility.yul\":3667:3835   */\n      pop\n        /* \"#utility.yul\":3924:3928   */\n      0x40\n        /* \"#utility.yul\":3917:3922   */\n      dup3\n        /* \"#utility.yul\":3913:3929   */\n      add\n        /* \"#utility.yul\":3907:3930   */\n      mload\n        /* \"#utility.yul\":3943:4006   */\n      tag_126\n        /* \"#utility.yul\":4000:4004   */\n      0x40\n        /* \"#utility.yul\":3995:3998   */\n      dup6\n        /* \"#utility.yul\":3991:4005   */\n      add\n        /* \"#utility.yul\":3977:3989   */\n      dup3\n        /* \"#utility.yul\":3943:4006   */\n      tag_68\n      jump\t// in\n    tag_126:\n        /* \"#utility.yul\":3845:4016   */\n      pop\n        /* \"#utility.yul\":4102:4106   */\n      0x60\n        /* \"#utility.yul\":4095:4100   */\n      dup3\n        /* \"#utility.yul\":4091:4107   */\n      add\n        /* \"#utility.yul\":4085:4108   */\n      mload\n        /* \"#utility.yul\":4121:4184   */\n      tag_127\n        /* \"#utility.yul\":4178:4182   */\n      0x60\n        /* \"#utility.yul\":4173:4176   */\n      dup6\n        /* \"#utility.yul\":4169:4183   */\n      add\n        /* \"#utility.yul\":4155:4167   */\n      dup3\n        /* \"#utility.yul\":4121:4184   */\n      tag_68\n      jump\t// in\n    tag_127:\n        /* \"#utility.yul\":4026:4194   */\n      pop\n        /* \"#utility.yul\":3446:4201   */\n      pop\n        /* \"#utility.yul\":3318:4201   */\n      pop\n      pop\n      jump\t// out\n        /* \"#utility.yul\":4207:4554   */\n    tag_24:\n        /* \"#utility.yul\":4362:4366   */\n      0x00\n        /* \"#utility.yul\":4400:4403   */\n      0x80\n        /* \"#utility.yul\":4389:4398   */\n      dup3\n        /* \"#utility.yul\":4385:4404   */\n      add\n        /* \"#utility.yul\":4377:4404   */\n      swap1\n      pop\n        /* \"#utility.yul\":4414:4547   */\n      tag_129\n        /* \"#utility.yul\":4544:4545   */\n      0x00\n        /* \"#utility.yul\":4533:4542   */\n      dup4\n        /* \"#utility.yul\":4529:4546   */\n      add\n        /* \"#utility.yul\":4520:4526   */\n      dup5\n        /* \"#utility.yul\":4414:4547   */\n      tag_69\n      jump\t// in\n    tag_129:\n        /* \"#utility.yul\":4207:4554   */\n      swap3\n      swap2\n      pop\n      pop\n      jump\t// out\n        /* \"#utility.yul\":4560:4729   */\n    tag_70:\n        /* \"#utility.yul\":4644:4655   */\n      0x00\n        /* \"#utility.yul\":4678:4684   */\n      dup3\n        /* \"#utility.yul\":4673:4676   */\n      dup3\n        /* \"#utility.yul\":4666:4685   */\n      mstore\n        /* \"#utility.yul\":4718:4722   */\n      0x20\n        /* \"#utility.yul\":4713:4716   */\n      dup3\n        /* \"#utility.yul\":4709:4723   */\n      add\n        /* \"#utility.yul\":4694:4723   */\n      swap1\n      pop\n        /* \"#utility.yul\":4560:4729   */\n      swap3\n      swap2\n      pop\n      pop\n      jump\t// out\n        /* \"#utility.yul\":4735:4914   */\n    tag_71:\n        /* \"#utility.yul\":4875:4906   */\n      0x2076657374696e672068617665206e6f74207965742073746172746564000000\n        /* \"#utility.yul\":4871:4872   */\n      0x00\n        /* \"#utility.yul\":4863:4869   */\n      dup3\n        /* \"#utility.yul\":4859:4873   */\n      add\n        /* \"#utility.yul\":4852:4907   */\n      mstore\n        /* \"#utility.yul\":4735:4914   */\n      pop\n      jump\t// out\n        /* \"#utility.yul\":4920:5286   */\n    tag_72:\n        /* \"#utility.yul\":5062:5065   */\n      0x00\n        /* \"#utility.yul\":5083:5150   */\n      tag_133\n        /* \"#utility.yul\":5147:5149   */\n      0x1d\n        /* \"#utility.yul\":5142:5145   */\n      dup4\n        /* \"#utility.yul\":5083:5150   */\n      tag_70\n      jump\t// in\n    tag_133:\n        /* \"#utility.yul\":5076:5150   */\n      swap2\n      pop\n        /* \"#utility.yul\":5159:5252   */\n      tag_134\n        /* \"#utility.yul\":5248:5251   */\n      dup3\n        /* \"#utility.yul\":5159:5252   */\n      tag_71\n      jump\t// in\n    tag_134:\n        /* \"#utility.yul\":5277:5279   */\n      0x20\n        /* \"#utility.yul\":5272:5275   */\n      dup3\n        /* \"#utility.yul\":5268:5280   */\n      add\n        /* \"#utility.yul\":5261:5280   */\n      swap1\n      pop\n        /* \"#utility.yul\":4920:5286   */\n      swap2\n      swap1\n      pop\n      jump\t// out\n        /* \"#utility.yul\":5292:5711   */\n    tag_28:\n        /* \"#utility.yul\":5458:5462   */\n      0x00\n        /* \"#utility.yul\":5496:5498   */\n      0x20\n        /* \"#utility.yul\":5485:5494   */\n      dup3\n        /* \"#utility.yul\":5481:5499   */\n      add\n        /* \"#utility.yul\":5473:5499   */\n      swap1\n      pop\n        /* \"#utility.yul\":5545:5554   */\n      dup2\n        /* \"#utility.yul\":5539:5543   */\n      dup2\n        /* \"#utility.yul\":5535:5555   */\n      sub\n        /* \"#utility.yul\":5531:5532   */\n      0x00\n        /* \"#utility.yul\":5520:5529   */\n      dup4\n        /* \"#utility.yul\":5516:5533   */\n      add\n        /* \"#utility.yul\":5509:5556   */\n      mstore\n        /* \"#utility.yul\":5573:5704   */\n      tag_136\n        /* \"#utility.yul\":5699:5703   */\n      dup2\n        /* \"#utility.yul\":5573:5704   */\n      tag_72\n      jump\t// in\n    tag_136:\n        /* \"#utility.yul\":5565:5704   */\n      swap1\n      pop\n        /* \"#utility.yul\":5292:5711   */\n      swap2\n      swap1\n      pop\n      jump\t// out\n        /* \"#utility.yul\":5717:5897   */\n    tag_73:\n        /* \"#utility.yul\":5765:5842   */\n      0x4e487b7100000000000000000000000000000000000000000000000000000000\n        /* \"#utility.yul\":5762:5763   */\n      0x00\n        /* \"#utility.yul\":5755:5843   */\n      mstore\n        /* \"#utility.yul\":5862:5866   */\n      0x11\n        /* \"#utility.yul\":5859:5860   */\n      0x04\n        /* \"#utility.yul\":5852:5867   */\n      mstore\n        /* \"#utility.yul\":5886:5890   */\n      0x24\n        /* \"#utility.yul\":5883:5884   */\n      0x00\n        /* \"#utility.yul\":5876:5891   */\n      revert\n        /* \"#utility.yul\":5903:6097   */\n    tag_30:\n        /* \"#utility.yul\":5943:5947   */\n      0x00\n        /* \"#utility.yul\":5963:5983   */\n      tag_139\n        /* \"#utility.yul\":5981:5982   */\n      dup3\n        /* \"#utility.yul\":5963:5983   */\n      tag_64\n      jump\t// in\n    tag_139:\n        /* \"#utility.yul\":5958:5983   */\n      swap2\n      pop\n        /* \"#utility.yul\":5997:6017   */\n      tag_140\n        /* \"#utility.yul\":6015:6016   */\n      dup4\n        /* \"#utility.yul\":5997:6017   */\n      tag_64\n      jump\t// in\n    tag_140:\n        /* \"#utility.yul\":5992:6017   */\n      swap3\n      pop\n        /* \"#utility.yul\":6041:6042   */\n      dup3\n        /* \"#utility.yul\":6038:6039   */\n      dup3\n        /* \"#utility.yul\":6034:6043   */\n      sub\n        /* \"#utility.yul\":6026:6043   */\n      swap1\n      pop\n        /* \"#utility.yul\":6065:6066   */\n      dup2\n        /* \"#utility.yul\":6059:6063   */\n      dup2\n        /* \"#utility.yul\":6056:6067   */\n      gt\n        /* \"#utility.yul\":6053:6090   */\n      iszero\n      tag_141\n      jumpi\n        /* \"#utility.yul\":6070:6088   */\n      tag_142\n      tag_73\n      jump\t// in\n    tag_142:\n        /* \"#utility.yul\":6053:6090   */\n    tag_141:\n        /* \"#utility.yul\":5903:6097   */\n      swap3\n      swap2\n      pop\n      pop\n      jump\t// out\n        /* \"#utility.yul\":6103:6513   */\n    tag_32:\n        /* \"#utility.yul\":6143:6150   */\n      0x00\n        /* \"#utility.yul\":6166:6186   */\n      tag_144\n        /* \"#utility.yul\":6184:6185   */\n      dup3\n        /* \"#utility.yul\":6166:6186   */\n      tag_64\n      jump\t// in\n    tag_144:\n        /* \"#utility.yul\":6161:6186   */\n      swap2\n      pop\n        /* \"#utility.yul\":6200:6220   */\n      tag_145\n        /* \"#utility.yul\":6218:6219   */\n      dup4\n        /* \"#utility.yul\":6200:6220   */\n      tag_64\n      jump\t// in\n    tag_145:\n        /* \"#utility.yul\":6195:6220   */\n      swap3\n      pop\n        /* \"#utility.yul\":6255:6256   */\n      dup3\n        /* \"#utility.yul\":6252:6253   */\n      dup3\n        /* \"#utility.yul\":6248:6257   */\n      mul\n        /* \"#utility.yul\":6277:6307   */\n      tag_146\n        /* \"#utility.yul\":6295:6306   */\n      dup2\n        /* \"#utility.yul\":6277:6307   */\n      tag_64\n      jump\t// in\n    tag_146:\n        /* \"#utility.yul\":6266:6307   */\n      swap2\n      pop\n        /* \"#utility.yul\":6456:6457   */\n      dup3\n        /* \"#utility.yul\":6447:6454   */\n      dup3\n        /* \"#utility.yul\":6443:6458   */\n      div\n        /* \"#utility.yul\":6440:6441   */\n      dup5\n        /* \"#utility.yul\":6437:6459   */\n      eq\n        /* \"#utility.yul\":6417:6418   */\n      dup4\n        /* \"#utility.yul\":6410:6419   */\n      iszero\n        /* \"#utility.yul\":6390:6473   */\n      or\n        /* \"#utility.yul\":6367:6506   */\n      tag_147\n      jumpi\n        /* \"#utility.yul\":6486:6504   */\n      tag_148\n      tag_73\n      jump\t// in\n    tag_148:\n        /* \"#utility.yul\":6367:6506   */\n    tag_147:\n        /* \"#utility.yul\":6151:6513   */\n      pop\n        /* \"#utility.yul\":6103:6513   */\n      swap3\n      swap2\n      pop\n      pop\n      jump\t// out\n        /* \"#utility.yul\":6519:6699   */\n    tag_74:\n        /* \"#utility.yul\":6567:6644   */\n      0x4e487b7100000000000000000000000000000000000000000000000000000000\n        /* \"#utility.yul\":6564:6565   */\n      0x00\n        /* \"#utility.yul\":6557:6645   */\n      mstore\n        /* \"#utility.yul\":6664:6668   */\n      0x12\n        /* \"#utility.yul\":6661:6662   */\n      0x04\n        /* \"#utility.yul\":6654:6669   */\n      mstore\n        /* \"#utility.yul\":6688:6692   */\n      0x24\n        /* \"#utility.yul\":6685:6686   */\n      0x00\n        /* \"#utility.yul\":6678:6693   */\n      revert\n        /* \"#utility.yul\":6705:6890   */\n    tag_34:\n        /* \"#utility.yul\":6745:6746   */\n      0x00\n        /* \"#utility.yul\":6762:6782   */\n      tag_151\n        /* \"#utility.yul\":6780:6781   */\n      dup3\n        /* \"#utility.yul\":6762:6782   */\n      tag_64\n      jump\t// in\n    tag_151:\n        /* \"#utility.yul\":6757:6782   */\n      swap2\n      pop\n        /* \"#utility.yul\":6796:6816   */\n      tag_152\n        /* \"#utility.yul\":6814:6815   */\n      dup4\n        /* \"#utility.yul\":6796:6816   */\n      tag_64\n      jump\t// in\n    tag_152:\n        /* \"#utility.yul\":6791:6816   */\n      swap3\n      pop\n        /* \"#utility.yul\":6835:6836   */\n      dup3\n        /* \"#utility.yul\":6825:6860   */\n      tag_153\n      jumpi\n        /* \"#utility.yul\":6840:6858   */\n      tag_154\n      tag_74\n      jump\t// in\n    tag_154:\n        /* \"#utility.yul\":6825:6860   */\n    tag_153:\n        /* \"#utility.yul\":6882:6883   */\n      dup3\n        /* \"#utility.yul\":6879:6880   */\n      dup3\n        /* \"#utility.yul\":6875:6884   */\n      div\n        /* \"#utility.yul\":6870:6884   */\n      swap1\n      pop\n        /* \"#utility.yul\":6705:6890   */\n      swap3\n      swap2\n      pop\n      pop\n      jump\t// out\n        /* \"#utility.yul\":6896:7063   */\n    tag_75:\n        /* \"#utility.yul\":7036:7055   */\n      0x696e7375666669656e637420666f756e64000000000000000000000000000000\n        /* \"#utility.yul\":7032:7033   */\n      0x00\n        /* \"#utility.yul\":7024:7030   */\n      dup3\n        /* \"#utility.yul\":7020:7034   */\n      add\n        /* \"#utility.yul\":7013:7056   */\n      mstore\n        /* \"#utility.yul\":6896:7063   */\n      pop\n      jump\t// out\n        /* \"#utility.yul\":7069:7435   */\n    tag_76:\n        /* \"#utility.yul\":7211:7214   */\n      0x00\n        /* \"#utility.yul\":7232:7299   */\n      tag_157\n        /* \"#utility.yul\":7296:7298   */\n      0x11\n        /* \"#utility.yul\":7291:7294   */\n      dup4\n        /* \"#utility.yul\":7232:7299   */\n      tag_70\n      jump\t// in\n    tag_157:\n        /* \"#utility.yul\":7225:7299   */\n      swap2\n      pop\n        /* \"#utility.yul\":7308:7401   */\n      tag_158\n        /* \"#utility.yul\":7397:7400   */\n      dup3\n        /* \"#utility.yul\":7308:7401   */\n      tag_75\n      jump\t// in\n    tag_158:\n        /* \"#utility.yul\":7426:7428   */\n      0x20\n        /* \"#utility.yul\":7421:7424   */\n      dup3\n        /* \"#utility.yul\":7417:7429   */\n      add\n        /* \"#utility.yul\":7410:7429   */\n      swap1\n      pop\n        /* \"#utility.yul\":7069:7435   */\n      swap2\n      swap1\n      pop\n      jump\t// out\n        /* \"#utility.yul\":7441:7860   */\n    tag_38:\n        /* \"#utility.yul\":7607:7611   */\n      0x00\n        /* \"#utility.yul\":7645:7647   */\n      0x20\n        /* \"#utility.yul\":7634:7643   */\n      dup3\n        /* \"#utility.yul\":7630:7648   */\n      add\n        /* \"#utility.yul\":7622:7648   */\n      swap1\n      pop\n        /* \"#utility.yul\":7694:7703   */\n      dup2\n        /* \"#utility.yul\":7688:7692   */\n      dup2\n        /* \"#utility.yul\":7684:7704   */\n      sub\n        /* \"#utility.yul\":7680:7681   */\n      0x00\n        /* \"#utility.yul\":7669:7678   */\n      dup4\n        /* \"#utility.yul\":7665:7682   */\n      add\n        /* \"#utility.yul\":7658:7705   */\n      mstore\n        /* \"#utility.yul\":7722:7853   */\n      tag_160\n        /* \"#utility.yul\":7848:7852   */\n      dup2\n        /* \"#utility.yul\":7722:7853   */\n      tag_76\n      jump\t// in\n    tag_160:\n        /* \"#utility.yul\":7714:7853   */\n      swap1\n      pop\n        /* \"#utility.yul\":7441:7860   */\n      swap2\n      swap1\n      pop\n      jump\t// out\n        /* \"#utility.yul\":7866:8057   */\n    tag_40:\n        /* \"#utility.yul\":7906:7909   */\n      0x00\n        /* \"#utility.yul\":7925:7945   */\n      tag_162\n        /* \"#utility.yul\":7943:7944   */\n      dup3\n        /* \"#utility.yul\":7925:7945   */\n      tag_64\n      jump\t// in\n    tag_162:\n        /* \"#utility.yul\":7920:7945   */\n      swap2\n      pop\n        /* \"#utility.yul\":7959:7979   */\n      tag_163\n        /* \"#utility.yul\":7977:7978   */\n      dup4\n        /* \"#utility.yul\":7959:7979   */\n      tag_64\n      jump\t// in\n    tag_163:\n        /* \"#utility.yul\":7954:7979   */\n      swap3\n      pop\n        /* \"#utility.yul\":8002:8003   */\n      dup3\n        /* \"#utility.yul\":7999:8000   */\n      dup3\n        /* \"#utility.yul\":7995:8004   */\n      add\n        /* \"#utility.yul\":7988:8004   */\n      swap1\n      pop\n        /* \"#utility.yul\":8023:8026   */\n      dup1\n        /* \"#utility.yul\":8020:8021   */\n      dup3\n        /* \"#utility.yul\":8017:8027   */\n      gt\n        /* \"#utility.yul\":8014:8050   */\n      iszero\n      tag_164\n      jumpi\n        /* \"#utility.yul\":8030:8048   */\n      tag_165\n      tag_73\n      jump\t// in\n    tag_165:\n        /* \"#utility.yul\":8014:8050   */\n    tag_164:\n        /* \"#utility.yul\":7866:8057   */\n      swap3\n      swap2\n      pop\n      pop\n      jump\t// out\n        /* \"#utility.yul\":8063:8210   */\n    tag_77:\n        /* \"#utility.yul\":8164:8175   */\n      0x00\n        /* \"#utility.yul\":8201:8204   */\n      dup2\n        /* \"#utility.yul\":8186:8204   */\n      swap1\n      pop\n        /* \"#utility.yul\":8063:8210   */\n      swap3\n      swap2\n      pop\n      pop\n      jump\t// out\n        /* \"#utility.yul\":8216:8330   */\n    tag_78:\n      pop\n      jump\t// out\n        /* \"#utility.yul\":8336:8734   */\n    tag_79:\n        /* \"#utility.yul\":8495:8498   */\n      0x00\n        /* \"#utility.yul\":8516:8599   */\n      tag_169\n        /* \"#utility.yul\":8597:8598   */\n      0x00\n        /* \"#utility.yul\":8592:8595   */\n      dup4\n        /* \"#utility.yul\":8516:8599   */\n      tag_77\n      jump\t// in\n    tag_169:\n        /* \"#utility.yul\":8509:8599   */\n      swap2\n      pop\n        /* \"#utility.yul\":8608:8701   */\n      tag_170\n        /* \"#utility.yul\":8697:8700   */\n      dup3\n        /* \"#utility.yul\":8608:8701   */\n      tag_78\n      jump\t// in\n    tag_170:\n        /* \"#utility.yul\":8726:8727   */\n      0x00\n        /* \"#utility.yul\":8721:8724   */\n      dup3\n        /* \"#utility.yul\":8717:8728   */\n      add\n        /* \"#utility.yul\":8710:8728   */\n      swap1\n      pop\n        /* \"#utility.yul\":8336:8734   */\n      swap2\n      swap1\n      pop\n      jump\t// out\n        /* \"#utility.yul\":8740:9119   */\n    tag_42:\n        /* \"#utility.yul\":8924:8927   */\n      0x00\n        /* \"#utility.yul\":8946:9093   */\n      tag_172\n        /* \"#utility.yul\":9089:9092   */\n      dup3\n        /* \"#utility.yul\":8946:9093   */\n      tag_79\n      jump\t// in\n    tag_172:\n        /* \"#utility.yul\":8939:9093   */\n      swap2\n      pop\n        /* \"#utility.yul\":9110:9113   */\n      dup2\n        /* \"#utility.yul\":9103:9113   */\n      swap1\n      pop\n        /* \"#utility.yul\":8740:9119   */\n      swap2\n      swap1\n      pop\n      jump\t// out\n        /* \"#utility.yul\":9125:9293   */\n    tag_80:\n        /* \"#utility.yul\":9265:9285   */\n      0x4661696c6420746f207769746864726177200000000000000000000000000000\n        /* \"#utility.yul\":9261:9262   */\n      0x00\n        /* \"#utility.yul\":9253:9259   */\n      dup3\n        /* \"#utility.yul\":9249:9263   */\n      add\n        /* \"#utility.yul\":9242:9286   */\n      mstore\n        /* \"#utility.yul\":9125:9293   */\n      pop\n      jump\t// out\n        /* \"#utility.yul\":9299:9665   */\n    tag_81:\n        /* \"#utility.yul\":9441:9444   */\n      0x00\n        /* \"#utility.yul\":9462:9529   */\n      tag_175\n        /* \"#utility.yul\":9526:9528   */\n      0x12\n        /* \"#utility.yul\":9521:9524   */\n      dup4\n        /* \"#utility.yul\":9462:9529   */\n      tag_70\n      jump\t// in\n    tag_175:\n        /* \"#utility.yul\":9455:9529   */\n      swap2\n      pop\n        /* \"#utility.yul\":9538:9631   */\n      tag_176\n        /* \"#utility.yul\":9627:9630   */\n      dup3\n        /* \"#utility.yul\":9538:9631   */\n      tag_80\n      jump\t// in\n    tag_176:\n        /* \"#utility.yul\":9656:9658   */\n      0x20\n        /* \"#utility.yul\":9651:9654   */\n      dup3\n        /* \"#utility.yul\":9647:9659   */\n      add\n        /* \"#utility.yul\":9640:9659   */\n      swap1\n      pop\n        /* \"#utility.yul\":9299:9665   */\n      swap2\n      swap1\n      pop\n      jump\t// out\n        /* \"#utility.yul\":9671:10090   */\n    tag_48:\n        /* \"#utility.yul\":9837:9841   */\n      0x00\n        /* \"#utility.yul\":9875:9877   */\n      0x20\n        /* \"#utility.yul\":9864:9873   */\n      dup3\n        /* \"#utility.yul\":9860:9878   */\n      add\n        /* \"#utility.yul\":9852:9878   */\n      swap1\n      pop\n        /* \"#utility.yul\":9924:9933   */\n      dup2\n        /* \"#utility.yul\":9918:9922   */\n      dup2\n        /* \"#utility.yul\":9914:9934   */\n      sub\n        /* \"#utility.yul\":9910:9911   */\n      0x00\n        /* \"#utility.yul\":9899:9908   */\n      dup4\n        /* \"#utility.yul\":9895:9912   */\n      add\n        /* \"#utility.yul\":9888:9935   */\n      mstore\n        /* \"#utility.yul\":9952:10083   */\n      tag_178\n        /* \"#utility.yul\":10078:10082   */\n      dup2\n        /* \"#utility.yul\":9952:10083   */\n      tag_81\n      jump\t// in\n    tag_178:\n        /* \"#utility.yul\":9944:10083   */\n      swap1\n      pop\n        /* \"#utility.yul\":9671:10090   */\n      swap2\n      swap1\n      pop\n      jump\t// out\n        /* \"#utility.yul\":10096:10322   */\n    tag_82:\n        /* \"#utility.yul\":10236:10270   */\n      0x6f6e6c792061646d696e2063616e20637265616520612076657374696e672073\n        /* \"#utility.yul\":10232:10233   */\n      0x00\n        /* \"#utility.yul\":10224:10230   */\n      dup3\n        /* \"#utility.yul\":10220:10234   */\n      add\n        /* \"#utility.yul\":10213:10271   */\n      mstore\n        /* \"#utility.yul\":10305:10314   */\n      0x63686564756c6500000000000000000000000000000000000000000000000000\n        /* \"#utility.yul\":10300:10302   */\n      0x20\n        /* \"#utility.yul\":10292:10298   */\n      dup3\n        /* \"#utility.yul\":10288:10303   */\n      add\n        /* \"#utility.yul\":10281:10315   */\n      mstore\n        /* \"#utility.yul\":10096:10322   */\n      pop\n      jump\t// out\n        /* \"#utility.yul\":10328:10694   */\n    tag_83:\n        /* \"#utility.yul\":10470:10473   */\n      0x00\n        /* \"#utility.yul\":10491:10558   */\n      tag_181\n        /* \"#utility.yul\":10555:10557   */\n      0x27\n        /* \"#utility.yul\":10550:10553   */\n      dup4\n        /* \"#utility.yul\":10491:10558   */\n      tag_70\n      jump\t// in\n    tag_181:\n        /* \"#utility.yul\":10484:10558   */\n      swap2\n      pop\n        /* \"#utility.yul\":10567:10660   */\n      tag_182\n        /* \"#utility.yul\":10656:10659   */\n      dup3\n        /* \"#utility.yul\":10567:10660   */\n      tag_82\n      jump\t// in\n    tag_182:\n        /* \"#utility.yul\":10685:10687   */\n      0x40\n        /* \"#utility.yul\":10680:10683   */\n      dup3\n        /* \"#utility.yul\":10676:10688   */\n      add\n        /* \"#utility.yul\":10669:10688   */\n      swap1\n      pop\n        /* \"#utility.yul\":10328:10694   */\n      swap2\n      swap1\n      pop\n      jump\t// out\n        /* \"#utility.yul\":10700:11119   */\n    tag_52:\n        /* \"#utility.yul\":10866:10870   */\n      0x00\n        /* \"#utility.yul\":10904:10906   */\n      0x20\n        /* \"#utility.yul\":10893:10902   */\n      dup3\n        /* \"#utility.yul\":10889:10907   */\n      add\n        /* \"#utility.yul\":10881:10907   */\n      swap1\n      pop\n        /* \"#utility.yul\":10953:10962   */\n      dup2\n        /* \"#utility.yul\":10947:10951   */\n      dup2\n        /* \"#utility.yul\":10943:10963   */\n      sub\n        /* \"#utility.yul\":10939:10940   */\n      0x00\n        /* \"#utility.yul\":10928:10937   */\n      dup4\n        /* \"#utility.yul\":10924:10941   */\n      add\n        /* \"#utility.yul\":10917:10964   */\n      mstore\n        /* \"#utility.yul\":10981:11112   */\n      tag_184\n        /* \"#utility.yul\":11107:11111   */\n      dup2\n        /* \"#utility.yul\":10981:11112   */\n      tag_83\n      jump\t// in\n    tag_184:\n        /* \"#utility.yul\":10973:11112   */\n      swap1\n      pop\n        /* \"#utility.yul\":10700:11119   */\n      swap2\n      swap1\n      pop\n      jump\t// out\n\n    auxdata: 0xa264697066735822122030f94897f18c1ad3bc9030b7196303200743ef1f63f92dc9619a7e12a720ea6a64736f6c63430008120033\n}\n",
				"bytecode": {
					"linkReferences": {},
					"object": "60a06040524260015534801561001457600080fd5b503373ffffffffffffffffffffffffffffffffffffffff1660808173ffffffffffffffffffffffffffffffffffffffff1681525050608051610a7261006460003960006102e40152610a726000f3fe608060405234801561001057600080fd5b506004361061004c5760003560e01c806319165587146100515780631bf0b08b1461006d5780631cc908b814610089578063474fc417146100bc575b600080fd5b61006b60048036038101906100669190610525565b6100ec565b005b61008760048036038101906100829190610588565b6102cb565b005b6100a3600480360381019061009e9190610525565b6103ea565b6040516100b39493929190610612565b60405180910390f35b6100d660048036038101906100d19190610525565b61041a565b6040516100e391906106bb565b60405180910390f35b60008060008373ffffffffffffffffffffffffffffffffffffffff1673ffffffffffffffffffffffffffffffffffffffff168152602001908152602001600020905080600001544211610174576040517f08c379a000000000000000000000000000000000000000000000000000000000815260040161016b90610733565b60405180910390fd5b6000816001015482600201548360000154426101909190610782565b61019a91906107b6565b6101a49190610827565b905060008260030154826101b89190610782565b9050600081116101fd576040517f08c379a00000000000000000000000000000000000000000000000000000000081526004016101f4906108a4565b60405180910390fd5b8083600301600082825461021191906108c4565b9250508190555060003373ffffffffffffffffffffffffffffffffffffffff168260405161023e90610929565b60006040518083038185875af1925050503d806000811461027b576040519150601f19603f3d011682016040523d82523d6000602084013e610280565b606091505b50509050806102c4576040517f08c379a00000000000000000000000000000000000000000000000000000000081526004016102bb9061098a565b60405180910390fd5b5050505050565b3373ffffffffffffffffffffffffffffffffffffffff167f000000000000000000000000000000000000000000000000000000000000000073ffffffffffffffffffffffffffffffffffffffff1614610359576040517f08c379a000000000000000000000000000000000000000000000000000000000815260040161035090610a1c565b60405180910390fd5b6040518060800160405280858152602001848152602001838152602001828152506000808773ffffffffffffffffffffffffffffffffffffffff1673ffffffffffffffffffffffffffffffffffffffff168152602001908152602001600020600082015181600001556020820151816001015560408201518160020155606082015181600301559050505050505050565b60006020528060005260406000206000915090508060000154908060010154908060020154908060030154905084565b61042261049a565b6000808373ffffffffffffffffffffffffffffffffffffffff1673ffffffffffffffffffffffffffffffffffffffff1681526020019081526020016000206040518060800160405290816000820154815260200160018201548152602001600282015481526020016003820154815250509050919050565b6040518060800160405280600081526020016000815260200160008152602001600081525090565b600080fd5b600073ffffffffffffffffffffffffffffffffffffffff82169050919050565b60006104f2826104c7565b9050919050565b610502816104e7565b811461050d57600080fd5b50565b60008135905061051f816104f9565b92915050565b60006020828403121561053b5761053a6104c2565b5b600061054984828501610510565b91505092915050565b6000819050919050565b61056581610552565b811461057057600080fd5b50565b6000813590506105828161055c565b92915050565b600080600080600060a086880312156105a4576105a36104c2565b5b60006105b288828901610510565b95505060206105c388828901610573565b94505060406105d488828901610573565b93505060606105e588828901610573565b92505060806105f688828901610573565b9150509295509295909350565b61060c81610552565b82525050565b60006080820190506106276000830187610603565b6106346020830186610603565b6106416040830185610603565b61064e6060830184610603565b95945050505050565b61066081610552565b82525050565b60808201600082015161067c6000850182610657565b50602082015161068f6020850182610657565b5060408201516106a26040850182610657565b5060608201516106b56060850182610657565b50505050565b60006080820190506106d06000830184610666565b92915050565b600082825260208201905092915050565b7f2076657374696e672068617665206e6f74207965742073746172746564000000600082015250565b600061071d601d836106d6565b9150610728826106e7565b602082019050919050565b6000602082019050818103600083015261074c81610710565b9050919050565b7f4e487b7100000000000000000000000000000000000000000000000000000000600052601160045260246000fd5b600061078d82610552565b915061079883610552565b92508282039050818111156107b0576107af610753565b5b92915050565b60006107c182610552565b91506107cc83610552565b92508282026107da81610552565b915082820484148315176107f1576107f0610753565b5b5092915050565b7f4e487b7100000000000000000000000000000000000000000000000000000000600052601260045260246000fd5b600061083282610552565b915061083d83610552565b92508261084d5761084c6107f8565b5b828204905092915050565b7f696e7375666669656e637420666f756e64000000000000000000000000000000600082015250565b600061088e6011836106d6565b915061089982610858565b602082019050919050565b600060208201905081810360008301526108bd81610881565b9050919050565b60006108cf82610552565b91506108da83610552565b92508282019050808211156108f2576108f1610753565b5b92915050565b600081905092915050565b50565b60006109136000836108f8565b915061091e82610903565b600082019050919050565b600061093482610906565b9150819050919050565b7f4661696c6420746f207769746864726177200000000000000000000000000000600082015250565b60006109746012836106d6565b915061097f8261093e565b602082019050919050565b600060208201905081810360008301526109a381610967565b9050919050565b7f6f6e6c792061646d696e2063616e20637265616520612076657374696e67207360008201527f63686564756c6500000000000000000000000000000000000000000000000000602082015250565b6000610a066027836106d6565b9150610a11826109aa565b604082019050919050565b60006020820190508181036000830152610a35816109f9565b905091905056fea264697066735822122030f94897f18c1ad3bc9030b7196303200743ef1f63f92dc9619a7e12a720ea6a64736f6c63430008120033",
					"opcodes": "PUSH1 0xA0 PUSH1 0x40 MSTORE TIMESTAMP PUSH1 0x1 SSTORE CALLVALUE DUP1 ISZERO PUSH2 0x14 JUMPI PUSH1 0x0 DUP1 REVERT JUMPDEST POP CALLER PUSH20 0xFFFFFFFFFFFFFFFFFFFFFFFFFFFFFFFFFFFFFFFF AND PUSH1 0x80 DUP2 PUSH20 0xFFFFFFFFFFFFFFFFFFFFFFFFFFFFFFFFFFFFFFFF AND DUP2 MSTORE POP POP PUSH1 0x80 MLOAD PUSH2 0xA72 PUSH2 0x64 PUSH1 0x0 CODECOPY PUSH1 0x0 PUSH2 0x2E4 ADD MSTORE PUSH2 0xA72 PUSH1 0x0 RETURN INVALID PUSH1 0x80 PUSH1 0x40 MSTORE CALLVALUE DUP1 ISZERO PUSH2 0x10 JUMPI PUSH1 0x0 DUP1 REVERT JUMPDEST POP PUSH1 0x4 CALLDATASIZE LT PUSH2 0x4C JUMPI PUSH1 0x0 CALLDATALOAD PUSH1 0xE0 SHR DUP1 PUSH4 0x19165587 EQ PUSH2 0x51 JUMPI DUP1 PUSH4 0x1BF0B08B EQ PUSH2 0x6D JUMPI DUP1 PUSH4 0x1CC908B8 EQ PUSH2 0x89 JUMPI DUP1 PUSH4 0x474FC417 EQ PUSH2 0xBC JUMPI JUMPDEST PUSH1 0x0 DUP1 REVERT JUMPDEST PUSH2 0x6B PUSH1 0x4 DUP1 CALLDATASIZE SUB DUP2 ADD SWAP1 PUSH2 0x66 SWAP2 SWAP1 PUSH2 0x525 JUMP JUMPDEST PUSH2 0xEC JUMP JUMPDEST STOP JUMPDEST PUSH2 0x87 PUSH1 0x4 DUP1 CALLDATASIZE SUB DUP2 ADD SWAP1 PUSH2 0x82 SWAP2 SWAP1 PUSH2 0x588 JUMP JUMPDEST PUSH2 0x2CB JUMP JUMPDEST STOP JUMPDEST PUSH2 0xA3 PUSH1 0x4 DUP1 CALLDATASIZE SUB DUP2 ADD SWAP1 PUSH2 0x9E SWAP2 SWAP1 PUSH2 0x525 JUMP JUMPDEST PUSH2 0x3EA JUMP JUMPDEST PUSH1 0x40 MLOAD PUSH2 0xB3 SWAP5 SWAP4 SWAP3 SWAP2 SWAP1 PUSH2 0x612 JUMP JUMPDEST PUSH1 0x40 MLOAD DUP1 SWAP2 SUB SWAP1 RETURN JUMPDEST PUSH2 0xD6 PUSH1 0x4 DUP1 CALLDATASIZE SUB DUP2 ADD SWAP1 PUSH2 0xD1 SWAP2 SWAP1 PUSH2 0x525 JUMP JUMPDEST PUSH2 0x41A JUMP JUMPDEST PUSH1 0x40 MLOAD PUSH2 0xE3 SWAP2 SWAP1 PUSH2 0x6BB JUMP JUMPDEST PUSH1 0x40 MLOAD DUP1 SWAP2 SUB SWAP1 RETURN JUMPDEST PUSH1 0x0 DUP1 PUSH1 0x0 DUP4 PUSH20 0xFFFFFFFFFFFFFFFFFFFFFFFFFFFFFFFFFFFFFFFF AND PUSH20 0xFFFFFFFFFFFFFFFFFFFFFFFFFFFFFFFFFFFFFFFF AND DUP2 MSTORE PUSH1 0x20 ADD SWAP1 DUP2 MSTORE PUSH1 0x20 ADD PUSH1 0x0 KECCAK256 SWAP1 POP DUP1 PUSH1 0x0 ADD SLOAD TIMESTAMP GT PUSH2 0x174 JUMPI PUSH1 0x40 MLOAD PUSH32 0x8C379A000000000000000000000000000000000000000000000000000000000 DUP2 MSTORE PUSH1 0x4 ADD PUSH2 0x16B SWAP1 PUSH2 0x733 JUMP JUMPDEST PUSH1 0x40 MLOAD DUP1 SWAP2 SUB SWAP1 REVERT JUMPDEST PUSH1 0x0 DUP2 PUSH1 0x1 ADD SLOAD DUP3 PUSH1 0x2 ADD SLOAD DUP4 PUSH1 0x0 ADD SLOAD TIMESTAMP PUSH2 0x190 SWAP2 SWAP1 PUSH2 0x782 JUMP JUMPDEST PUSH2 0x19A SWAP2 SWAP1 PUSH2 0x7B6 JUMP JUMPDEST PUSH2 0x1A4 SWAP2 SWAP1 PUSH2 0x827 JUMP JUMPDEST SWAP1 POP PUSH1 0x0 DUP3 PUSH1 0x3 ADD SLOAD DUP3 PUSH2 0x1B8 SWAP2 SWAP1 PUSH2 0x782 JUMP JUMPDEST SWAP1 POP PUSH1 0x0 DUP2 GT PUSH2 0x1FD JUMPI PUSH1 0x40 MLOAD PUSH32 0x8C379A000000000000000000000000000000000000000000000000000000000 DUP2 MSTORE PUSH1 0x4 ADD PUSH2 0x1F4 SWAP1 PUSH2 0x8A4 JUMP JUMPDEST PUSH1 0x40 MLOAD DUP1 SWAP2 SUB SWAP1 REVERT JUMPDEST DUP1 DUP4 PUSH1 0x3 ADD PUSH1 0x0 DUP3 DUP3 SLOAD PUSH2 0x211 SWAP2 SWAP1 PUSH2 0x8C4 JUMP JUMPDEST SWAP3 POP POP DUP2 SWAP1 SSTORE POP PUSH1 0x0 CALLER PUSH20 0xFFFFFFFFFFFFFFFFFFFFFFFFFFFFFFFFFFFFFFFF AND DUP3 PUSH1 0x40 MLOAD PUSH2 0x23E SWAP1 PUSH2 0x929 JUMP JUMPDEST PUSH1 0x0 PUSH1 0x40 MLOAD DUP1 DUP4 SUB DUP2 DUP6 DUP8 GAS CALL SWAP3 POP POP POP RETURNDATASIZE DUP1 PUSH1 0x0 DUP2 EQ PUSH2 0x27B JUMPI PUSH1 0x40 MLOAD SWAP2 POP PUSH1 0x1F NOT PUSH1 0x3F RETURNDATASIZE ADD AND DUP3 ADD PUSH1 0x40 MSTORE RETURNDATASIZE DUP3 MSTORE RETURNDATASIZE PUSH1 0x0 PUSH1 0x20 DUP5 ADD RETURNDATACOPY PUSH2 0x280 JUMP JUMPDEST PUSH1 0x60 SWAP2 POP JUMPDEST POP POP SWAP1 POP DUP1 PUSH2 0x2C4 JUMPI PUSH1 0x40 MLOAD PUSH32 0x8C379A000000000000000000000000000000000000000000000000000000000 DUP2 MSTORE PUSH1 0x4 ADD PUSH2 0x2BB SWAP1 PUSH2 0x98A JUMP JUMPDEST PUSH1 0x40 MLOAD DUP1 SWAP2 SUB SWAP1 REVERT JUMPDEST POP POP POP POP POP JUMP JUMPDEST CALLER PUSH20 0xFFFFFFFFFFFFFFFFFFFFFFFFFFFFFFFFFFFFFFFF AND PUSH32 0x0 PUSH20 0xFFFFFFFFFFFFFFFFFFFFFFFFFFFFFFFFFFFFFFFF AND EQ PUSH2 0x359 JUMPI PUSH1 0x40 MLOAD PUSH32 0x8C379A000000000000000000000000000000000000000000000000000000000 DUP2 MSTORE PUSH1 0x4 ADD PUSH2 0x350 SWAP1 PUSH2 0xA1C JUMP JUMPDEST PUSH1 0x40 MLOAD DUP1 SWAP2 SUB SWAP1 REVERT JUMPDEST PUSH1 0x40 MLOAD DUP1 PUSH1 0x80 ADD PUSH1 0x40 MSTORE DUP1 DUP6 DUP2 MSTORE PUSH1 0x20 ADD DUP5 DUP2 MSTORE PUSH1 0x20 ADD DUP4 DUP2 MSTORE PUSH1 0x20 ADD DUP3 DUP2 MSTORE POP PUSH1 0x0 DUP1 DUP8 PUSH20 0xFFFFFFFFFFFFFFFFFFFFFFFFFFFFFFFFFFFFFFFF AND PUSH20 0xFFFFFFFFFFFFFFFFFFFFFFFFFFFFFFFFFFFFFFFF AND DUP2 MSTORE PUSH1 0x20 ADD SWAP1 DUP2 MSTORE PUSH1 0x20 ADD PUSH1 0x0 KECCAK256 PUSH1 0x0 DUP3 ADD MLOAD DUP2 PUSH1 0x0 ADD SSTORE PUSH1 0x20 DUP3 ADD MLOAD DUP2 PUSH1 0x1 ADD SSTORE PUSH1 0x40 DUP3 ADD MLOAD DUP2 PUSH1 0x2 ADD SSTORE PUSH1 0x60 DUP3 ADD MLOAD DUP2 PUSH1 0x3 ADD SSTORE SWAP1 POP POP POP POP POP POP POP JUMP JUMPDEST PUSH1 0x0 PUSH1 0x20 MSTORE DUP1 PUSH1 0x0 MSTORE PUSH1 0x40 PUSH1 0x0 KECCAK256 PUSH1 0x0 SWAP2 POP SWAP1 POP DUP1 PUSH1 0x0 ADD SLOAD SWAP1 DUP1 PUSH1 0x1 ADD SLOAD SWAP1 DUP1 PUSH1 0x2 ADD SLOAD SWAP1 DUP1 PUSH1 0x3 ADD SLOAD SWAP1 POP DUP5 JUMP JUMPDEST PUSH2 0x422 PUSH2 0x49A JUMP JUMPDEST PUSH1 0x0 DUP1 DUP4 PUSH20 0xFFFFFFFFFFFFFFFFFFFFFFFFFFFFFFFFFFFFFFFF AND PUSH20 0xFFFFFFFFFFFFFFFFFFFFFFFFFFFFFFFFFFFFFFFF AND DUP2 MSTORE PUSH1 0x20 ADD SWAP1 DUP2 MSTORE PUSH1 0x20 ADD PUSH1 0x0 KECCAK256 PUSH1 0x40 MLOAD DUP1 PUSH1 0x80 ADD PUSH1 0x40 MSTORE SWAP1 DUP2 PUSH1 0x0 DUP3 ADD SLOAD DUP2 MSTORE PUSH1 0x20 ADD PUSH1 0x1 DUP3 ADD SLOAD DUP2 MSTORE PUSH1 0x20 ADD PUSH1 0x2 DUP3 ADD SLOAD DUP2 MSTORE PUSH1 0x20 ADD PUSH1 0x3 DUP3 ADD SLOAD DUP2 MSTORE POP POP SWAP1 POP SWAP2 SWAP1 POP JUMP JUMPDEST PUSH1 0x40 MLOAD DUP1 PUSH1 0x80 ADD PUSH1 0x40 MSTORE DUP1 PUSH1 0x0 DUP2 MSTORE PUSH1 0x20 ADD PUSH1 0x0 DUP2 MSTORE PUSH1 0x20 ADD PUSH1 0x0 DUP2 MSTORE PUSH1 0x20 ADD PUSH1 0x0 DUP2 MSTORE POP SWAP1 JUMP JUMPDEST PUSH1 0x0 DUP1 REVERT JUMPDEST PUSH1 0x0 PUSH20 0xFFFFFFFFFFFFFFFFFFFFFFFFFFFFFFFFFFFFFFFF DUP3 AND SWAP1 POP SWAP2 SWAP1 POP JUMP JUMPDEST PUSH1 0x0 PUSH2 0x4F2 DUP3 PUSH2 0x4C7 JUMP JUMPDEST SWAP1 POP SWAP2 SWAP1 POP JUMP JUMPDEST PUSH2 0x502 DUP2 PUSH2 0x4E7 JUMP JUMPDEST DUP2 EQ PUSH2 0x50D JUMPI PUSH1 0x0 DUP1 REVERT JUMPDEST POP JUMP JUMPDEST PUSH1 0x0 DUP2 CALLDATALOAD SWAP1 POP PUSH2 0x51F DUP2 PUSH2 0x4F9 JUMP JUMPDEST SWAP3 SWAP2 POP POP JUMP JUMPDEST PUSH1 0x0 PUSH1 0x20 DUP3 DUP5 SUB SLT ISZERO PUSH2 0x53B JUMPI PUSH2 0x53A PUSH2 0x4C2 JUMP JUMPDEST JUMPDEST PUSH1 0x0 PUSH2 0x549 DUP5 DUP3 DUP6 ADD PUSH2 0x510 JUMP JUMPDEST SWAP2 POP POP SWAP3 SWAP2 POP POP JUMP JUMPDEST PUSH1 0x0 DUP2 SWAP1 POP SWAP2 SWAP1 POP JUMP JUMPDEST PUSH2 0x565 DUP2 PUSH2 0x552 JUMP JUMPDEST DUP2 EQ PUSH2 0x570 JUMPI PUSH1 0x0 DUP1 REVERT JUMPDEST POP JUMP JUMPDEST PUSH1 0x0 DUP2 CALLDATALOAD SWAP1 POP PUSH2 0x582 DUP2 PUSH2 0x55C JUMP JUMPDEST SWAP3 SWAP2 POP POP JUMP JUMPDEST PUSH1 0x0 DUP1 PUSH1 0x0 DUP1 PUSH1 0x0 PUSH1 0xA0 DUP7 DUP9 SUB SLT ISZERO PUSH2 0x5A4 JUMPI PUSH2 0x5A3 PUSH2 0x4C2 JUMP JUMPDEST JUMPDEST PUSH1 0x0 PUSH2 0x5B2 DUP9 DUP3 DUP10 ADD PUSH2 0x510 JUMP JUMPDEST SWAP6 POP POP PUSH1 0x20 PUSH2 0x5C3 DUP9 DUP3 DUP10 ADD PUSH2 0x573 JUMP JUMPDEST SWAP5 POP POP PUSH1 0x40 PUSH2 0x5D4 DUP9 DUP3 DUP10 ADD PUSH2 0x573 JUMP JUMPDEST SWAP4 POP POP PUSH1 0x60 PUSH2 0x5E5 DUP9 DUP3 DUP10 ADD PUSH2 0x573 JUMP JUMPDEST SWAP3 POP POP PUSH1 0x80 PUSH2 0x5F6 DUP9 DUP3 DUP10 ADD PUSH2 0x573 JUMP JUMPDEST SWAP2 POP POP SWAP3 SWAP6 POP SWAP3 SWAP6 SWAP1 SWAP4 POP JUMP JUMPDEST PUSH2 0x60C DUP2 PUSH2 0x552 JUMP JUMPDEST DUP3 MSTORE POP POP JUMP JUMPDEST PUSH1 0x0 PUSH1 0x80 DUP3 ADD SWAP1 POP PUSH2 0x627 PUSH1 0x0 DUP4 ADD DUP8 PUSH2 0x603 JUMP JUMPDEST PUSH2 0x634 PUSH1 0x20 DUP4 ADD DUP7 PUSH2 0x603 JUMP JUMPDEST PUSH2 0x641 PUSH1 0x40 DUP4 ADD DUP6 PUSH2 0x603 JUMP JUMPDEST PUSH2 0x64E PUSH1 0x60 DUP4 ADD DUP5 PUSH2 0x603 JUMP JUMPDEST SWAP6 SWAP5 POP POP POP POP POP JUMP JUMPDEST PUSH2 0x660 DUP2 PUSH2 0x552 JUMP JUMPDEST DUP3 MSTORE POP POP JUMP JUMPDEST PUSH1 0x80 DUP3 ADD PUSH1 0x0 DUP3 ADD MLOAD PUSH2 0x67C PUSH1 0x0 DUP6 ADD DUP3 PUSH2 0x657 JUMP JUMPDEST POP PUSH1 0x20 DUP3 ADD MLOAD PUSH2 0x68F PUSH1 0x20 DUP6 ADD DUP3 PUSH2 0x657 JUMP JUMPDEST POP PUSH1 0x40 DUP3 ADD MLOAD PUSH2 0x6A2 PUSH1 0x40 DUP6 ADD DUP3 PUSH2 0x657 JUMP JUMPDEST POP PUSH1 0x60 DUP3 ADD MLOAD PUSH2 0x6B5 PUSH1 0x60 DUP6 ADD DUP3 PUSH2 0x657 JUMP JUMPDEST POP POP POP POP JUMP JUMPDEST PUSH1 0x0 PUSH1 0x80 DUP3 ADD SWAP1 POP PUSH2 0x6D0 PUSH1 0x0 DUP4 ADD DUP5 PUSH2 0x666 JUMP JUMPDEST SWAP3 SWAP2 POP POP JUMP JUMPDEST PUSH1 0x0 DUP3 DUP3 MSTORE PUSH1 0x20 DUP3 ADD SWAP1 POP SWAP3 SWAP2 POP POP JUMP JUMPDEST PUSH32 0x2076657374696E672068617665206E6F74207965742073746172746564000000 PUSH1 0x0 DUP3 ADD MSTORE POP JUMP JUMPDEST PUSH1 0x0 PUSH2 0x71D PUSH1 0x1D DUP4 PUSH2 0x6D6 JUMP JUMPDEST SWAP2 POP PUSH2 0x728 DUP3 PUSH2 0x6E7 JUMP JUMPDEST PUSH1 0x20 DUP3 ADD SWAP1 POP SWAP2 SWAP1 POP JUMP JUMPDEST PUSH1 0x0 PUSH1 0x20 DUP3 ADD SWAP1 POP DUP2 DUP2 SUB PUSH1 0x0 DUP4 ADD MSTORE PUSH2 0x74C DUP2 PUSH2 0x710 JUMP JUMPDEST SWAP1 POP SWAP2 SWAP1 POP JUMP JUMPDEST PUSH32 0x4E487B7100000000000000000000000000000000000000000000000000000000 PUSH1 0x0 MSTORE PUSH1 0x11 PUSH1 0x4 MSTORE PUSH1 0x24 PUSH1 0x0 REVERT JUMPDEST PUSH1 0x0 PUSH2 0x78D DUP3 PUSH2 0x552 JUMP JUMPDEST SWAP2 POP PUSH2 0x798 DUP4 PUSH2 0x552 JUMP JUMPDEST SWAP3 POP DUP3 DUP3 SUB SWAP1 POP DUP2 DUP2 GT ISZERO PUSH2 0x7B0 JUMPI PUSH2 0x7AF PUSH2 0x753 JUMP JUMPDEST JUMPDEST SWAP3 SWAP2 POP POP JUMP JUMPDEST PUSH1 0x0 PUSH2 0x7C1 DUP3 PUSH2 0x552 JUMP JUMPDEST SWAP2 POP PUSH2 0x7CC DUP4 PUSH2 0x552 JUMP JUMPDEST SWAP3 POP DUP3 DUP3 MUL PUSH2 0x7DA DUP2 PUSH2 0x552 JUMP JUMPDEST SWAP2 POP DUP3 DUP3 DIV DUP5 EQ DUP4 ISZERO OR PUSH2 0x7F1 JUMPI PUSH2 0x7F0 PUSH2 0x753 JUMP JUMPDEST JUMPDEST POP SWAP3 SWAP2 POP POP JUMP JUMPDEST PUSH32 0x4E487B7100000000000000000000000000000000000000000000000000000000 PUSH1 0x0 MSTORE PUSH1 0x12 PUSH1 0x4 MSTORE PUSH1 0x24 PUSH1 0x0 REVERT JUMPDEST PUSH1 0x0 PUSH2 0x832 DUP3 PUSH2 0x552 JUMP JUMPDEST SWAP2 POP PUSH2 0x83D DUP4 PUSH2 0x552 JUMP JUMPDEST SWAP3 POP DUP3 PUSH2 0x84D JUMPI PUSH2 0x84C PUSH2 0x7F8 JUMP JUMPDEST JUMPDEST DUP3 DUP3 DIV SWAP1 POP SWAP3 SWAP2 POP POP JUMP JUMPDEST PUSH32 0x696E7375666669656E637420666F756E64000000000000000000000000000000 PUSH1 0x0 DUP3 ADD MSTORE POP JUMP JUMPDEST PUSH1 0x0 PUSH2 0x88E PUSH1 0x11 DUP4 PUSH2 0x6D6 JUMP JUMPDEST SWAP2 POP PUSH2 0x899 DUP3 PUSH2 0x858 JUMP JUMPDEST PUSH1 0x20 DUP3 ADD SWAP1 POP SWAP2 SWAP1 POP JUMP JUMPDEST PUSH1 0x0 PUSH1 0x20 DUP3 ADD SWAP1 POP DUP2 DUP2 SUB PUSH1 0x0 DUP4 ADD MSTORE PUSH2 0x8BD DUP2 PUSH2 0x881 JUMP JUMPDEST SWAP1 POP SWAP2 SWAP1 POP JUMP JUMPDEST PUSH1 0x0 PUSH2 0x8CF DUP3 PUSH2 0x552 JUMP JUMPDEST SWAP2 POP PUSH2 0x8DA DUP4 PUSH2 0x552 JUMP JUMPDEST SWAP3 POP DUP3 DUP3 ADD SWAP1 POP DUP1 DUP3 GT ISZERO PUSH2 0x8F2 JUMPI PUSH2 0x8F1 PUSH2 0x753 JUMP JUMPDEST JUMPDEST SWAP3 SWAP2 POP POP JUMP JUMPDEST PUSH1 0x0 DUP2 SWAP1 POP SWAP3 SWAP2 POP POP JUMP JUMPDEST POP JUMP JUMPDEST PUSH1 0x0 PUSH2 0x913 PUSH1 0x0 DUP4 PUSH2 0x8F8 JUMP JUMPDEST SWAP2 POP PUSH2 0x91E DUP3 PUSH2 0x903 JUMP JUMPDEST PUSH1 0x0 DUP3 ADD SWAP1 POP SWAP2 SWAP1 POP JUMP JUMPDEST PUSH1 0x0 PUSH2 0x934 DUP3 PUSH2 0x906 JUMP JUMPDEST SWAP2 POP DUP2 SWAP1 POP SWAP2 SWAP1 POP JUMP JUMPDEST PUSH32 0x4661696C6420746F207769746864726177200000000000000000000000000000 PUSH1 0x0 DUP3 ADD MSTORE POP JUMP JUMPDEST PUSH1 0x0 PUSH2 0x974 PUSH1 0x12 DUP4 PUSH2 0x6D6 JUMP JUMPDEST SWAP2 POP PUSH2 0x97F DUP3 PUSH2 0x93E JUMP JUMPDEST PUSH1 0x20 DUP3 ADD SWAP1 POP SWAP2 SWAP1 POP JUMP JUMPDEST PUSH1 0x0 PUSH1 0x20 DUP3 ADD SWAP1 POP DUP2 DUP2 SUB PUSH1 0x0 DUP4 ADD MSTORE PUSH2 0x9A3 DUP2 PUSH2 0x967 JUMP JUMPDEST SWAP1 POP SWAP2 SWAP1 POP JUMP JUMPDEST PUSH32 0x6F6E6C792061646D696E2063616E20637265616520612076657374696E672073 PUSH1 0x0 DUP3 ADD MSTORE PUSH32 0x63686564756C6500000000000000000000000000000000000000000000000000 PUSH1 0x20 DUP3 ADD MSTORE POP JUMP JUMPDEST PUSH1 0x0 PUSH2 0xA06 PUSH1 0x27 DUP4 PUSH2 0x6D6 JUMP JUMPDEST SWAP2 POP PUSH2 0xA11 DUP3 PUSH2 0x9AA JUMP JUMPDEST PUSH1 0x40 DUP3 ADD SWAP1 POP SWAP2 SWAP1 POP JUMP JUMPDEST PUSH1 0x0 PUSH1 0x20 DUP3 ADD SWAP1 POP DUP2 DUP2 SUB PUSH1 0x0 DUP4 ADD MSTORE PUSH2 0xA35 DUP2 PUSH2 0x9F9 JUMP JUMPDEST SWAP1 POP SWAP2 SWAP1 POP JUMP INVALID LOG2 PUSH5 0x6970667358 0x22 SLT KECCAK256 ADDRESS 0xF9 BASEFEE SWAP8 CALL DUP13 BYTE 0xD3 0xBC SWAP1 ADDRESS 0xB7 NOT PUSH4 0x3200743 0xEF 0x1F PUSH4 0xF92DC961 SWAP11 PUSH31 0x12A720EA6A64736F6C63430008120033000000000000000000000000000000 "
				},
				"gasEstimates": {
					"creation": {
						"codeDepositCost": "534800",
						"executionCost": "infinite",
						"totalCost": "infinite"
					},
					"external": {
						"createVestingSchedule(address,uint256,uint256,uint256,uint256)": "infinite",
						"getVest(address)": "infinite",
						"release(address)": "infinite",
						"vestingshecdule(address)": "infinite"
					}
				},
				"methodIdentifiers": {
					"createVestingSchedule(address,uint256,uint256,uint256,uint256)": "1bf0b08b",
					"getVest(address)": "474fc417",
					"release(address)": "19165587",
					"vestingshecdule(address)": "1cc908b8"
				}
			},
			"storageLayout": {
				"storage": [
					{
						"astId": 17,
						"contract": "vest.sol:Vesting",
						"label": "vestingshecdule",
						"offset": 0,
						"slot": "0",
						"type": "t_mapping(t_address,t_struct(VestingShecdule)12_storage)"
					},
					{
						"astId": 42,
						"contract": "vest.sol:Vesting",
						"label": "currentTime",
						"offset": 0,
						"slot": "1",
						"type": "t_uint256"
					}
				],
				"types": {
					"t_address": {
						"encoding": "inplace",
						"label": "address",
						"numberOfBytes": "20"
					},
					"t_mapping(t_address,t_struct(VestingShecdule)12_storage)": {
						"encoding": "mapping",
						"key": "t_address",
						"label": "mapping(address => struct Vesting.VestingShecdule)",
						"numberOfBytes": "32",
						"value": "t_struct(VestingShecdule)12_storage"
					},
					"t_struct(VestingShecdule)12_storage": {
						"encoding": "inplace",
						"label": "struct Vesting.VestingShecdule",
						"members": [
							{
								"astId": 5,
								"contract": "vest.sol:Vesting",
								"label": "start",
								"offset": 0,
								"slot": "0",
								"type": "t_uint256"
							},
							{
								"astId": 7,
								"contract": "vest.sol:Vesting",
								"label": "duration",
								"offset": 0,
								"slot": "1",
								"type": "t_uint256"
							},
							{
								"astId": 9,
								"contract": "vest.sol:Vesting",
								"label": "totalAmount",
								"offset": 0,
								"slot": "2",
								"type": "t_uint256"
							},
							{
								"astId": 11,
								"contract": "vest.sol:Vesting",
								"label": "released",
								"offset": 0,
								"slot": "3",
								"type": "t_uint256"
							}
						],
						"numberOfBytes": "128"
					},
					"t_uint256": {
						"encoding": "inplace",
						"label": "uint256",
						"numberOfBytes": "32"
					}
				}
			},
			"userdoc": {
				"kind": "user",
				"methods": {},
				"version": 1
			}
		}
	}
}