{
	"fundme.sol": {
		"FundMe": {
			"abi": [
				{
					"inputs": [],
					"stateMutability": "nonpayable",
					"type": "constructor"
				},
				{
					"stateMutability": "payable",
					"type": "fallback"
				},
				{
					"inputs": [
						{
							"internalType": "uint256",
							"name": "",
							"type": "uint256"
						}
					],
					"name": "founders",
					"outputs": [
						{
							"internalType": "address",
							"name": "",
							"type": "address"
						}
					],
					"stateMutability": "view",
					"type": "function"
				},
				{
					"inputs": [],
					"name": "fund",
					"outputs": [],
					"stateMutability": "payable",
					"type": "function"
				},
				{
					"inputs": [],
					"name": "owner",
					"outputs": [
						{
							"internalType": "address",
							"name": "",
							"type": "address"
						}
					],
					"stateMutability": "view",
					"type": "function"
				},
				{
					"inputs": [
						{
							"internalType": "address",
							"name": "",
							"type": "address"
						}
					],
					"name": "usersFunder",
					"outputs": [
						{
							"internalType": "uint256",
							"name": "",
							"type": "uint256"
						}
					],
					"stateMutability": "view",
					"type": "function"
				},
				{
					"inputs": [],
					"name": "withdraw",
					"outputs": [],
					"stateMutability": "nonpayable",
					"type": "function"
				},
				{
					"stateMutability": "payable",
					"type": "receive"
				}
			],
			"devdoc": {
				"kind": "dev",
				"methods": {},
				"version": 1
			},
			"evm": {
				"assembly": "    /* \"fundme.sol\":191:3242  contract FundMe{... */\n  mstore(0x40, 0x80)\n    /* \"fundme.sol\":305:309  5e18 */\n  0x4563918244f40000\n    /* \"fundme.sol\":283:309  uint256 minimuvalue = 5e18 */\n  0x01\n  sstore\n    /* \"fundme.sol\":1385:1472  constructor(){... */\n  callvalue\n  dup1\n  iszero\n  tag_1\n  jumpi\n  0x00\n  dup1\n  revert\ntag_1:\n  pop\n    /* \"fundme.sol\":1454:1464  msg.sender */\n  caller\n    /* \"fundme.sol\":1446:1451  owner */\n  0x03\n  0x00\n    /* \"fundme.sol\":1446:1464  owner = msg.sender */\n  0x0100\n  exp\n  dup2\n  sload\n  dup2\n  0xffffffffffffffffffffffffffffffffffffffff\n  mul\n  not\n  and\n  swap1\n  dup4\n  0xffffffffffffffffffffffffffffffffffffffff\n  and\n  mul\n  or\n  swap1\n  sstore\n  pop\n    /* \"fundme.sol\":191:3242  contract FundMe{... */\n  dataSize(sub_0)\n  dup1\n  dataOffset(sub_0)\n  0x00\n  codecopy\n  0x00\n  return\nstop\n\nsub_0: assembly {\n        /* \"fundme.sol\":191:3242  contract FundMe{... */\n      mstore(0x40, 0x80)\n      jumpi(tag_1, lt(calldatasize, 0x04))\n      shr(0xe0, calldataload(0x00))\n      dup1\n      0x35fb093f\n      eq\n      tag_3\n      jumpi\n      dup1\n      0x3ccfd60b\n      eq\n      tag_4\n      jumpi\n      dup1\n      0x8da5cb5b\n      eq\n      tag_5\n      jumpi\n      dup1\n      0xb60d4288\n      eq\n      tag_6\n      jumpi\n      dup1\n      0xd8e75f62\n      eq\n      tag_7\n      jumpi\n      jump(tag_2)\n    tag_1:\n      jumpi(tag_2, calldatasize)\n        /* \"fundme.sol\":3173:3179  fund() */\n      tag_10\n        /* \"fundme.sol\":3173:3177  fund */\n      tag_11\n        /* \"fundme.sol\":3173:3179  fund() */\n      jump\t// in\n    tag_10:\n        /* \"fundme.sol\":191:3242  contract FundMe{... */\n      stop\n    tag_2:\n        /* \"fundme.sol\":3225:3231  fund() */\n      tag_14\n        /* \"fundme.sol\":3225:3229  fund */\n      tag_11\n        /* \"fundme.sol\":3225:3231  fund() */\n      jump\t// in\n    tag_14:\n        /* \"fundme.sol\":191:3242  contract FundMe{... */\n      stop\n        /* \"fundme.sol\":312:357  mapping(address=> uint256) public usersFunder */\n    tag_3:\n      callvalue\n      dup1\n      iszero\n      tag_15\n      jumpi\n      0x00\n      dup1\n      revert\n    tag_15:\n      pop\n      tag_16\n      0x04\n      dup1\n      calldatasize\n      sub\n      dup2\n      add\n      swap1\n      tag_17\n      swap2\n      swap1\n      tag_18\n      jump\t// in\n    tag_17:\n      tag_19\n      jump\t// in\n    tag_16:\n      mload(0x40)\n      tag_20\n      swap2\n      swap1\n      tag_21\n      jump\t// in\n    tag_20:\n      mload(0x40)\n      dup1\n      swap2\n      sub\n      swap1\n      return\n        /* \"fundme.sol\":1476:2583  function withdraw()public onlyowner{... */\n    tag_4:\n      callvalue\n      dup1\n      iszero\n      tag_22\n      jumpi\n      0x00\n      dup1\n      revert\n    tag_22:\n      pop\n      tag_23\n      tag_24\n      jump\t// in\n    tag_23:\n      stop\n        /* \"fundme.sol\":1281:1301  address public owner */\n    tag_5:\n      callvalue\n      dup1\n      iszero\n      tag_25\n      jumpi\n      0x00\n      dup1\n      revert\n    tag_25:\n      pop\n      tag_26\n      tag_27\n      jump\t// in\n    tag_26:\n      mload(0x40)\n      tag_28\n      swap2\n      swap1\n      tag_29\n      jump\t// in\n    tag_28:\n      mload(0x40)\n      dup1\n      swap2\n      sub\n      swap1\n      return\n        /* \"fundme.sol\":428:1277  function fund() public payable {... */\n    tag_6:\n      tag_30\n      tag_11\n      jump\t// in\n    tag_30:\n      stop\n        /* \"fundme.sol\":250:276  address[]  public founders */\n    tag_7:\n      callvalue\n      dup1\n      iszero\n      tag_31\n      jumpi\n      0x00\n      dup1\n      revert\n    tag_31:\n      pop\n      tag_32\n      0x04\n      dup1\n      calldatasize\n      sub\n      dup2\n      add\n      swap1\n      tag_33\n      swap2\n      swap1\n      tag_34\n      jump\t// in\n    tag_33:\n      tag_35\n      jump\t// in\n    tag_32:\n      mload(0x40)\n      tag_36\n      swap2\n      swap1\n      tag_29\n      jump\t// in\n    tag_36:\n      mload(0x40)\n      dup1\n      swap2\n      sub\n      swap1\n      return\n        /* \"fundme.sol\":428:1277  function fund() public payable {... */\n    tag_11:\n        /* \"fundme.sol\":1073:1084  minimuvalue */\n      sload(0x01)\n        /* \"fundme.sol\":1043:1069  msg.value.conversionRate() */\n      tag_38\n        /* \"fundme.sol\":1043:1052  msg.value */\n      callvalue\n        /* \"fundme.sol\":1043:1067  msg.value.conversionRate */\n      tag_39\n        /* \"fundme.sol\":1043:1069  msg.value.conversionRate() */\n      jump\t// in\n    tag_38:\n        /* \"fundme.sol\":1043:1084  msg.value.conversionRate() >  minimuvalue */\n      gt\n        /* \"fundme.sol\":1035:1120  require(msg.value.conversionRate() >  minimuvalue,'you dont fav enthoug ETH to send') */\n      tag_40\n      jumpi\n      mload(0x40)\n      0x08c379a000000000000000000000000000000000000000000000000000000000\n      dup2\n      mstore\n      0x04\n      add\n      tag_41\n      swap1\n      tag_42\n      jump\t// in\n    tag_41:\n      mload(0x40)\n      dup1\n      swap2\n      sub\n      swap1\n      revert\n    tag_40:\n        /* \"fundme.sol\":1164:1172  founders */\n      0x00\n        /* \"fundme.sol\":1178:1188  msg.sender */\n      caller\n        /* \"fundme.sol\":1164:1189  founders.push(msg.sender) */\n      swap1\n      dup1\n      0x01\n      dup2\n      sload\n      add\n      dup1\n      dup3\n      sstore\n      dup1\n      swap2\n      pop\n      pop\n      0x01\n      swap1\n      sub\n      swap1\n      0x00\n      mstore\n      keccak256(0x00, 0x20)\n      add\n      0x00\n      swap1\n      swap2\n      swap1\n      swap2\n      swap1\n      swap2\n      0x0100\n      exp\n      dup2\n      sload\n      dup2\n      0xffffffffffffffffffffffffffffffffffffffff\n      mul\n      not\n      and\n      swap1\n      dup4\n      0xffffffffffffffffffffffffffffffffffffffff\n      and\n      mul\n      or\n      swap1\n      sstore\n      pop\n        /* \"fundme.sol\":1262:1271  msg.value */\n      callvalue\n        /* \"fundme.sol\":1235:1246  usersFunder */\n      0x02\n        /* \"fundme.sol\":1235:1258  usersFunder[msg.sender] */\n      0x00\n        /* \"fundme.sol\":1247:1257  msg.sender */\n      caller\n        /* \"fundme.sol\":1235:1258  usersFunder[msg.sender] */\n      0xffffffffffffffffffffffffffffffffffffffff\n      and\n      0xffffffffffffffffffffffffffffffffffffffff\n      and\n      dup2\n      mstore\n      0x20\n      add\n      swap1\n      dup2\n      mstore\n      0x20\n      add\n      0x00\n      keccak256\n      0x00\n        /* \"fundme.sol\":1235:1271  usersFunder[msg.sender] += msg.value */\n      dup3\n      dup3\n      sload\n      tag_44\n      swap2\n      swap1\n      tag_45\n      jump\t// in\n    tag_44:\n      swap3\n      pop\n      pop\n      dup2\n      swap1\n      sstore\n      pop\n        /* \"fundme.sol\":428:1277  function fund() public payable {... */\n      jump\t// out\n        /* \"fundme.sol\":312:357  mapping(address=> uint256) public usersFunder */\n    tag_19:\n      mstore(0x20, 0x02)\n      dup1\n      0x00\n      mstore\n      keccak256(0x00, 0x40)\n      0x00\n      swap2\n      pop\n      swap1\n      pop\n      sload\n      dup2\n      jump\t// out\n        /* \"fundme.sol\":1476:2583  function withdraw()public onlyowner{... */\n    tag_24:\n        /* \"fundme.sol\":2868:2873  owner */\n      0x03\n      0x00\n      swap1\n      sload\n      swap1\n      0x0100\n      exp\n      swap1\n      div\n      0xffffffffffffffffffffffffffffffffffffffff\n      and\n        /* \"fundme.sol\":2854:2873  msg.sender == owner */\n      0xffffffffffffffffffffffffffffffffffffffff\n      and\n        /* \"fundme.sol\":2854:2864  msg.sender */\n      caller\n        /* \"fundme.sol\":2854:2873  msg.sender == owner */\n      0xffffffffffffffffffffffffffffffffffffffff\n      and\n      eq\n        /* \"fundme.sol\":2846:2890  require(msg.sender == owner,'must be woner') */\n      tag_47\n      jumpi\n      mload(0x40)\n      0x08c379a000000000000000000000000000000000000000000000000000000000\n      dup2\n      mstore\n      0x04\n      add\n      tag_48\n      swap1\n      tag_49\n      jump\t// in\n    tag_48:\n      mload(0x40)\n      dup1\n      swap2\n      sub\n      swap1\n      revert\n    tag_47:\n        /* \"fundme.sol\":1520:1540  uint256 founderIndex */\n      0x00\n        /* \"fundme.sol\":1516:1674  for(uint256 founderIndex = 0; founderIndex < founders.length;  founderIndex ++){... */\n    tag_51:\n        /* \"fundme.sol\":1561:1569  founders */\n      0x00\n        /* \"fundme.sol\":1561:1576  founders.length */\n      dup1\n      sload\n      swap1\n      pop\n        /* \"fundme.sol\":1546:1558  founderIndex */\n      dup2\n        /* \"fundme.sol\":1546:1576  founderIndex < founders.length */\n      lt\n        /* \"fundme.sol\":1516:1674  for(uint256 founderIndex = 0; founderIndex < founders.length;  founderIndex ++){... */\n      iszero\n      tag_52\n      jumpi\n        /* \"fundme.sol\":1599:1614  address founder */\n      0x00\n        /* \"fundme.sol\":1617:1625  founders */\n      dup1\n        /* \"fundme.sol\":1626:1638  founderIndex */\n      dup3\n        /* \"fundme.sol\":1617:1639  founders[founderIndex] */\n      dup2\n      sload\n      dup2\n      lt\n      tag_54\n      jumpi\n      tag_55\n      tag_56\n      jump\t// in\n    tag_55:\n    tag_54:\n      swap1\n      0x00\n      mstore\n      keccak256(0x00, 0x20)\n      add\n      0x00\n      swap1\n      sload\n      swap1\n      0x0100\n      exp\n      swap1\n      div\n      0xffffffffffffffffffffffffffffffffffffffff\n      and\n        /* \"fundme.sol\":1599:1639  address founder = founders[founderIndex] */\n      swap1\n      pop\n        /* \"fundme.sol\":1667:1668  0 */\n      0x00\n        /* \"fundme.sol\":1644:1655  usersFunder */\n      0x02\n        /* \"fundme.sol\":1644:1664  usersFunder[founder] */\n      0x00\n        /* \"fundme.sol\":1656:1663  founder */\n      dup4\n        /* \"fundme.sol\":1644:1664  usersFunder[founder] */\n      0xffffffffffffffffffffffffffffffffffffffff\n      and\n      0xffffffffffffffffffffffffffffffffffffffff\n      and\n      dup2\n      mstore\n      0x20\n      add\n      swap1\n      dup2\n      mstore\n      0x20\n      add\n      0x00\n      keccak256\n        /* \"fundme.sol\":1644:1668  usersFunder[founder] = 0 */\n      dup2\n      swap1\n      sstore\n      pop\n        /* \"fundme.sol\":1595:1674  {... */\n      pop\n        /* \"fundme.sol\":1579:1594  founderIndex ++ */\n      dup1\n      dup1\n      tag_58\n      swap1\n      tag_59\n      jump\t// in\n    tag_58:\n      swap2\n      pop\n      pop\n        /* \"fundme.sol\":1516:1674  for(uint256 founderIndex = 0; founderIndex < founders.length;  founderIndex ++){... */\n      jump(tag_51)\n    tag_52:\n      pop\n        /* \"fundme.sol\":1709:1710  0 */\n      0x00\n        /* \"fundme.sol\":1695:1711  new address[](0) */\n      0xffffffffffffffff\n      dup2\n      gt\n      iszero\n      tag_60\n      jumpi\n      tag_61\n      tag_62\n      jump\t// in\n    tag_61:\n    tag_60:\n      mload(0x40)\n      swap1\n      dup1\n      dup3\n      mstore\n      dup1\n      0x20\n      mul\n      0x20\n      add\n      dup3\n      add\n      0x40\n      mstore\n      dup1\n      iszero\n      tag_63\n      jumpi\n      dup2\n      0x20\n      add\n      0x20\n      dup3\n      mul\n      dup1\n      calldatasize\n      dup4\n      calldatacopy\n      dup1\n      dup3\n      add\n      swap2\n      pop\n      pop\n      swap1\n      pop\n    tag_63:\n      pop\n        /* \"fundme.sol\":1684:1692  founders */\n      0x00\n        /* \"fundme.sol\":1684:1711  founders = new address[](0) */\n      swap1\n      dup1\n      mload\n      swap1\n      0x20\n      add\n      swap1\n      tag_64\n      swap3\n      swap2\n      swap1\n      tag_65\n      jump\t// in\n    tag_64:\n      pop\n        /* \"fundme.sol\":2394:2410  bool callSuccess */\n      0x00\n        /* \"fundme.sol\":2425:2435  msg.sender */\n      caller\n        /* \"fundme.sol\":2416:2441  payable (msg.sender).call */\n      0xffffffffffffffffffffffffffffffffffffffff\n      and\n        /* \"fundme.sol\":2449:2470  address(this).balance */\n      selfbalance\n        /* \"fundme.sol\":2416:2475  payable (msg.sender).call{value: address(this).balance}('') */\n      mload(0x40)\n      tag_66\n      swap1\n      tag_67\n      jump\t// in\n    tag_66:\n      0x00\n      mload(0x40)\n      dup1\n      dup4\n      sub\n      dup2\n      dup6\n      dup8\n      gas\n      call\n      swap3\n      pop\n      pop\n      pop\n      returndatasize\n      dup1\n      0x00\n      dup2\n      eq\n      tag_70\n      jumpi\n      mload(0x40)\n      swap2\n      pop\n      and(add(returndatasize, 0x3f), not(0x1f))\n      dup3\n      add\n      0x40\n      mstore\n      returndatasize\n      dup3\n      mstore\n      returndatasize\n      0x00\n      0x20\n      dup5\n      add\n      returndatacopy\n      jump(tag_69)\n    tag_70:\n      0x60\n      swap2\n      pop\n    tag_69:\n      pop\n        /* \"fundme.sol\":2393:2475  (bool callSuccess, ) = payable (msg.sender).call{value: address(this).balance}('') */\n      pop\n      swap1\n      pop\n        /* \"fundme.sol\":2488:2499  callSuccess */\n      dup1\n        /* \"fundme.sol\":2480:2517  require(callSuccess, 'sending faild') */\n      tag_71\n      jumpi\n      mload(0x40)\n      0x08c379a000000000000000000000000000000000000000000000000000000000\n      dup2\n      mstore\n      0x04\n      add\n      tag_72\n      swap1\n      tag_73\n      jump\t// in\n    tag_72:\n      mload(0x40)\n      dup1\n      swap2\n      sub\n      swap1\n      revert\n    tag_71:\n        /* \"fundme.sol\":1511:2583  {... */\n      pop\n        /* \"fundme.sol\":1476:2583  function withdraw()public onlyowner{... */\n      jump\t// out\n        /* \"fundme.sol\":1281:1301  address public owner */\n    tag_27:\n      0x03\n      0x00\n      swap1\n      sload\n      swap1\n      0x0100\n      exp\n      swap1\n      div\n      0xffffffffffffffffffffffffffffffffffffffff\n      and\n      dup2\n      jump\t// out\n        /* \"fundme.sol\":250:276  address[]  public founders */\n    tag_35:\n      0x00\n      dup2\n      dup2\n      sload\n      dup2\n      lt\n      tag_74\n      jumpi\n      0x00\n      dup1\n      revert\n    tag_74:\n      swap1\n      0x00\n      mstore\n      keccak256(0x00, 0x20)\n      add\n      0x00\n      swap2\n      pop\n      sload\n      swap1\n      0x0100\n      exp\n      swap1\n      div\n      0xffffffffffffffffffffffffffffffffffffffff\n      and\n      dup2\n      jump\t// out\n        /* \"priceconverter.sol\":666:843  function conversionRate(uint256 ethamount) internal  view returns(uint256){... */\n    tag_39:\n        /* \"priceconverter.sol\":732:739  uint256 */\n      0x00\n        /* \"priceconverter.sol\":743:759  uint256 ethprice */\n      dup1\n        /* \"priceconverter.sol\":761:771  getprice() */\n      tag_77\n        /* \"priceconverter.sol\":761:769  getprice */\n      tag_78\n        /* \"priceconverter.sol\":761:771  getprice() */\n      jump\t// in\n    tag_77:\n        /* \"priceconverter.sol\":743:771  uint256 ethprice =getprice() */\n      swap1\n      pop\n        /* \"priceconverter.sol\":776:790  uint256 ethusd */\n      0x00\n        /* \"priceconverter.sol\":815:819  1e18 */\n      0x0de0b6b3a7640000\n        /* \"priceconverter.sol\":804:813  ethamount */\n      dup5\n        /* \"priceconverter.sol\":794:802  ethprice */\n      dup4\n        /* \"priceconverter.sol\":794:813  ethprice* ethamount */\n      tag_79\n      swap2\n      swap1\n      tag_80\n      jump\t// in\n    tag_79:\n        /* \"priceconverter.sol\":793:819  (ethprice* ethamount)/1e18 */\n      tag_81\n      swap2\n      swap1\n      tag_82\n      jump\t// in\n    tag_81:\n        /* \"priceconverter.sol\":776:819  uint256 ethusd = (ethprice* ethamount)/1e18 */\n      swap1\n      pop\n        /* \"priceconverter.sol\":829:835  ethusd */\n      dup1\n        /* \"priceconverter.sol\":822:835  return ethusd */\n      swap3\n      pop\n      pop\n      pop\n        /* \"priceconverter.sol\":666:843  function conversionRate(uint256 ethamount) internal  view returns(uint256){... */\n      swap2\n      swap1\n      pop\n      jump\t// out\n        /* \"priceconverter.sol\":277:660  function getprice ()internal  view  returns(uint256){... */\n    tag_78:\n        /* \"priceconverter.sol\":321:328  uint256 */\n      0x00\n        /* \"priceconverter.sol\":385:416  AggregatorV3Interface priceFeed */\n      dup1\n        /* \"priceconverter.sol\":441:483  0x694AA1769357215DE4FAC081bf1f309aDC325306 */\n      0x694aa1769357215de4fac081bf1f309adc325306\n        /* \"priceconverter.sol\":385:484  AggregatorV3Interface priceFeed = AggregatorV3Interface(0x694AA1769357215DE4FAC081bf1f309aDC325306) */\n      swap1\n      pop\n        /* \"priceconverter.sol\":520:532  int256 price */\n      0x00\n        /* \"priceconverter.sol\":588:597  priceFeed */\n      dup2\n        /* \"priceconverter.sol\":588:613  priceFeed.latestRoundData */\n      0xffffffffffffffffffffffffffffffffffffffff\n      and\n      0xfeaf968c\n        /* \"priceconverter.sol\":588:615  priceFeed.latestRoundData() */\n      mload(0x40)\n      dup2\n      0xffffffff\n      and\n      0xe0\n      shl\n      dup2\n      mstore\n      0x04\n      add\n      0xa0\n      mload(0x40)\n      dup1\n      dup4\n      sub\n      dup2\n      dup7\n      gas\n      staticcall\n      iszero\n      dup1\n      iszero\n      tag_85\n      jumpi\n      returndatasize\n      0x00\n      dup1\n      returndatacopy\n      revert(0x00, returndatasize)\n    tag_85:\n      pop\n      pop\n      pop\n      pop\n      mload(0x40)\n      returndatasize\n      not(0x1f)\n      0x1f\n      dup3\n      add\n      and\n      dup3\n      add\n      dup1\n      0x40\n      mstore\n      pop\n      dup2\n      add\n      swap1\n      tag_86\n      swap2\n      swap1\n      tag_87\n      jump\t// in\n    tag_86:\n        /* \"priceconverter.sol\":491:615  (... */\n      pop\n      pop\n      pop\n      swap2\n      pop\n      pop\n        /* \"priceconverter.sol\":651:655  1e10 */\n      0x02540be400\n        /* \"priceconverter.sol\":643:648  price */\n      dup2\n        /* \"priceconverter.sol\":643:655  price * 1e10 */\n      tag_88\n      swap2\n      swap1\n      tag_89\n      jump\t// in\n    tag_88:\n        /* \"priceconverter.sol\":628:656  return uint256(price * 1e10) */\n      swap3\n      pop\n      pop\n      pop\n        /* \"priceconverter.sol\":277:660  function getprice ()internal  view  returns(uint256){... */\n      swap1\n      jump\t// out\n    tag_65:\n      dup3\n      dup1\n      sload\n      dup3\n      dup3\n      sstore\n      swap1\n      0x00\n      mstore\n      keccak256(0x00, 0x20)\n      swap1\n      dup2\n      add\n      swap3\n      dup3\n      iszero\n      tag_90\n      jumpi\n      swap2\n      0x20\n      mul\n      dup3\n      add\n    tag_91:\n      dup3\n      dup2\n      gt\n      iszero\n      tag_92\n      jumpi\n      dup3\n      mload\n      dup3\n      exp(0x0100, 0x00)\n      dup2\n      sload\n      dup2\n      0xffffffffffffffffffffffffffffffffffffffff\n      mul\n      not\n      and\n      swap1\n      dup4\n      0xffffffffffffffffffffffffffffffffffffffff\n      and\n      mul\n      or\n      swap1\n      sstore\n      pop\n      swap2\n      0x20\n      add\n      swap2\n      swap1\n      0x01\n      add\n      swap1\n      jump(tag_91)\n    tag_92:\n    tag_90:\n      pop\n      swap1\n      pop\n      tag_93\n      swap2\n      swap1\n      tag_94\n      jump\t// in\n    tag_93:\n      pop\n      swap1\n      jump\t// out\n    tag_94:\n    tag_95:\n      dup1\n      dup3\n      gt\n      iszero\n      tag_96\n      jumpi\n      0x00\n      dup2\n      0x00\n      swap1\n      sstore\n      pop\n      0x01\n      add\n      jump(tag_95)\n    tag_96:\n      pop\n      swap1\n      jump\t// out\n        /* \"#utility.yul\":88:205   */\n    tag_98:\n        /* \"#utility.yul\":197:198   */\n      0x00\n        /* \"#utility.yul\":194:195   */\n      dup1\n        /* \"#utility.yul\":187:199   */\n      revert\n        /* \"#utility.yul\":334:460   */\n    tag_100:\n        /* \"#utility.yul\":371:378   */\n      0x00\n        /* \"#utility.yul\":411:453   */\n      0xffffffffffffffffffffffffffffffffffffffff\n        /* \"#utility.yul\":404:409   */\n      dup3\n        /* \"#utility.yul\":400:454   */\n      and\n        /* \"#utility.yul\":389:454   */\n      swap1\n      pop\n        /* \"#utility.yul\":334:460   */\n      swap2\n      swap1\n      pop\n      jump\t// out\n        /* \"#utility.yul\":466:562   */\n    tag_101:\n        /* \"#utility.yul\":503:510   */\n      0x00\n        /* \"#utility.yul\":532:556   */\n      tag_134\n        /* \"#utility.yul\":550:555   */\n      dup3\n        /* \"#utility.yul\":532:556   */\n      tag_100\n      jump\t// in\n    tag_134:\n        /* \"#utility.yul\":521:556   */\n      swap1\n      pop\n        /* \"#utility.yul\":466:562   */\n      swap2\n      swap1\n      pop\n      jump\t// out\n        /* \"#utility.yul\":568:690   */\n    tag_102:\n        /* \"#utility.yul\":641:665   */\n      tag_136\n        /* \"#utility.yul\":659:664   */\n      dup2\n        /* \"#utility.yul\":641:665   */\n      tag_101\n      jump\t// in\n    tag_136:\n        /* \"#utility.yul\":634:639   */\n      dup2\n        /* \"#utility.yul\":631:666   */\n      eq\n        /* \"#utility.yul\":621:684   */\n      tag_137\n      jumpi\n        /* \"#utility.yul\":680:681   */\n      0x00\n        /* \"#utility.yul\":677:678   */\n      dup1\n        /* \"#utility.yul\":670:682   */\n      revert\n        /* \"#utility.yul\":621:684   */\n    tag_137:\n        /* \"#utility.yul\":568:690   */\n      pop\n      jump\t// out\n        /* \"#utility.yul\":696:835   */\n    tag_103:\n        /* \"#utility.yul\":742:747   */\n      0x00\n        /* \"#utility.yul\":780:786   */\n      dup2\n        /* \"#utility.yul\":767:787   */\n      calldataload\n        /* \"#utility.yul\":758:787   */\n      swap1\n      pop\n        /* \"#utility.yul\":796:829   */\n      tag_139\n        /* \"#utility.yul\":823:828   */\n      dup2\n        /* \"#utility.yul\":796:829   */\n      tag_102\n      jump\t// in\n    tag_139:\n        /* \"#utility.yul\":696:835   */\n      swap3\n      swap2\n      pop\n      pop\n      jump\t// out\n        /* \"#utility.yul\":841:1170   */\n    tag_18:\n        /* \"#utility.yul\":900:906   */\n      0x00\n        /* \"#utility.yul\":949:951   */\n      0x20\n        /* \"#utility.yul\":937:946   */\n      dup3\n        /* \"#utility.yul\":928:935   */\n      dup5\n        /* \"#utility.yul\":924:947   */\n      sub\n        /* \"#utility.yul\":920:952   */\n      slt\n        /* \"#utility.yul\":917:1036   */\n      iszero\n      tag_141\n      jumpi\n        /* \"#utility.yul\":955:1034   */\n      tag_142\n      tag_98\n      jump\t// in\n    tag_142:\n        /* \"#utility.yul\":917:1036   */\n    tag_141:\n        /* \"#utility.yul\":1075:1076   */\n      0x00\n        /* \"#utility.yul\":1100:1153   */\n      tag_143\n        /* \"#utility.yul\":1145:1152   */\n      dup5\n        /* \"#utility.yul\":1136:1142   */\n      dup3\n        /* \"#utility.yul\":1125:1134   */\n      dup6\n        /* \"#utility.yul\":1121:1143   */\n      add\n        /* \"#utility.yul\":1100:1153   */\n      tag_103\n      jump\t// in\n    tag_143:\n        /* \"#utility.yul\":1090:1153   */\n      swap2\n      pop\n        /* \"#utility.yul\":1046:1163   */\n      pop\n        /* \"#utility.yul\":841:1170   */\n      swap3\n      swap2\n      pop\n      pop\n      jump\t// out\n        /* \"#utility.yul\":1176:1253   */\n    tag_104:\n        /* \"#utility.yul\":1213:1220   */\n      0x00\n        /* \"#utility.yul\":1242:1247   */\n      dup2\n        /* \"#utility.yul\":1231:1247   */\n      swap1\n      pop\n        /* \"#utility.yul\":1176:1253   */\n      swap2\n      swap1\n      pop\n      jump\t// out\n        /* \"#utility.yul\":1259:1377   */\n    tag_105:\n        /* \"#utility.yul\":1346:1370   */\n      tag_146\n        /* \"#utility.yul\":1364:1369   */\n      dup2\n        /* \"#utility.yul\":1346:1370   */\n      tag_104\n      jump\t// in\n    tag_146:\n        /* \"#utility.yul\":1341:1344   */\n      dup3\n        /* \"#utility.yul\":1334:1371   */\n      mstore\n        /* \"#utility.yul\":1259:1377   */\n      pop\n      pop\n      jump\t// out\n        /* \"#utility.yul\":1383:1605   */\n    tag_21:\n        /* \"#utility.yul\":1476:1480   */\n      0x00\n        /* \"#utility.yul\":1514:1516   */\n      0x20\n        /* \"#utility.yul\":1503:1512   */\n      dup3\n        /* \"#utility.yul\":1499:1517   */\n      add\n        /* \"#utility.yul\":1491:1517   */\n      swap1\n      pop\n        /* \"#utility.yul\":1527:1598   */\n      tag_148\n        /* \"#utility.yul\":1595:1596   */\n      0x00\n        /* \"#utility.yul\":1584:1593   */\n      dup4\n        /* \"#utility.yul\":1580:1597   */\n      add\n        /* \"#utility.yul\":1571:1577   */\n      dup5\n        /* \"#utility.yul\":1527:1598   */\n      tag_105\n      jump\t// in\n    tag_148:\n        /* \"#utility.yul\":1383:1605   */\n      swap3\n      swap2\n      pop\n      pop\n      jump\t// out\n        /* \"#utility.yul\":1611:1729   */\n    tag_106:\n        /* \"#utility.yul\":1698:1722   */\n      tag_150\n        /* \"#utility.yul\":1716:1721   */\n      dup2\n        /* \"#utility.yul\":1698:1722   */\n      tag_101\n      jump\t// in\n    tag_150:\n        /* \"#utility.yul\":1693:1696   */\n      dup3\n        /* \"#utility.yul\":1686:1723   */\n      mstore\n        /* \"#utility.yul\":1611:1729   */\n      pop\n      pop\n      jump\t// out\n        /* \"#utility.yul\":1735:1957   */\n    tag_29:\n        /* \"#utility.yul\":1828:1832   */\n      0x00\n        /* \"#utility.yul\":1866:1868   */\n      0x20\n        /* \"#utility.yul\":1855:1864   */\n      dup3\n        /* \"#utility.yul\":1851:1869   */\n      add\n        /* \"#utility.yul\":1843:1869   */\n      swap1\n      pop\n        /* \"#utility.yul\":1879:1950   */\n      tag_152\n        /* \"#utility.yul\":1947:1948   */\n      0x00\n        /* \"#utility.yul\":1936:1945   */\n      dup4\n        /* \"#utility.yul\":1932:1949   */\n      add\n        /* \"#utility.yul\":1923:1929   */\n      dup5\n        /* \"#utility.yul\":1879:1950   */\n      tag_106\n      jump\t// in\n    tag_152:\n        /* \"#utility.yul\":1735:1957   */\n      swap3\n      swap2\n      pop\n      pop\n      jump\t// out\n        /* \"#utility.yul\":1963:2085   */\n    tag_107:\n        /* \"#utility.yul\":2036:2060   */\n      tag_154\n        /* \"#utility.yul\":2054:2059   */\n      dup2\n        /* \"#utility.yul\":2036:2060   */\n      tag_104\n      jump\t// in\n    tag_154:\n        /* \"#utility.yul\":2029:2034   */\n      dup2\n        /* \"#utility.yul\":2026:2061   */\n      eq\n        /* \"#utility.yul\":2016:2079   */\n      tag_155\n      jumpi\n        /* \"#utility.yul\":2075:2076   */\n      0x00\n        /* \"#utility.yul\":2072:2073   */\n      dup1\n        /* \"#utility.yul\":2065:2077   */\n      revert\n        /* \"#utility.yul\":2016:2079   */\n    tag_155:\n        /* \"#utility.yul\":1963:2085   */\n      pop\n      jump\t// out\n        /* \"#utility.yul\":2091:2230   */\n    tag_108:\n        /* \"#utility.yul\":2137:2142   */\n      0x00\n        /* \"#utility.yul\":2175:2181   */\n      dup2\n        /* \"#utility.yul\":2162:2182   */\n      calldataload\n        /* \"#utility.yul\":2153:2182   */\n      swap1\n      pop\n        /* \"#utility.yul\":2191:2224   */\n      tag_157\n        /* \"#utility.yul\":2218:2223   */\n      dup2\n        /* \"#utility.yul\":2191:2224   */\n      tag_107\n      jump\t// in\n    tag_157:\n        /* \"#utility.yul\":2091:2230   */\n      swap3\n      swap2\n      pop\n      pop\n      jump\t// out\n        /* \"#utility.yul\":2236:2565   */\n    tag_34:\n        /* \"#utility.yul\":2295:2301   */\n      0x00\n        /* \"#utility.yul\":2344:2346   */\n      0x20\n        /* \"#utility.yul\":2332:2341   */\n      dup3\n        /* \"#utility.yul\":2323:2330   */\n      dup5\n        /* \"#utility.yul\":2319:2342   */\n      sub\n        /* \"#utility.yul\":2315:2347   */\n      slt\n        /* \"#utility.yul\":2312:2431   */\n      iszero\n      tag_159\n      jumpi\n        /* \"#utility.yul\":2350:2429   */\n      tag_160\n      tag_98\n      jump\t// in\n    tag_160:\n        /* \"#utility.yul\":2312:2431   */\n    tag_159:\n        /* \"#utility.yul\":2470:2471   */\n      0x00\n        /* \"#utility.yul\":2495:2548   */\n      tag_161\n        /* \"#utility.yul\":2540:2547   */\n      dup5\n        /* \"#utility.yul\":2531:2537   */\n      dup3\n        /* \"#utility.yul\":2520:2529   */\n      dup6\n        /* \"#utility.yul\":2516:2538   */\n      add\n        /* \"#utility.yul\":2495:2548   */\n      tag_108\n      jump\t// in\n    tag_161:\n        /* \"#utility.yul\":2485:2548   */\n      swap2\n      pop\n        /* \"#utility.yul\":2441:2558   */\n      pop\n        /* \"#utility.yul\":2236:2565   */\n      swap3\n      swap2\n      pop\n      pop\n      jump\t// out\n        /* \"#utility.yul\":2571:2740   */\n    tag_109:\n        /* \"#utility.yul\":2655:2666   */\n      0x00\n        /* \"#utility.yul\":2689:2695   */\n      dup3\n        /* \"#utility.yul\":2684:2687   */\n      dup3\n        /* \"#utility.yul\":2677:2696   */\n      mstore\n        /* \"#utility.yul\":2729:2733   */\n      0x20\n        /* \"#utility.yul\":2724:2727   */\n      dup3\n        /* \"#utility.yul\":2720:2734   */\n      add\n        /* \"#utility.yul\":2705:2734   */\n      swap1\n      pop\n        /* \"#utility.yul\":2571:2740   */\n      swap3\n      swap2\n      pop\n      pop\n      jump\t// out\n        /* \"#utility.yul\":2746:2928   */\n    tag_110:\n        /* \"#utility.yul\":2886:2920   */\n      0x796f7520646f6e742066617620656e74686f75672045544820746f2073656e64\n        /* \"#utility.yul\":2882:2883   */\n      0x00\n        /* \"#utility.yul\":2874:2880   */\n      dup3\n        /* \"#utility.yul\":2870:2884   */\n      add\n        /* \"#utility.yul\":2863:2921   */\n      mstore\n        /* \"#utility.yul\":2746:2928   */\n      pop\n      jump\t// out\n        /* \"#utility.yul\":2934:3300   */\n    tag_111:\n        /* \"#utility.yul\":3076:3079   */\n      0x00\n        /* \"#utility.yul\":3097:3164   */\n      tag_165\n        /* \"#utility.yul\":3161:3163   */\n      0x20\n        /* \"#utility.yul\":3156:3159   */\n      dup4\n        /* \"#utility.yul\":3097:3164   */\n      tag_109\n      jump\t// in\n    tag_165:\n        /* \"#utility.yul\":3090:3164   */\n      swap2\n      pop\n        /* \"#utility.yul\":3173:3266   */\n      tag_166\n        /* \"#utility.yul\":3262:3265   */\n      dup3\n        /* \"#utility.yul\":3173:3266   */\n      tag_110\n      jump\t// in\n    tag_166:\n        /* \"#utility.yul\":3291:3293   */\n      0x20\n        /* \"#utility.yul\":3286:3289   */\n      dup3\n        /* \"#utility.yul\":3282:3294   */\n      add\n        /* \"#utility.yul\":3275:3294   */\n      swap1\n      pop\n        /* \"#utility.yul\":2934:3300   */\n      swap2\n      swap1\n      pop\n      jump\t// out\n        /* \"#utility.yul\":3306:3725   */\n    tag_42:\n        /* \"#utility.yul\":3472:3476   */\n      0x00\n        /* \"#utility.yul\":3510:3512   */\n      0x20\n        /* \"#utility.yul\":3499:3508   */\n      dup3\n        /* \"#utility.yul\":3495:3513   */\n      add\n        /* \"#utility.yul\":3487:3513   */\n      swap1\n      pop\n        /* \"#utility.yul\":3559:3568   */\n      dup2\n        /* \"#utility.yul\":3553:3557   */\n      dup2\n        /* \"#utility.yul\":3549:3569   */\n      sub\n        /* \"#utility.yul\":3545:3546   */\n      0x00\n        /* \"#utility.yul\":3534:3543   */\n      dup4\n        /* \"#utility.yul\":3530:3547   */\n      add\n        /* \"#utility.yul\":3523:3570   */\n      mstore\n        /* \"#utility.yul\":3587:3718   */\n      tag_168\n        /* \"#utility.yul\":3713:3717   */\n      dup2\n        /* \"#utility.yul\":3587:3718   */\n      tag_111\n      jump\t// in\n    tag_168:\n        /* \"#utility.yul\":3579:3718   */\n      swap1\n      pop\n        /* \"#utility.yul\":3306:3725   */\n      swap2\n      swap1\n      pop\n      jump\t// out\n        /* \"#utility.yul\":3731:3911   */\n    tag_112:\n        /* \"#utility.yul\":3779:3856   */\n      0x4e487b7100000000000000000000000000000000000000000000000000000000\n        /* \"#utility.yul\":3776:3777   */\n      0x00\n        /* \"#utility.yul\":3769:3857   */\n      mstore\n        /* \"#utility.yul\":3876:3880   */\n      0x11\n        /* \"#utility.yul\":3873:3874   */\n      0x04\n        /* \"#utility.yul\":3866:3881   */\n      mstore\n        /* \"#utility.yul\":3900:3904   */\n      0x24\n        /* \"#utility.yul\":3897:3898   */\n      0x00\n        /* \"#utility.yul\":3890:3905   */\n      revert\n        /* \"#utility.yul\":3917:4108   */\n    tag_45:\n        /* \"#utility.yul\":3957:3960   */\n      0x00\n        /* \"#utility.yul\":3976:3996   */\n      tag_171\n        /* \"#utility.yul\":3994:3995   */\n      dup3\n        /* \"#utility.yul\":3976:3996   */\n      tag_104\n      jump\t// in\n    tag_171:\n        /* \"#utility.yul\":3971:3996   */\n      swap2\n      pop\n        /* \"#utility.yul\":4010:4030   */\n      tag_172\n        /* \"#utility.yul\":4028:4029   */\n      dup4\n        /* \"#utility.yul\":4010:4030   */\n      tag_104\n      jump\t// in\n    tag_172:\n        /* \"#utility.yul\":4005:4030   */\n      swap3\n      pop\n        /* \"#utility.yul\":4053:4054   */\n      dup3\n        /* \"#utility.yul\":4050:4051   */\n      dup3\n        /* \"#utility.yul\":4046:4055   */\n      add\n        /* \"#utility.yul\":4039:4055   */\n      swap1\n      pop\n        /* \"#utility.yul\":4074:4077   */\n      dup1\n        /* \"#utility.yul\":4071:4072   */\n      dup3\n        /* \"#utility.yul\":4068:4078   */\n      gt\n        /* \"#utility.yul\":4065:4101   */\n      iszero\n      tag_173\n      jumpi\n        /* \"#utility.yul\":4081:4099   */\n      tag_174\n      tag_112\n      jump\t// in\n    tag_174:\n        /* \"#utility.yul\":4065:4101   */\n    tag_173:\n        /* \"#utility.yul\":3917:4108   */\n      swap3\n      swap2\n      pop\n      pop\n      jump\t// out\n        /* \"#utility.yul\":4114:4277   */\n    tag_113:\n        /* \"#utility.yul\":4254:4269   */\n      0x6d75737420626520776f6e657200000000000000000000000000000000000000\n        /* \"#utility.yul\":4250:4251   */\n      0x00\n        /* \"#utility.yul\":4242:4248   */\n      dup3\n        /* \"#utility.yul\":4238:4252   */\n      add\n        /* \"#utility.yul\":4231:4270   */\n      mstore\n        /* \"#utility.yul\":4114:4277   */\n      pop\n      jump\t// out\n        /* \"#utility.yul\":4283:4649   */\n    tag_114:\n        /* \"#utility.yul\":4425:4428   */\n      0x00\n        /* \"#utility.yul\":4446:4513   */\n      tag_177\n        /* \"#utility.yul\":4510:4512   */\n      0x0d\n        /* \"#utility.yul\":4505:4508   */\n      dup4\n        /* \"#utility.yul\":4446:4513   */\n      tag_109\n      jump\t// in\n    tag_177:\n        /* \"#utility.yul\":4439:4513   */\n      swap2\n      pop\n        /* \"#utility.yul\":4522:4615   */\n      tag_178\n        /* \"#utility.yul\":4611:4614   */\n      dup3\n        /* \"#utility.yul\":4522:4615   */\n      tag_113\n      jump\t// in\n    tag_178:\n        /* \"#utility.yul\":4640:4642   */\n      0x20\n        /* \"#utility.yul\":4635:4638   */\n      dup3\n        /* \"#utility.yul\":4631:4643   */\n      add\n        /* \"#utility.yul\":4624:4643   */\n      swap1\n      pop\n        /* \"#utility.yul\":4283:4649   */\n      swap2\n      swap1\n      pop\n      jump\t// out\n        /* \"#utility.yul\":4655:5074   */\n    tag_49:\n        /* \"#utility.yul\":4821:4825   */\n      0x00\n        /* \"#utility.yul\":4859:4861   */\n      0x20\n        /* \"#utility.yul\":4848:4857   */\n      dup3\n        /* \"#utility.yul\":4844:4862   */\n      add\n        /* \"#utility.yul\":4836:4862   */\n      swap1\n      pop\n        /* \"#utility.yul\":4908:4917   */\n      dup2\n        /* \"#utility.yul\":4902:4906   */\n      dup2\n        /* \"#utility.yul\":4898:4918   */\n      sub\n        /* \"#utility.yul\":4894:4895   */\n      0x00\n        /* \"#utility.yul\":4883:4892   */\n      dup4\n        /* \"#utility.yul\":4879:4896   */\n      add\n        /* \"#utility.yul\":4872:4919   */\n      mstore\n        /* \"#utility.yul\":4936:5067   */\n      tag_180\n        /* \"#utility.yul\":5062:5066   */\n      dup2\n        /* \"#utility.yul\":4936:5067   */\n      tag_114\n      jump\t// in\n    tag_180:\n        /* \"#utility.yul\":4928:5067   */\n      swap1\n      pop\n        /* \"#utility.yul\":4655:5074   */\n      swap2\n      swap1\n      pop\n      jump\t// out\n        /* \"#utility.yul\":5080:5260   */\n    tag_56:\n        /* \"#utility.yul\":5128:5205   */\n      0x4e487b7100000000000000000000000000000000000000000000000000000000\n        /* \"#utility.yul\":5125:5126   */\n      0x00\n        /* \"#utility.yul\":5118:5206   */\n      mstore\n        /* \"#utility.yul\":5225:5229   */\n      0x32\n        /* \"#utility.yul\":5222:5223   */\n      0x04\n        /* \"#utility.yul\":5215:5230   */\n      mstore\n        /* \"#utility.yul\":5249:5253   */\n      0x24\n        /* \"#utility.yul\":5246:5247   */\n      0x00\n        /* \"#utility.yul\":5239:5254   */\n      revert\n        /* \"#utility.yul\":5266:5499   */\n    tag_59:\n        /* \"#utility.yul\":5305:5308   */\n      0x00\n        /* \"#utility.yul\":5328:5352   */\n      tag_183\n        /* \"#utility.yul\":5346:5351   */\n      dup3\n        /* \"#utility.yul\":5328:5352   */\n      tag_104\n      jump\t// in\n    tag_183:\n        /* \"#utility.yul\":5319:5352   */\n      swap2\n      pop\n        /* \"#utility.yul\":5374:5440   */\n      0xffffffffffffffffffffffffffffffffffffffffffffffffffffffffffffffff\n        /* \"#utility.yul\":5367:5372   */\n      dup3\n        /* \"#utility.yul\":5364:5441   */\n      sub\n        /* \"#utility.yul\":5361:5464   */\n      tag_184\n      jumpi\n        /* \"#utility.yul\":5444:5462   */\n      tag_185\n      tag_112\n      jump\t// in\n    tag_185:\n        /* \"#utility.yul\":5361:5464   */\n    tag_184:\n        /* \"#utility.yul\":5491:5492   */\n      0x01\n        /* \"#utility.yul\":5484:5489   */\n      dup3\n        /* \"#utility.yul\":5480:5493   */\n      add\n        /* \"#utility.yul\":5473:5493   */\n      swap1\n      pop\n        /* \"#utility.yul\":5266:5499   */\n      swap2\n      swap1\n      pop\n      jump\t// out\n        /* \"#utility.yul\":5505:5685   */\n    tag_62:\n        /* \"#utility.yul\":5553:5630   */\n      0x4e487b7100000000000000000000000000000000000000000000000000000000\n        /* \"#utility.yul\":5550:5551   */\n      0x00\n        /* \"#utility.yul\":5543:5631   */\n      mstore\n        /* \"#utility.yul\":5650:5654   */\n      0x41\n        /* \"#utility.yul\":5647:5648   */\n      0x04\n        /* \"#utility.yul\":5640:5655   */\n      mstore\n        /* \"#utility.yul\":5674:5678   */\n      0x24\n        /* \"#utility.yul\":5671:5672   */\n      0x00\n        /* \"#utility.yul\":5664:5679   */\n      revert\n        /* \"#utility.yul\":5691:5838   */\n    tag_115:\n        /* \"#utility.yul\":5792:5803   */\n      0x00\n        /* \"#utility.yul\":5829:5832   */\n      dup2\n        /* \"#utility.yul\":5814:5832   */\n      swap1\n      pop\n        /* \"#utility.yul\":5691:5838   */\n      swap3\n      swap2\n      pop\n      pop\n      jump\t// out\n        /* \"#utility.yul\":5844:5958   */\n    tag_116:\n      pop\n      jump\t// out\n        /* \"#utility.yul\":5964:6362   */\n    tag_117:\n        /* \"#utility.yul\":6123:6126   */\n      0x00\n        /* \"#utility.yul\":6144:6227   */\n      tag_190\n        /* \"#utility.yul\":6225:6226   */\n      0x00\n        /* \"#utility.yul\":6220:6223   */\n      dup4\n        /* \"#utility.yul\":6144:6227   */\n      tag_115\n      jump\t// in\n    tag_190:\n        /* \"#utility.yul\":6137:6227   */\n      swap2\n      pop\n        /* \"#utility.yul\":6236:6329   */\n      tag_191\n        /* \"#utility.yul\":6325:6328   */\n      dup3\n        /* \"#utility.yul\":6236:6329   */\n      tag_116\n      jump\t// in\n    tag_191:\n        /* \"#utility.yul\":6354:6355   */\n      0x00\n        /* \"#utility.yul\":6349:6352   */\n      dup3\n        /* \"#utility.yul\":6345:6356   */\n      add\n        /* \"#utility.yul\":6338:6356   */\n      swap1\n      pop\n        /* \"#utility.yul\":5964:6362   */\n      swap2\n      swap1\n      pop\n      jump\t// out\n        /* \"#utility.yul\":6368:6747   */\n    tag_67:\n        /* \"#utility.yul\":6552:6555   */\n      0x00\n        /* \"#utility.yul\":6574:6721   */\n      tag_193\n        /* \"#utility.yul\":6717:6720   */\n      dup3\n        /* \"#utility.yul\":6574:6721   */\n      tag_117\n      jump\t// in\n    tag_193:\n        /* \"#utility.yul\":6567:6721   */\n      swap2\n      pop\n        /* \"#utility.yul\":6738:6741   */\n      dup2\n        /* \"#utility.yul\":6731:6741   */\n      swap1\n      pop\n        /* \"#utility.yul\":6368:6747   */\n      swap2\n      swap1\n      pop\n      jump\t// out\n        /* \"#utility.yul\":6753:6916   */\n    tag_118:\n        /* \"#utility.yul\":6893:6908   */\n      0x73656e64696e67206661696c6400000000000000000000000000000000000000\n        /* \"#utility.yul\":6889:6890   */\n      0x00\n        /* \"#utility.yul\":6881:6887   */\n      dup3\n        /* \"#utility.yul\":6877:6891   */\n      add\n        /* \"#utility.yul\":6870:6909   */\n      mstore\n        /* \"#utility.yul\":6753:6916   */\n      pop\n      jump\t// out\n        /* \"#utility.yul\":6922:7288   */\n    tag_119:\n        /* \"#utility.yul\":7064:7067   */\n      0x00\n        /* \"#utility.yul\":7085:7152   */\n      tag_196\n        /* \"#utility.yul\":7149:7151   */\n      0x0d\n        /* \"#utility.yul\":7144:7147   */\n      dup4\n        /* \"#utility.yul\":7085:7152   */\n      tag_109\n      jump\t// in\n    tag_196:\n        /* \"#utility.yul\":7078:7152   */\n      swap2\n      pop\n        /* \"#utility.yul\":7161:7254   */\n      tag_197\n        /* \"#utility.yul\":7250:7253   */\n      dup3\n        /* \"#utility.yul\":7161:7254   */\n      tag_118\n      jump\t// in\n    tag_197:\n        /* \"#utility.yul\":7279:7281   */\n      0x20\n        /* \"#utility.yul\":7274:7277   */\n      dup3\n        /* \"#utility.yul\":7270:7282   */\n      add\n        /* \"#utility.yul\":7263:7282   */\n      swap1\n      pop\n        /* \"#utility.yul\":6922:7288   */\n      swap2\n      swap1\n      pop\n      jump\t// out\n        /* \"#utility.yul\":7294:7713   */\n    tag_73:\n        /* \"#utility.yul\":7460:7464   */\n      0x00\n        /* \"#utility.yul\":7498:7500   */\n      0x20\n        /* \"#utility.yul\":7487:7496   */\n      dup3\n        /* \"#utility.yul\":7483:7501   */\n      add\n        /* \"#utility.yul\":7475:7501   */\n      swap1\n      pop\n        /* \"#utility.yul\":7547:7556   */\n      dup2\n        /* \"#utility.yul\":7541:7545   */\n      dup2\n        /* \"#utility.yul\":7537:7557   */\n      sub\n        /* \"#utility.yul\":7533:7534   */\n      0x00\n        /* \"#utility.yul\":7522:7531   */\n      dup4\n        /* \"#utility.yul\":7518:7535   */\n      add\n        /* \"#utility.yul\":7511:7558   */\n      mstore\n        /* \"#utility.yul\":7575:7706   */\n      tag_199\n        /* \"#utility.yul\":7701:7705   */\n      dup2\n        /* \"#utility.yul\":7575:7706   */\n      tag_119\n      jump\t// in\n    tag_199:\n        /* \"#utility.yul\":7567:7706   */\n      swap1\n      pop\n        /* \"#utility.yul\":7294:7713   */\n      swap2\n      swap1\n      pop\n      jump\t// out\n        /* \"#utility.yul\":7719:8129   */\n    tag_80:\n        /* \"#utility.yul\":7759:7766   */\n      0x00\n        /* \"#utility.yul\":7782:7802   */\n      tag_201\n        /* \"#utility.yul\":7800:7801   */\n      dup3\n        /* \"#utility.yul\":7782:7802   */\n      tag_104\n      jump\t// in\n    tag_201:\n        /* \"#utility.yul\":7777:7802   */\n      swap2\n      pop\n        /* \"#utility.yul\":7816:7836   */\n      tag_202\n        /* \"#utility.yul\":7834:7835   */\n      dup4\n        /* \"#utility.yul\":7816:7836   */\n      tag_104\n      jump\t// in\n    tag_202:\n        /* \"#utility.yul\":7811:7836   */\n      swap3\n      pop\n        /* \"#utility.yul\":7871:7872   */\n      dup3\n        /* \"#utility.yul\":7868:7869   */\n      dup3\n        /* \"#utility.yul\":7864:7873   */\n      mul\n        /* \"#utility.yul\":7893:7923   */\n      tag_203\n        /* \"#utility.yul\":7911:7922   */\n      dup2\n        /* \"#utility.yul\":7893:7923   */\n      tag_104\n      jump\t// in\n    tag_203:\n        /* \"#utility.yul\":7882:7923   */\n      swap2\n      pop\n        /* \"#utility.yul\":8072:8073   */\n      dup3\n        /* \"#utility.yul\":8063:8070   */\n      dup3\n        /* \"#utility.yul\":8059:8074   */\n      div\n        /* \"#utility.yul\":8056:8057   */\n      dup5\n        /* \"#utility.yul\":8053:8075   */\n      eq\n        /* \"#utility.yul\":8033:8034   */\n      dup4\n        /* \"#utility.yul\":8026:8035   */\n      iszero\n        /* \"#utility.yul\":8006:8089   */\n      or\n        /* \"#utility.yul\":7983:8122   */\n      tag_204\n      jumpi\n        /* \"#utility.yul\":8102:8120   */\n      tag_205\n      tag_112\n      jump\t// in\n    tag_205:\n        /* \"#utility.yul\":7983:8122   */\n    tag_204:\n        /* \"#utility.yul\":7767:8129   */\n      pop\n        /* \"#utility.yul\":7719:8129   */\n      swap3\n      swap2\n      pop\n      pop\n      jump\t// out\n        /* \"#utility.yul\":8135:8315   */\n    tag_120:\n        /* \"#utility.yul\":8183:8260   */\n      0x4e487b7100000000000000000000000000000000000000000000000000000000\n        /* \"#utility.yul\":8180:8181   */\n      0x00\n        /* \"#utility.yul\":8173:8261   */\n      mstore\n        /* \"#utility.yul\":8280:8284   */\n      0x12\n        /* \"#utility.yul\":8277:8278   */\n      0x04\n        /* \"#utility.yul\":8270:8285   */\n      mstore\n        /* \"#utility.yul\":8304:8308   */\n      0x24\n        /* \"#utility.yul\":8301:8302   */\n      0x00\n        /* \"#utility.yul\":8294:8309   */\n      revert\n        /* \"#utility.yul\":8321:8506   */\n    tag_82:\n        /* \"#utility.yul\":8361:8362   */\n      0x00\n        /* \"#utility.yul\":8378:8398   */\n      tag_208\n        /* \"#utility.yul\":8396:8397   */\n      dup3\n        /* \"#utility.yul\":8378:8398   */\n      tag_104\n      jump\t// in\n    tag_208:\n        /* \"#utility.yul\":8373:8398   */\n      swap2\n      pop\n        /* \"#utility.yul\":8412:8432   */\n      tag_209\n        /* \"#utility.yul\":8430:8431   */\n      dup4\n        /* \"#utility.yul\":8412:8432   */\n      tag_104\n      jump\t// in\n    tag_209:\n        /* \"#utility.yul\":8407:8432   */\n      swap3\n      pop\n        /* \"#utility.yul\":8451:8452   */\n      dup3\n        /* \"#utility.yul\":8441:8476   */\n      tag_210\n      jumpi\n        /* \"#utility.yul\":8456:8474   */\n      tag_211\n      tag_120\n      jump\t// in\n    tag_211:\n        /* \"#utility.yul\":8441:8476   */\n    tag_210:\n        /* \"#utility.yul\":8498:8499   */\n      dup3\n        /* \"#utility.yul\":8495:8496   */\n      dup3\n        /* \"#utility.yul\":8491:8500   */\n      div\n        /* \"#utility.yul\":8486:8500   */\n      swap1\n      pop\n        /* \"#utility.yul\":8321:8506   */\n      swap3\n      swap2\n      pop\n      pop\n      jump\t// out\n        /* \"#utility.yul\":8512:8617   */\n    tag_121:\n        /* \"#utility.yul\":8548:8555   */\n      0x00\n        /* \"#utility.yul\":8588:8610   */\n      0xffffffffffffffffffff\n        /* \"#utility.yul\":8581:8586   */\n      dup3\n        /* \"#utility.yul\":8577:8611   */\n      and\n        /* \"#utility.yul\":8566:8611   */\n      swap1\n      pop\n        /* \"#utility.yul\":8512:8617   */\n      swap2\n      swap1\n      pop\n      jump\t// out\n        /* \"#utility.yul\":8623:8743   */\n    tag_122:\n        /* \"#utility.yul\":8695:8718   */\n      tag_214\n        /* \"#utility.yul\":8712:8717   */\n      dup2\n        /* \"#utility.yul\":8695:8718   */\n      tag_121\n      jump\t// in\n    tag_214:\n        /* \"#utility.yul\":8688:8693   */\n      dup2\n        /* \"#utility.yul\":8685:8719   */\n      eq\n        /* \"#utility.yul\":8675:8737   */\n      tag_215\n      jumpi\n        /* \"#utility.yul\":8733:8734   */\n      0x00\n        /* \"#utility.yul\":8730:8731   */\n      dup1\n        /* \"#utility.yul\":8723:8735   */\n      revert\n        /* \"#utility.yul\":8675:8737   */\n    tag_215:\n        /* \"#utility.yul\":8623:8743   */\n      pop\n      jump\t// out\n        /* \"#utility.yul\":8749:8890   */\n    tag_123:\n        /* \"#utility.yul\":8805:8810   */\n      0x00\n        /* \"#utility.yul\":8836:8842   */\n      dup2\n        /* \"#utility.yul\":8830:8843   */\n      mload\n        /* \"#utility.yul\":8821:8843   */\n      swap1\n      pop\n        /* \"#utility.yul\":8852:8884   */\n      tag_217\n        /* \"#utility.yul\":8878:8883   */\n      dup2\n        /* \"#utility.yul\":8852:8884   */\n      tag_122\n      jump\t// in\n    tag_217:\n        /* \"#utility.yul\":8749:8890   */\n      swap3\n      swap2\n      pop\n      pop\n      jump\t// out\n        /* \"#utility.yul\":8896:8972   */\n    tag_124:\n        /* \"#utility.yul\":8932:8939   */\n      0x00\n        /* \"#utility.yul\":8961:8966   */\n      dup2\n        /* \"#utility.yul\":8950:8966   */\n      swap1\n      pop\n        /* \"#utility.yul\":8896:8972   */\n      swap2\n      swap1\n      pop\n      jump\t// out\n        /* \"#utility.yul\":8978:9098   */\n    tag_125:\n        /* \"#utility.yul\":9050:9073   */\n      tag_220\n        /* \"#utility.yul\":9067:9072   */\n      dup2\n        /* \"#utility.yul\":9050:9073   */\n      tag_124\n      jump\t// in\n    tag_220:\n        /* \"#utility.yul\":9043:9048   */\n      dup2\n        /* \"#utility.yul\":9040:9074   */\n      eq\n        /* \"#utility.yul\":9030:9092   */\n      tag_221\n      jumpi\n        /* \"#utility.yul\":9088:9089   */\n      0x00\n        /* \"#utility.yul\":9085:9086   */\n      dup1\n        /* \"#utility.yul\":9078:9090   */\n      revert\n        /* \"#utility.yul\":9030:9092   */\n    tag_221:\n        /* \"#utility.yul\":8978:9098   */\n      pop\n      jump\t// out\n        /* \"#utility.yul\":9104:9245   */\n    tag_126:\n        /* \"#utility.yul\":9160:9165   */\n      0x00\n        /* \"#utility.yul\":9191:9197   */\n      dup2\n        /* \"#utility.yul\":9185:9198   */\n      mload\n        /* \"#utility.yul\":9176:9198   */\n      swap1\n      pop\n        /* \"#utility.yul\":9207:9239   */\n      tag_223\n        /* \"#utility.yul\":9233:9238   */\n      dup2\n        /* \"#utility.yul\":9207:9239   */\n      tag_125\n      jump\t// in\n    tag_223:\n        /* \"#utility.yul\":9104:9245   */\n      swap3\n      swap2\n      pop\n      pop\n      jump\t// out\n        /* \"#utility.yul\":9251:9394   */\n    tag_127:\n        /* \"#utility.yul\":9308:9313   */\n      0x00\n        /* \"#utility.yul\":9339:9345   */\n      dup2\n        /* \"#utility.yul\":9333:9346   */\n      mload\n        /* \"#utility.yul\":9324:9346   */\n      swap1\n      pop\n        /* \"#utility.yul\":9355:9388   */\n      tag_225\n        /* \"#utility.yul\":9382:9387   */\n      dup2\n        /* \"#utility.yul\":9355:9388   */\n      tag_107\n      jump\t// in\n    tag_225:\n        /* \"#utility.yul\":9251:9394   */\n      swap3\n      swap2\n      pop\n      pop\n      jump\t// out\n        /* \"#utility.yul\":9400:10371   */\n    tag_87:\n        /* \"#utility.yul\":9503:9509   */\n      0x00\n        /* \"#utility.yul\":9511:9517   */\n      dup1\n        /* \"#utility.yul\":9519:9525   */\n      0x00\n        /* \"#utility.yul\":9527:9533   */\n      dup1\n        /* \"#utility.yul\":9535:9541   */\n      0x00\n        /* \"#utility.yul\":9584:9587   */\n      0xa0\n        /* \"#utility.yul\":9572:9581   */\n      dup7\n        /* \"#utility.yul\":9563:9570   */\n      dup9\n        /* \"#utility.yul\":9559:9582   */\n      sub\n        /* \"#utility.yul\":9555:9588   */\n      slt\n        /* \"#utility.yul\":9552:9672   */\n      iszero\n      tag_227\n      jumpi\n        /* \"#utility.yul\":9591:9670   */\n      tag_228\n      tag_98\n      jump\t// in\n    tag_228:\n        /* \"#utility.yul\":9552:9672   */\n    tag_227:\n        /* \"#utility.yul\":9711:9712   */\n      0x00\n        /* \"#utility.yul\":9736:9799   */\n      tag_229\n        /* \"#utility.yul\":9791:9798   */\n      dup9\n        /* \"#utility.yul\":9782:9788   */\n      dup3\n        /* \"#utility.yul\":9771:9780   */\n      dup10\n        /* \"#utility.yul\":9767:9789   */\n      add\n        /* \"#utility.yul\":9736:9799   */\n      tag_123\n      jump\t// in\n    tag_229:\n        /* \"#utility.yul\":9726:9799   */\n      swap6\n      pop\n        /* \"#utility.yul\":9682:9809   */\n      pop\n        /* \"#utility.yul\":9848:9850   */\n      0x20\n        /* \"#utility.yul\":9874:9937   */\n      tag_230\n        /* \"#utility.yul\":9929:9936   */\n      dup9\n        /* \"#utility.yul\":9920:9926   */\n      dup3\n        /* \"#utility.yul\":9909:9918   */\n      dup10\n        /* \"#utility.yul\":9905:9927   */\n      add\n        /* \"#utility.yul\":9874:9937   */\n      tag_126\n      jump\t// in\n    tag_230:\n        /* \"#utility.yul\":9864:9937   */\n      swap5\n      pop\n        /* \"#utility.yul\":9819:9947   */\n      pop\n        /* \"#utility.yul\":9986:9988   */\n      0x40\n        /* \"#utility.yul\":10012:10076   */\n      tag_231\n        /* \"#utility.yul\":10068:10075   */\n      dup9\n        /* \"#utility.yul\":10059:10065   */\n      dup3\n        /* \"#utility.yul\":10048:10057   */\n      dup10\n        /* \"#utility.yul\":10044:10066   */\n      add\n        /* \"#utility.yul\":10012:10076   */\n      tag_127\n      jump\t// in\n    tag_231:\n        /* \"#utility.yul\":10002:10076   */\n      swap4\n      pop\n        /* \"#utility.yul\":9957:10086   */\n      pop\n        /* \"#utility.yul\":10125:10127   */\n      0x60\n        /* \"#utility.yul\":10151:10215   */\n      tag_232\n        /* \"#utility.yul\":10207:10214   */\n      dup9\n        /* \"#utility.yul\":10198:10204   */\n      dup3\n        /* \"#utility.yul\":10187:10196   */\n      dup10\n        /* \"#utility.yul\":10183:10205   */\n      add\n        /* \"#utility.yul\":10151:10215   */\n      tag_127\n      jump\t// in\n    tag_232:\n        /* \"#utility.yul\":10141:10215   */\n      swap3\n      pop\n        /* \"#utility.yul\":10096:10225   */\n      pop\n        /* \"#utility.yul\":10264:10267   */\n      0x80\n        /* \"#utility.yul\":10291:10354   */\n      tag_233\n        /* \"#utility.yul\":10346:10353   */\n      dup9\n        /* \"#utility.yul\":10337:10343   */\n      dup3\n        /* \"#utility.yul\":10326:10335   */\n      dup10\n        /* \"#utility.yul\":10322:10344   */\n      add\n        /* \"#utility.yul\":10291:10354   */\n      tag_123\n      jump\t// in\n    tag_233:\n        /* \"#utility.yul\":10281:10354   */\n      swap2\n      pop\n        /* \"#utility.yul\":10235:10364   */\n      pop\n        /* \"#utility.yul\":9400:10371   */\n      swap3\n      swap6\n      pop\n      swap3\n      swap6\n      swap1\n      swap4\n      pop\n      jump\t// out\n        /* \"#utility.yul\":10377:10933   */\n    tag_89:\n        /* \"#utility.yul\":10416:10423   */\n      0x00\n        /* \"#utility.yul\":10439:10458   */\n      tag_235\n        /* \"#utility.yul\":10456:10457   */\n      dup3\n        /* \"#utility.yul\":10439:10458   */\n      tag_124\n      jump\t// in\n    tag_235:\n        /* \"#utility.yul\":10434:10458   */\n      swap2\n      pop\n        /* \"#utility.yul\":10472:10491   */\n      tag_236\n        /* \"#utility.yul\":10489:10490   */\n      dup4\n        /* \"#utility.yul\":10472:10491   */\n      tag_124\n      jump\t// in\n    tag_236:\n        /* \"#utility.yul\":10467:10491   */\n      swap3\n      pop\n        /* \"#utility.yul\":10526:10527   */\n      dup3\n        /* \"#utility.yul\":10523:10524   */\n      dup3\n        /* \"#utility.yul\":10519:10528   */\n      mul\n        /* \"#utility.yul\":10548:10577   */\n      tag_237\n        /* \"#utility.yul\":10565:10576   */\n      dup2\n        /* \"#utility.yul\":10548:10577   */\n      tag_124\n      jump\t// in\n    tag_237:\n        /* \"#utility.yul\":10537:10577   */\n      swap2\n      pop\n        /* \"#utility.yul\":10635:10701   */\n      0x8000000000000000000000000000000000000000000000000000000000000000\n        /* \"#utility.yul\":10632:10633   */\n      dup5\n        /* \"#utility.yul\":10629:10702   */\n      eq\n        /* \"#utility.yul\":10625:10626   */\n      0x00\n        /* \"#utility.yul\":10622:10623   */\n      dup5\n        /* \"#utility.yul\":10618:10627   */\n      slt\n        /* \"#utility.yul\":10614:10703   */\n      and\n        /* \"#utility.yul\":10611:10726   */\n      iszero\n      tag_238\n      jumpi\n        /* \"#utility.yul\":10706:10724   */\n      tag_239\n      tag_112\n      jump\t// in\n    tag_239:\n        /* \"#utility.yul\":10611:10726   */\n    tag_238:\n        /* \"#utility.yul\":10876:10877   */\n      dup3\n        /* \"#utility.yul\":10867:10874   */\n      dup3\n        /* \"#utility.yul\":10862:10878   */\n      sdiv\n        /* \"#utility.yul\":10859:10860   */\n      dup5\n        /* \"#utility.yul\":10856:10879   */\n      eq\n        /* \"#utility.yul\":10836:10837   */\n      dup4\n        /* \"#utility.yul\":10829:10838   */\n      iszero\n        /* \"#utility.yul\":10809:10893   */\n      or\n        /* \"#utility.yul\":10786:10926   */\n      tag_240\n      jumpi\n        /* \"#utility.yul\":10906:10924   */\n      tag_241\n      tag_112\n      jump\t// in\n    tag_241:\n        /* \"#utility.yul\":10786:10926   */\n    tag_240:\n        /* \"#utility.yul\":10424:10933   */\n      pop\n        /* \"#utility.yul\":10377:10933   */\n      swap3\n      swap2\n      pop\n      pop\n      jump\t// out\n\n    auxdata: 0xa264697066735822122011bb3f07134b35b2a433e4c1606c886cc859b366f8293b6354304a238ed38d3564736f6c63430008120033\n}\n",
				"bytecode": {
					"linkReferences": {},
					"object": "6080604052674563918244f4000060015534801561001c57600080fd5b5033600360006101000a81548173ffffffffffffffffffffffffffffffffffffffff021916908373ffffffffffffffffffffffffffffffffffffffff160217905550610cc98061006d6000396000f3fe60806040526004361061004e5760003560e01c806335fb093f146100675780633ccfd60b146100a45780638da5cb5b146100bb578063b60d4288146100e6578063d8e75f62146100f05761005d565b3661005d5761005b61012d565b005b61006561012d565b005b34801561007357600080fd5b5061008e600480360381019061008991906106e9565b610234565b60405161009b919061072f565b60405180910390f35b3480156100b057600080fd5b506100b961024c565b005b3480156100c757600080fd5b506100d0610497565b6040516100dd9190610759565b60405180910390f35b6100ee61012d565b005b3480156100fc57600080fd5b50610117600480360381019061011291906107a0565b6104bd565b6040516101249190610759565b60405180910390f35b600154610139346104fc565b11610179576040517f08c379a00000000000000000000000000000000000000000000000000000000081526004016101709061082a565b60405180910390fd5b6000339080600181540180825580915050600190039060005260206000200160009091909190916101000a81548173ffffffffffffffffffffffffffffffffffffffff021916908373ffffffffffffffffffffffffffffffffffffffff16021790555034600260003373ffffffffffffffffffffffffffffffffffffffff1673ffffffffffffffffffffffffffffffffffffffff168152602001908152602001600020600082825461022b9190610879565b92505081905550565b60026020528060005260406000206000915090505481565b600360009054906101000a900473ffffffffffffffffffffffffffffffffffffffff1673ffffffffffffffffffffffffffffffffffffffff163373ffffffffffffffffffffffffffffffffffffffff16146102dc576040517f08c379a00000000000000000000000000000000000000000000000000000000081526004016102d3906108f9565b60405180910390fd5b60005b60008054905081101561038757600080828154811061030157610300610919565b5b9060005260206000200160009054906101000a900473ffffffffffffffffffffffffffffffffffffffff1690506000600260008373ffffffffffffffffffffffffffffffffffffffff1673ffffffffffffffffffffffffffffffffffffffff1681526020019081526020016000208190555050808061037f90610948565b9150506102df565b50600067ffffffffffffffff8111156103a3576103a2610990565b5b6040519080825280602002602001820160405280156103d15781602001602082028036833780820191505090505b50600090805190602001906103e79291906105df565b5060003373ffffffffffffffffffffffffffffffffffffffff164760405161040e906109f0565b60006040518083038185875af1925050503d806000811461044b576040519150601f19603f3d011682016040523d82523d6000602084013e610450565b606091505b5050905080610494576040517f08c379a000000000000000000000000000000000000000000000000000000000815260040161048b90610a51565b60405180910390fd5b50565b600360009054906101000a900473ffffffffffffffffffffffffffffffffffffffff1681565b600081815481106104cd57600080fd5b906000526020600020016000915054906101000a900473ffffffffffffffffffffffffffffffffffffffff1681565b600080610507610536565b90506000670de0b6b3a764000084836105209190610a71565b61052a9190610ae2565b90508092505050919050565b60008073694aa1769357215de4fac081bf1f309adc325306905060008173ffffffffffffffffffffffffffffffffffffffff1663feaf968c6040518163ffffffff1660e01b815260040160a060405180830381865afa15801561059d573d6000803e3d6000fd5b505050506040513d601f19601f820116820180604052508101906105c19190610ba0565b5050509150506402540be400816105d89190610c1b565b9250505090565b828054828255906000526020600020908101928215610658579160200282015b828111156106575782518260006101000a81548173ffffffffffffffffffffffffffffffffffffffff021916908373ffffffffffffffffffffffffffffffffffffffff160217905550916020019190600101906105ff565b5b5090506106659190610669565b5090565b5b8082111561068257600081600090555060010161066a565b5090565b600080fd5b600073ffffffffffffffffffffffffffffffffffffffff82169050919050565b60006106b68261068b565b9050919050565b6106c6816106ab565b81146106d157600080fd5b50565b6000813590506106e3816106bd565b92915050565b6000602082840312156106ff576106fe610686565b5b600061070d848285016106d4565b91505092915050565b6000819050919050565b61072981610716565b82525050565b60006020820190506107446000830184610720565b92915050565b610753816106ab565b82525050565b600060208201905061076e600083018461074a565b92915050565b61077d81610716565b811461078857600080fd5b50565b60008135905061079a81610774565b92915050565b6000602082840312156107b6576107b5610686565b5b60006107c48482850161078b565b91505092915050565b600082825260208201905092915050565b7f796f7520646f6e742066617620656e74686f75672045544820746f2073656e64600082015250565b60006108146020836107cd565b915061081f826107de565b602082019050919050565b6000602082019050818103600083015261084381610807565b9050919050565b7f4e487b7100000000000000000000000000000000000000000000000000000000600052601160045260246000fd5b600061088482610716565b915061088f83610716565b92508282019050808211156108a7576108a661084a565b5b92915050565b7f6d75737420626520776f6e657200000000000000000000000000000000000000600082015250565b60006108e3600d836107cd565b91506108ee826108ad565b602082019050919050565b60006020820190508181036000830152610912816108d6565b9050919050565b7f4e487b7100000000000000000000000000000000000000000000000000000000600052603260045260246000fd5b600061095382610716565b91507fffffffffffffffffffffffffffffffffffffffffffffffffffffffffffffffff82036109855761098461084a565b5b600182019050919050565b7f4e487b7100000000000000000000000000000000000000000000000000000000600052604160045260246000fd5b600081905092915050565b50565b60006109da6000836109bf565b91506109e5826109ca565b600082019050919050565b60006109fb826109cd565b9150819050919050565b7f73656e64696e67206661696c6400000000000000000000000000000000000000600082015250565b6000610a3b600d836107cd565b9150610a4682610a05565b602082019050919050565b60006020820190508181036000830152610a6a81610a2e565b9050919050565b6000610a7c82610716565b9150610a8783610716565b9250828202610a9581610716565b91508282048414831517610aac57610aab61084a565b5b5092915050565b7f4e487b7100000000000000000000000000000000000000000000000000000000600052601260045260246000fd5b6000610aed82610716565b9150610af883610716565b925082610b0857610b07610ab3565b5b828204905092915050565b600069ffffffffffffffffffff82169050919050565b610b3281610b13565b8114610b3d57600080fd5b50565b600081519050610b4f81610b29565b92915050565b6000819050919050565b610b6881610b55565b8114610b7357600080fd5b50565b600081519050610b8581610b5f565b92915050565b600081519050610b9a81610774565b92915050565b600080600080600060a08688031215610bbc57610bbb610686565b5b6000610bca88828901610b40565b9550506020610bdb88828901610b76565b9450506040610bec88828901610b8b565b9350506060610bfd88828901610b8b565b9250506080610c0e88828901610b40565b9150509295509295909350565b6000610c2682610b55565b9150610c3183610b55565b9250828202610c3f81610b55565b91507f80000000000000000000000000000000000000000000000000000000000000008414600084121615610c7757610c7661084a565b5b8282058414831517610c8c57610c8b61084a565b5b509291505056fea264697066735822122011bb3f07134b35b2a433e4c1606c886cc859b366f8293b6354304a238ed38d3564736f6c63430008120033",
					"opcodes": "PUSH1 0x80 PUSH1 0x40 MSTORE PUSH8 0x4563918244F40000 PUSH1 0x1 SSTORE CALLVALUE DUP1 ISZERO PUSH2 0x1C JUMPI PUSH1 0x0 DUP1 REVERT JUMPDEST POP CALLER PUSH1 0x3 PUSH1 0x0 PUSH2 0x100 EXP DUP2 SLOAD DUP2 PUSH20 0xFFFFFFFFFFFFFFFFFFFFFFFFFFFFFFFFFFFFFFFF MUL NOT AND SWAP1 DUP4 PUSH20 0xFFFFFFFFFFFFFFFFFFFFFFFFFFFFFFFFFFFFFFFF AND MUL OR SWAP1 SSTORE POP PUSH2 0xCC9 DUP1 PUSH2 0x6D PUSH1 0x0 CODECOPY PUSH1 0x0 RETURN INVALID PUSH1 0x80 PUSH1 0x40 MSTORE PUSH1 0x4 CALLDATASIZE LT PUSH2 0x4E JUMPI PUSH1 0x0 CALLDATALOAD PUSH1 0xE0 SHR DUP1 PUSH4 0x35FB093F EQ PUSH2 0x67 JUMPI DUP1 PUSH4 0x3CCFD60B EQ PUSH2 0xA4 JUMPI DUP1 PUSH4 0x8DA5CB5B EQ PUSH2 0xBB JUMPI DUP1 PUSH4 0xB60D4288 EQ PUSH2 0xE6 JUMPI DUP1 PUSH4 0xD8E75F62 EQ PUSH2 0xF0 JUMPI PUSH2 0x5D JUMP JUMPDEST CALLDATASIZE PUSH2 0x5D JUMPI PUSH2 0x5B PUSH2 0x12D JUMP JUMPDEST STOP JUMPDEST PUSH2 0x65 PUSH2 0x12D JUMP JUMPDEST STOP JUMPDEST CALLVALUE DUP1 ISZERO PUSH2 0x73 JUMPI PUSH1 0x0 DUP1 REVERT JUMPDEST POP PUSH2 0x8E PUSH1 0x4 DUP1 CALLDATASIZE SUB DUP2 ADD SWAP1 PUSH2 0x89 SWAP2 SWAP1 PUSH2 0x6E9 JUMP JUMPDEST PUSH2 0x234 JUMP JUMPDEST PUSH1 0x40 MLOAD PUSH2 0x9B SWAP2 SWAP1 PUSH2 0x72F JUMP JUMPDEST PUSH1 0x40 MLOAD DUP1 SWAP2 SUB SWAP1 RETURN JUMPDEST CALLVALUE DUP1 ISZERO PUSH2 0xB0 JUMPI PUSH1 0x0 DUP1 REVERT JUMPDEST POP PUSH2 0xB9 PUSH2 0x24C JUMP JUMPDEST STOP JUMPDEST CALLVALUE DUP1 ISZERO PUSH2 0xC7 JUMPI PUSH1 0x0 DUP1 REVERT JUMPDEST POP PUSH2 0xD0 PUSH2 0x497 JUMP JUMPDEST PUSH1 0x40 MLOAD PUSH2 0xDD SWAP2 SWAP1 PUSH2 0x759 JUMP JUMPDEST PUSH1 0x40 MLOAD DUP1 SWAP2 SUB SWAP1 RETURN JUMPDEST PUSH2 0xEE PUSH2 0x12D JUMP JUMPDEST STOP JUMPDEST CALLVALUE DUP1 ISZERO PUSH2 0xFC JUMPI PUSH1 0x0 DUP1 REVERT JUMPDEST POP PUSH2 0x117 PUSH1 0x4 DUP1 CALLDATASIZE SUB DUP2 ADD SWAP1 PUSH2 0x112 SWAP2 SWAP1 PUSH2 0x7A0 JUMP JUMPDEST PUSH2 0x4BD JUMP JUMPDEST PUSH1 0x40 MLOAD PUSH2 0x124 SWAP2 SWAP1 PUSH2 0x759 JUMP JUMPDEST PUSH1 0x40 MLOAD DUP1 SWAP2 SUB SWAP1 RETURN JUMPDEST PUSH1 0x1 SLOAD PUSH2 0x139 CALLVALUE PUSH2 0x4FC JUMP JUMPDEST GT PUSH2 0x179 JUMPI PUSH1 0x40 MLOAD PUSH32 0x8C379A000000000000000000000000000000000000000000000000000000000 DUP2 MSTORE PUSH1 0x4 ADD PUSH2 0x170 SWAP1 PUSH2 0x82A JUMP JUMPDEST PUSH1 0x40 MLOAD DUP1 SWAP2 SUB SWAP1 REVERT JUMPDEST PUSH1 0x0 CALLER SWAP1 DUP1 PUSH1 0x1 DUP2 SLOAD ADD DUP1 DUP3 SSTORE DUP1 SWAP2 POP POP PUSH1 0x1 SWAP1 SUB SWAP1 PUSH1 0x0 MSTORE PUSH1 0x20 PUSH1 0x0 KECCAK256 ADD PUSH1 0x0 SWAP1 SWAP2 SWAP1 SWAP2 SWAP1 SWAP2 PUSH2 0x100 EXP DUP2 SLOAD DUP2 PUSH20 0xFFFFFFFFFFFFFFFFFFFFFFFFFFFFFFFFFFFFFFFF MUL NOT AND SWAP1 DUP4 PUSH20 0xFFFFFFFFFFFFFFFFFFFFFFFFFFFFFFFFFFFFFFFF AND MUL OR SWAP1 SSTORE POP CALLVALUE PUSH1 0x2 PUSH1 0x0 CALLER PUSH20 0xFFFFFFFFFFFFFFFFFFFFFFFFFFFFFFFFFFFFFFFF AND PUSH20 0xFFFFFFFFFFFFFFFFFFFFFFFFFFFFFFFFFFFFFFFF AND DUP2 MSTORE PUSH1 0x20 ADD SWAP1 DUP2 MSTORE PUSH1 0x20 ADD PUSH1 0x0 KECCAK256 PUSH1 0x0 DUP3 DUP3 SLOAD PUSH2 0x22B SWAP2 SWAP1 PUSH2 0x879 JUMP JUMPDEST SWAP3 POP POP DUP2 SWAP1 SSTORE POP JUMP JUMPDEST PUSH1 0x2 PUSH1 0x20 MSTORE DUP1 PUSH1 0x0 MSTORE PUSH1 0x40 PUSH1 0x0 KECCAK256 PUSH1 0x0 SWAP2 POP SWAP1 POP SLOAD DUP2 JUMP JUMPDEST PUSH1 0x3 PUSH1 0x0 SWAP1 SLOAD SWAP1 PUSH2 0x100 EXP SWAP1 DIV PUSH20 0xFFFFFFFFFFFFFFFFFFFFFFFFFFFFFFFFFFFFFFFF AND PUSH20 0xFFFFFFFFFFFFFFFFFFFFFFFFFFFFFFFFFFFFFFFF AND CALLER PUSH20 0xFFFFFFFFFFFFFFFFFFFFFFFFFFFFFFFFFFFFFFFF AND EQ PUSH2 0x2DC JUMPI PUSH1 0x40 MLOAD PUSH32 0x8C379A000000000000000000000000000000000000000000000000000000000 DUP2 MSTORE PUSH1 0x4 ADD PUSH2 0x2D3 SWAP1 PUSH2 0x8F9 JUMP JUMPDEST PUSH1 0x40 MLOAD DUP1 SWAP2 SUB SWAP1 REVERT JUMPDEST PUSH1 0x0 JUMPDEST PUSH1 0x0 DUP1 SLOAD SWAP1 POP DUP2 LT ISZERO PUSH2 0x387 JUMPI PUSH1 0x0 DUP1 DUP3 DUP2 SLOAD DUP2 LT PUSH2 0x301 JUMPI PUSH2 0x300 PUSH2 0x919 JUMP JUMPDEST JUMPDEST SWAP1 PUSH1 0x0 MSTORE PUSH1 0x20 PUSH1 0x0 KECCAK256 ADD PUSH1 0x0 SWAP1 SLOAD SWAP1 PUSH2 0x100 EXP SWAP1 DIV PUSH20 0xFFFFFFFFFFFFFFFFFFFFFFFFFFFFFFFFFFFFFFFF AND SWAP1 POP PUSH1 0x0 PUSH1 0x2 PUSH1 0x0 DUP4 PUSH20 0xFFFFFFFFFFFFFFFFFFFFFFFFFFFFFFFFFFFFFFFF AND PUSH20 0xFFFFFFFFFFFFFFFFFFFFFFFFFFFFFFFFFFFFFFFF AND DUP2 MSTORE PUSH1 0x20 ADD SWAP1 DUP2 MSTORE PUSH1 0x20 ADD PUSH1 0x0 KECCAK256 DUP2 SWAP1 SSTORE POP POP DUP1 DUP1 PUSH2 0x37F SWAP1 PUSH2 0x948 JUMP JUMPDEST SWAP2 POP POP PUSH2 0x2DF JUMP JUMPDEST POP PUSH1 0x0 PUSH8 0xFFFFFFFFFFFFFFFF DUP2 GT ISZERO PUSH2 0x3A3 JUMPI PUSH2 0x3A2 PUSH2 0x990 JUMP JUMPDEST JUMPDEST PUSH1 0x40 MLOAD SWAP1 DUP1 DUP3 MSTORE DUP1 PUSH1 0x20 MUL PUSH1 0x20 ADD DUP3 ADD PUSH1 0x40 MSTORE DUP1 ISZERO PUSH2 0x3D1 JUMPI DUP2 PUSH1 0x20 ADD PUSH1 0x20 DUP3 MUL DUP1 CALLDATASIZE DUP4 CALLDATACOPY DUP1 DUP3 ADD SWAP2 POP POP SWAP1 POP JUMPDEST POP PUSH1 0x0 SWAP1 DUP1 MLOAD SWAP1 PUSH1 0x20 ADD SWAP1 PUSH2 0x3E7 SWAP3 SWAP2 SWAP1 PUSH2 0x5DF JUMP JUMPDEST POP PUSH1 0x0 CALLER PUSH20 0xFFFFFFFFFFFFFFFFFFFFFFFFFFFFFFFFFFFFFFFF AND SELFBALANCE PUSH1 0x40 MLOAD PUSH2 0x40E SWAP1 PUSH2 0x9F0 JUMP JUMPDEST PUSH1 0x0 PUSH1 0x40 MLOAD DUP1 DUP4 SUB DUP2 DUP6 DUP8 GAS CALL SWAP3 POP POP POP RETURNDATASIZE DUP1 PUSH1 0x0 DUP2 EQ PUSH2 0x44B JUMPI PUSH1 0x40 MLOAD SWAP2 POP PUSH1 0x1F NOT PUSH1 0x3F RETURNDATASIZE ADD AND DUP3 ADD PUSH1 0x40 MSTORE RETURNDATASIZE DUP3 MSTORE RETURNDATASIZE PUSH1 0x0 PUSH1 0x20 DUP5 ADD RETURNDATACOPY PUSH2 0x450 JUMP JUMPDEST PUSH1 0x60 SWAP2 POP JUMPDEST POP POP SWAP1 POP DUP1 PUSH2 0x494 JUMPI PUSH1 0x40 MLOAD PUSH32 0x8C379A000000000000000000000000000000000000000000000000000000000 DUP2 MSTORE PUSH1 0x4 ADD PUSH2 0x48B SWAP1 PUSH2 0xA51 JUMP JUMPDEST PUSH1 0x40 MLOAD DUP1 SWAP2 SUB SWAP1 REVERT JUMPDEST POP JUMP JUMPDEST PUSH1 0x3 PUSH1 0x0 SWAP1 SLOAD SWAP1 PUSH2 0x100 EXP SWAP1 DIV PUSH20 0xFFFFFFFFFFFFFFFFFFFFFFFFFFFFFFFFFFFFFFFF AND DUP2 JUMP JUMPDEST PUSH1 0x0 DUP2 DUP2 SLOAD DUP2 LT PUSH2 0x4CD JUMPI PUSH1 0x0 DUP1 REVERT JUMPDEST SWAP1 PUSH1 0x0 MSTORE PUSH1 0x20 PUSH1 0x0 KECCAK256 ADD PUSH1 0x0 SWAP2 POP SLOAD SWAP1 PUSH2 0x100 EXP SWAP1 DIV PUSH20 0xFFFFFFFFFFFFFFFFFFFFFFFFFFFFFFFFFFFFFFFF AND DUP2 JUMP JUMPDEST PUSH1 0x0 DUP1 PUSH2 0x507 PUSH2 0x536 JUMP JUMPDEST SWAP1 POP PUSH1 0x0 PUSH8 0xDE0B6B3A7640000 DUP5 DUP4 PUSH2 0x520 SWAP2 SWAP1 PUSH2 0xA71 JUMP JUMPDEST PUSH2 0x52A SWAP2 SWAP1 PUSH2 0xAE2 JUMP JUMPDEST SWAP1 POP DUP1 SWAP3 POP POP POP SWAP2 SWAP1 POP JUMP JUMPDEST PUSH1 0x0 DUP1 PUSH20 0x694AA1769357215DE4FAC081BF1F309ADC325306 SWAP1 POP PUSH1 0x0 DUP2 PUSH20 0xFFFFFFFFFFFFFFFFFFFFFFFFFFFFFFFFFFFFFFFF AND PUSH4 0xFEAF968C PUSH1 0x40 MLOAD DUP2 PUSH4 0xFFFFFFFF AND PUSH1 0xE0 SHL DUP2 MSTORE PUSH1 0x4 ADD PUSH1 0xA0 PUSH1 0x40 MLOAD DUP1 DUP4 SUB DUP2 DUP7 GAS STATICCALL ISZERO DUP1 ISZERO PUSH2 0x59D JUMPI RETURNDATASIZE PUSH1 0x0 DUP1 RETURNDATACOPY RETURNDATASIZE PUSH1 0x0 REVERT JUMPDEST POP POP POP POP PUSH1 0x40 MLOAD RETURNDATASIZE PUSH1 0x1F NOT PUSH1 0x1F DUP3 ADD AND DUP3 ADD DUP1 PUSH1 0x40 MSTORE POP DUP2 ADD SWAP1 PUSH2 0x5C1 SWAP2 SWAP1 PUSH2 0xBA0 JUMP JUMPDEST POP POP POP SWAP2 POP POP PUSH5 0x2540BE400 DUP2 PUSH2 0x5D8 SWAP2 SWAP1 PUSH2 0xC1B JUMP JUMPDEST SWAP3 POP POP POP SWAP1 JUMP JUMPDEST DUP3 DUP1 SLOAD DUP3 DUP3 SSTORE SWAP1 PUSH1 0x0 MSTORE PUSH1 0x20 PUSH1 0x0 KECCAK256 SWAP1 DUP2 ADD SWAP3 DUP3 ISZERO PUSH2 0x658 JUMPI SWAP2 PUSH1 0x20 MUL DUP3 ADD JUMPDEST DUP3 DUP2 GT ISZERO PUSH2 0x657 JUMPI DUP3 MLOAD DUP3 PUSH1 0x0 PUSH2 0x100 EXP DUP2 SLOAD DUP2 PUSH20 0xFFFFFFFFFFFFFFFFFFFFFFFFFFFFFFFFFFFFFFFF MUL NOT AND SWAP1 DUP4 PUSH20 0xFFFFFFFFFFFFFFFFFFFFFFFFFFFFFFFFFFFFFFFF AND MUL OR SWAP1 SSTORE POP SWAP2 PUSH1 0x20 ADD SWAP2 SWAP1 PUSH1 0x1 ADD SWAP1 PUSH2 0x5FF JUMP JUMPDEST JUMPDEST POP SWAP1 POP PUSH2 0x665 SWAP2 SWAP1 PUSH2 0x669 JUMP JUMPDEST POP SWAP1 JUMP JUMPDEST JUMPDEST DUP1 DUP3 GT ISZERO PUSH2 0x682 JUMPI PUSH1 0x0 DUP2 PUSH1 0x0 SWAP1 SSTORE POP PUSH1 0x1 ADD PUSH2 0x66A JUMP JUMPDEST POP SWAP1 JUMP JUMPDEST PUSH1 0x0 DUP1 REVERT JUMPDEST PUSH1 0x0 PUSH20 0xFFFFFFFFFFFFFFFFFFFFFFFFFFFFFFFFFFFFFFFF DUP3 AND SWAP1 POP SWAP2 SWAP1 POP JUMP JUMPDEST PUSH1 0x0 PUSH2 0x6B6 DUP3 PUSH2 0x68B JUMP JUMPDEST SWAP1 POP SWAP2 SWAP1 POP JUMP JUMPDEST PUSH2 0x6C6 DUP2 PUSH2 0x6AB JUMP JUMPDEST DUP2 EQ PUSH2 0x6D1 JUMPI PUSH1 0x0 DUP1 REVERT JUMPDEST POP JUMP JUMPDEST PUSH1 0x0 DUP2 CALLDATALOAD SWAP1 POP PUSH2 0x6E3 DUP2 PUSH2 0x6BD JUMP JUMPDEST SWAP3 SWAP2 POP POP JUMP JUMPDEST PUSH1 0x0 PUSH1 0x20 DUP3 DUP5 SUB SLT ISZERO PUSH2 0x6FF JUMPI PUSH2 0x6FE PUSH2 0x686 JUMP JUMPDEST JUMPDEST PUSH1 0x0 PUSH2 0x70D DUP5 DUP3 DUP6 ADD PUSH2 0x6D4 JUMP JUMPDEST SWAP2 POP POP SWAP3 SWAP2 POP POP JUMP JUMPDEST PUSH1 0x0 DUP2 SWAP1 POP SWAP2 SWAP1 POP JUMP JUMPDEST PUSH2 0x729 DUP2 PUSH2 0x716 JUMP JUMPDEST DUP3 MSTORE POP POP JUMP JUMPDEST PUSH1 0x0 PUSH1 0x20 DUP3 ADD SWAP1 POP PUSH2 0x744 PUSH1 0x0 DUP4 ADD DUP5 PUSH2 0x720 JUMP JUMPDEST SWAP3 SWAP2 POP POP JUMP JUMPDEST PUSH2 0x753 DUP2 PUSH2 0x6AB JUMP JUMPDEST DUP3 MSTORE POP POP JUMP JUMPDEST PUSH1 0x0 PUSH1 0x20 DUP3 ADD SWAP1 POP PUSH2 0x76E PUSH1 0x0 DUP4 ADD DUP5 PUSH2 0x74A JUMP JUMPDEST SWAP3 SWAP2 POP POP JUMP JUMPDEST PUSH2 0x77D DUP2 PUSH2 0x716 JUMP JUMPDEST DUP2 EQ PUSH2 0x788 JUMPI PUSH1 0x0 DUP1 REVERT JUMPDEST POP JUMP JUMPDEST PUSH1 0x0 DUP2 CALLDATALOAD SWAP1 POP PUSH2 0x79A DUP2 PUSH2 0x774 JUMP JUMPDEST SWAP3 SWAP2 POP POP JUMP JUMPDEST PUSH1 0x0 PUSH1 0x20 DUP3 DUP5 SUB SLT ISZERO PUSH2 0x7B6 JUMPI PUSH2 0x7B5 PUSH2 0x686 JUMP JUMPDEST JUMPDEST PUSH1 0x0 PUSH2 0x7C4 DUP5 DUP3 DUP6 ADD PUSH2 0x78B JUMP JUMPDEST SWAP2 POP POP SWAP3 SWAP2 POP POP JUMP JUMPDEST PUSH1 0x0 DUP3 DUP3 MSTORE PUSH1 0x20 DUP3 ADD SWAP1 POP SWAP3 SWAP2 POP POP JUMP JUMPDEST PUSH32 0x796F7520646F6E742066617620656E74686F75672045544820746F2073656E64 PUSH1 0x0 DUP3 ADD MSTORE POP JUMP JUMPDEST PUSH1 0x0 PUSH2 0x814 PUSH1 0x20 DUP4 PUSH2 0x7CD JUMP JUMPDEST SWAP2 POP PUSH2 0x81F DUP3 PUSH2 0x7DE JUMP JUMPDEST PUSH1 0x20 DUP3 ADD SWAP1 POP SWAP2 SWAP1 POP JUMP JUMPDEST PUSH1 0x0 PUSH1 0x20 DUP3 ADD SWAP1 POP DUP2 DUP2 SUB PUSH1 0x0 DUP4 ADD MSTORE PUSH2 0x843 DUP2 PUSH2 0x807 JUMP JUMPDEST SWAP1 POP SWAP2 SWAP1 POP JUMP JUMPDEST PUSH32 0x4E487B7100000000000000000000000000000000000000000000000000000000 PUSH1 0x0 MSTORE PUSH1 0x11 PUSH1 0x4 MSTORE PUSH1 0x24 PUSH1 0x0 REVERT JUMPDEST PUSH1 0x0 PUSH2 0x884 DUP3 PUSH2 0x716 JUMP JUMPDEST SWAP2 POP PUSH2 0x88F DUP4 PUSH2 0x716 JUMP JUMPDEST SWAP3 POP DUP3 DUP3 ADD SWAP1 POP DUP1 DUP3 GT ISZERO PUSH2 0x8A7 JUMPI PUSH2 0x8A6 PUSH2 0x84A JUMP JUMPDEST JUMPDEST SWAP3 SWAP2 POP POP JUMP JUMPDEST PUSH32 0x6D75737420626520776F6E657200000000000000000000000000000000000000 PUSH1 0x0 DUP3 ADD MSTORE POP JUMP JUMPDEST PUSH1 0x0 PUSH2 0x8E3 PUSH1 0xD DUP4 PUSH2 0x7CD JUMP JUMPDEST SWAP2 POP PUSH2 0x8EE DUP3 PUSH2 0x8AD JUMP JUMPDEST PUSH1 0x20 DUP3 ADD SWAP1 POP SWAP2 SWAP1 POP JUMP JUMPDEST PUSH1 0x0 PUSH1 0x20 DUP3 ADD SWAP1 POP DUP2 DUP2 SUB PUSH1 0x0 DUP4 ADD MSTORE PUSH2 0x912 DUP2 PUSH2 0x8D6 JUMP JUMPDEST SWAP1 POP SWAP2 SWAP1 POP JUMP JUMPDEST PUSH32 0x4E487B7100000000000000000000000000000000000000000000000000000000 PUSH1 0x0 MSTORE PUSH1 0x32 PUSH1 0x4 MSTORE PUSH1 0x24 PUSH1 0x0 REVERT JUMPDEST PUSH1 0x0 PUSH2 0x953 DUP3 PUSH2 0x716 JUMP JUMPDEST SWAP2 POP PUSH32 0xFFFFFFFFFFFFFFFFFFFFFFFFFFFFFFFFFFFFFFFFFFFFFFFFFFFFFFFFFFFFFFFF DUP3 SUB PUSH2 0x985 JUMPI PUSH2 0x984 PUSH2 0x84A JUMP JUMPDEST JUMPDEST PUSH1 0x1 DUP3 ADD SWAP1 POP SWAP2 SWAP1 POP JUMP JUMPDEST PUSH32 0x4E487B7100000000000000000000000000000000000000000000000000000000 PUSH1 0x0 MSTORE PUSH1 0x41 PUSH1 0x4 MSTORE PUSH1 0x24 PUSH1 0x0 REVERT JUMPDEST PUSH1 0x0 DUP2 SWAP1 POP SWAP3 SWAP2 POP POP JUMP JUMPDEST POP JUMP JUMPDEST PUSH1 0x0 PUSH2 0x9DA PUSH1 0x0 DUP4 PUSH2 0x9BF JUMP JUMPDEST SWAP2 POP PUSH2 0x9E5 DUP3 PUSH2 0x9CA JUMP JUMPDEST PUSH1 0x0 DUP3 ADD SWAP1 POP SWAP2 SWAP1 POP JUMP JUMPDEST PUSH1 0x0 PUSH2 0x9FB DUP3 PUSH2 0x9CD JUMP JUMPDEST SWAP2 POP DUP2 SWAP1 POP SWAP2 SWAP1 POP JUMP JUMPDEST PUSH32 0x73656E64696E67206661696C6400000000000000000000000000000000000000 PUSH1 0x0 DUP3 ADD MSTORE POP JUMP JUMPDEST PUSH1 0x0 PUSH2 0xA3B PUSH1 0xD DUP4 PUSH2 0x7CD JUMP JUMPDEST SWAP2 POP PUSH2 0xA46 DUP3 PUSH2 0xA05 JUMP JUMPDEST PUSH1 0x20 DUP3 ADD SWAP1 POP SWAP2 SWAP1 POP JUMP JUMPDEST PUSH1 0x0 PUSH1 0x20 DUP3 ADD SWAP1 POP DUP2 DUP2 SUB PUSH1 0x0 DUP4 ADD MSTORE PUSH2 0xA6A DUP2 PUSH2 0xA2E JUMP JUMPDEST SWAP1 POP SWAP2 SWAP1 POP JUMP JUMPDEST PUSH1 0x0 PUSH2 0xA7C DUP3 PUSH2 0x716 JUMP JUMPDEST SWAP2 POP PUSH2 0xA87 DUP4 PUSH2 0x716 JUMP JUMPDEST SWAP3 POP DUP3 DUP3 MUL PUSH2 0xA95 DUP2 PUSH2 0x716 JUMP JUMPDEST SWAP2 POP DUP3 DUP3 DIV DUP5 EQ DUP4 ISZERO OR PUSH2 0xAAC JUMPI PUSH2 0xAAB PUSH2 0x84A JUMP JUMPDEST JUMPDEST POP SWAP3 SWAP2 POP POP JUMP JUMPDEST PUSH32 0x4E487B7100000000000000000000000000000000000000000000000000000000 PUSH1 0x0 MSTORE PUSH1 0x12 PUSH1 0x4 MSTORE PUSH1 0x24 PUSH1 0x0 REVERT JUMPDEST PUSH1 0x0 PUSH2 0xAED DUP3 PUSH2 0x716 JUMP JUMPDEST SWAP2 POP PUSH2 0xAF8 DUP4 PUSH2 0x716 JUMP JUMPDEST SWAP3 POP DUP3 PUSH2 0xB08 JUMPI PUSH2 0xB07 PUSH2 0xAB3 JUMP JUMPDEST JUMPDEST DUP3 DUP3 DIV SWAP1 POP SWAP3 SWAP2 POP POP JUMP JUMPDEST PUSH1 0x0 PUSH10 0xFFFFFFFFFFFFFFFFFFFF DUP3 AND SWAP1 POP SWAP2 SWAP1 POP JUMP JUMPDEST PUSH2 0xB32 DUP2 PUSH2 0xB13 JUMP JUMPDEST DUP2 EQ PUSH2 0xB3D JUMPI PUSH1 0x0 DUP1 REVERT JUMPDEST POP JUMP JUMPDEST PUSH1 0x0 DUP2 MLOAD SWAP1 POP PUSH2 0xB4F DUP2 PUSH2 0xB29 JUMP JUMPDEST SWAP3 SWAP2 POP POP JUMP JUMPDEST PUSH1 0x0 DUP2 SWAP1 POP SWAP2 SWAP1 POP JUMP JUMPDEST PUSH2 0xB68 DUP2 PUSH2 0xB55 JUMP JUMPDEST DUP2 EQ PUSH2 0xB73 JUMPI PUSH1 0x0 DUP1 REVERT JUMPDEST POP JUMP JUMPDEST PUSH1 0x0 DUP2 MLOAD SWAP1 POP PUSH2 0xB85 DUP2 PUSH2 0xB5F JUMP JUMPDEST SWAP3 SWAP2 POP POP JUMP JUMPDEST PUSH1 0x0 DUP2 MLOAD SWAP1 POP PUSH2 0xB9A DUP2 PUSH2 0x774 JUMP JUMPDEST SWAP3 SWAP2 POP POP JUMP JUMPDEST PUSH1 0x0 DUP1 PUSH1 0x0 DUP1 PUSH1 0x0 PUSH1 0xA0 DUP7 DUP9 SUB SLT ISZERO PUSH2 0xBBC JUMPI PUSH2 0xBBB PUSH2 0x686 JUMP JUMPDEST JUMPDEST PUSH1 0x0 PUSH2 0xBCA DUP9 DUP3 DUP10 ADD PUSH2 0xB40 JUMP JUMPDEST SWAP6 POP POP PUSH1 0x20 PUSH2 0xBDB DUP9 DUP3 DUP10 ADD PUSH2 0xB76 JUMP JUMPDEST SWAP5 POP POP PUSH1 0x40 PUSH2 0xBEC DUP9 DUP3 DUP10 ADD PUSH2 0xB8B JUMP JUMPDEST SWAP4 POP POP PUSH1 0x60 PUSH2 0xBFD DUP9 DUP3 DUP10 ADD PUSH2 0xB8B JUMP JUMPDEST SWAP3 POP POP PUSH1 0x80 PUSH2 0xC0E DUP9 DUP3 DUP10 ADD PUSH2 0xB40 JUMP JUMPDEST SWAP2 POP POP SWAP3 SWAP6 POP SWAP3 SWAP6 SWAP1 SWAP4 POP JUMP JUMPDEST PUSH1 0x0 PUSH2 0xC26 DUP3 PUSH2 0xB55 JUMP JUMPDEST SWAP2 POP PUSH2 0xC31 DUP4 PUSH2 0xB55 JUMP JUMPDEST SWAP3 POP DUP3 DUP3 MUL PUSH2 0xC3F DUP2 PUSH2 0xB55 JUMP JUMPDEST SWAP2 POP PUSH32 0x8000000000000000000000000000000000000000000000000000000000000000 DUP5 EQ PUSH1 0x0 DUP5 SLT AND ISZERO PUSH2 0xC77 JUMPI PUSH2 0xC76 PUSH2 0x84A JUMP JUMPDEST JUMPDEST DUP3 DUP3 SDIV DUP5 EQ DUP4 ISZERO OR PUSH2 0xC8C JUMPI PUSH2 0xC8B PUSH2 0x84A JUMP JUMPDEST JUMPDEST POP SWAP3 SWAP2 POP POP JUMP INVALID LOG2 PUSH5 0x6970667358 0x22 SLT KECCAK256 GT 0xBB EXTCODEHASH SMOD SGT 0x4B CALLDATALOAD 0xB2 LOG4 CALLER 0xE4 0xC1 PUSH1 0x6C DUP9 PUSH13 0xC859B366F8293B6354304A238E 0xD3 DUP14 CALLDATALOAD PUSH5 0x736F6C6343 STOP ADDMOD SLT STOP CALLER "
				},
				"gasEstimates": {
					"creation": {
						"codeDepositCost": "654600",
						"executionCost": "47061",
						"totalCost": "701661"
					},
					"external": {
						"": "infinite",
						"founders(uint256)": "5022",
						"fund()": "infinite",
						"owner()": "2536",
						"usersFunder(address)": "2792",
						"withdraw()": "infinite"
					}
				},
				"methodIdentifiers": {
					"founders(uint256)": "d8e75f62",
					"fund()": "b60d4288",
					"owner()": "8da5cb5b",
					"usersFunder(address)": "35fb093f",
					"withdraw()": "3ccfd60b"
				}
			},
			"storageLayout": {
				"storage": [
					{
						"astId": 57,
						"contract": "fundme.sol:FundMe",
						"label": "founders",
						"offset": 0,
						"slot": "0",
						"type": "t_array(t_address)dyn_storage"
					},
					{
						"astId": 60,
						"contract": "fundme.sol:FundMe",
						"label": "minimuvalue",
						"offset": 0,
						"slot": "1",
						"type": "t_uint256"
					},
					{
						"astId": 64,
						"contract": "fundme.sol:FundMe",
						"label": "usersFunder",
						"offset": 0,
						"slot": "2",
						"type": "t_mapping(t_address,t_uint256)"
					},
					{
						"astId": 95,
						"contract": "fundme.sol:FundMe",
						"label": "owner",
						"offset": 0,
						"slot": "3",
						"type": "t_address"
					}
				],
				"types": {
					"t_address": {
						"encoding": "inplace",
						"label": "address",
						"numberOfBytes": "20"
					},
					"t_array(t_address)dyn_storage": {
						"base": "t_address",
						"encoding": "dynamic_array",
						"label": "address[]",
						"numberOfBytes": "32"
					},
					"t_mapping(t_address,t_uint256)": {
						"encoding": "mapping",
						"key": "t_address",
						"label": "mapping(address => uint256)",
						"numberOfBytes": "32",
						"value": "t_uint256"
					},
					"t_uint256": {
						"encoding": "inplace",
						"label": "uint256",
						"numberOfBytes": "32"
					}
				}
			},
			"userdoc": {
				"kind": "user",
				"methods": {},
				"version": 1
			}
		}
	}
}