{
	"revision/first.sol": {
		"First": {
			"abi": [
				{
					"inputs": [
						{
							"internalType": "string",
							"name": "_name",
							"type": "string"
						},
						{
							"internalType": "uint256",
							"name": "_num",
							"type": "uint256"
						}
					],
					"name": "addusernum",
					"outputs": [],
					"stateMutability": "nonpayable",
					"type": "function"
				},
				{
					"inputs": [
						{
							"internalType": "uint256",
							"name": "_num",
							"type": "uint256"
						}
					],
					"name": "getUser",
					"outputs": [
						{
							"internalType": "string",
							"name": "",
							"type": "string"
						},
						{
							"internalType": "uint256",
							"name": "",
							"type": "uint256"
						}
					],
					"stateMutability": "view",
					"type": "function"
				},
				{
					"inputs": [
						{
							"internalType": "uint256",
							"name": "",
							"type": "uint256"
						}
					],
					"name": "listofusers",
					"outputs": [
						{
							"internalType": "string",
							"name": "name",
							"type": "string"
						},
						{
							"internalType": "uint256",
							"name": "number",
							"type": "uint256"
						}
					],
					"stateMutability": "view",
					"type": "function"
				},
				{
					"inputs": [
						{
							"internalType": "string",
							"name": "",
							"type": "string"
						}
					],
					"name": "username",
					"outputs": [
						{
							"internalType": "uint256",
							"name": "",
							"type": "uint256"
						}
					],
					"stateMutability": "view",
					"type": "function"
				}
			],
			"devdoc": {
				"kind": "dev",
				"methods": {},
				"version": 1
			},
			"evm": {
				"assembly": "    /* \"revision/first.sol\":60:537  contract First{... */\n  mstore(0x40, 0x80)\n  callvalue\n  dup1\n  iszero\n  tag_1\n  jumpi\n  0x00\n  dup1\n  revert\ntag_1:\n  pop\n  dataSize(sub_0)\n  dup1\n  dataOffset(sub_0)\n  0x00\n  codecopy\n  0x00\n  return\nstop\n\nsub_0: assembly {\n        /* \"revision/first.sol\":60:537  contract First{... */\n      mstore(0x40, 0x80)\n      callvalue\n      dup1\n      iszero\n      tag_1\n      jumpi\n      0x00\n      dup1\n      revert\n    tag_1:\n      pop\n      jumpi(tag_2, lt(calldatasize, 0x04))\n      shr(0xe0, calldataload(0x00))\n      dup1\n      0xb0467deb\n      eq\n      tag_3\n      jumpi\n      dup1\n      0xd3f1b16f\n      eq\n      tag_4\n      jumpi\n      dup1\n      0xe665bbf1\n      eq\n      tag_5\n      jumpi\n      dup1\n      0xf48ea23a\n      eq\n      tag_6\n      jumpi\n    tag_2:\n      0x00\n      dup1\n      revert\n        /* \"revision/first.sol\":367:531  function getUser(uint256 _num) public view returns(string memory,uint256){... */\n    tag_3:\n      tag_7\n      0x04\n      dup1\n      calldatasize\n      sub\n      dup2\n      add\n      swap1\n      tag_8\n      swap2\n      swap1\n      tag_9\n      jump\t// in\n    tag_8:\n      tag_10\n      jump\t// in\n    tag_7:\n      mload(0x40)\n      tag_11\n      swap3\n      swap2\n      swap1\n      tag_12\n      jump\t// in\n    tag_11:\n      mload(0x40)\n      dup1\n      swap2\n      sub\n      swap1\n      return\n        /* \"revision/first.sol\":179:220  mapping(string=> uint256) public username */\n    tag_4:\n      tag_13\n      0x04\n      dup1\n      calldatasize\n      sub\n      dup2\n      add\n      swap1\n      tag_14\n      swap2\n      swap1\n      tag_15\n      jump\t// in\n    tag_14:\n      tag_16\n      jump\t// in\n    tag_13:\n      mload(0x40)\n      tag_17\n      swap2\n      swap1\n      tag_18\n      jump\t// in\n    tag_17:\n      mload(0x40)\n      dup1\n      swap2\n      sub\n      swap1\n      return\n        /* \"revision/first.sol\":142:174  UserFavNums[] public listofusers */\n    tag_5:\n      tag_19\n      0x04\n      dup1\n      calldatasize\n      sub\n      dup2\n      add\n      swap1\n      tag_20\n      swap2\n      swap1\n      tag_9\n      jump\t// in\n    tag_20:\n      tag_21\n      jump\t// in\n    tag_19:\n      mload(0x40)\n      tag_22\n      swap3\n      swap2\n      swap1\n      tag_12\n      jump\t// in\n    tag_22:\n      mload(0x40)\n      dup1\n      swap2\n      sub\n      swap1\n      return\n        /* \"revision/first.sol\":226:363  function addusernum(string memory _name,uint256 _num) public{... */\n    tag_6:\n      tag_23\n      0x04\n      dup1\n      calldatasize\n      sub\n      dup2\n      add\n      swap1\n      tag_24\n      swap2\n      swap1\n      tag_25\n      jump\t// in\n    tag_24:\n      tag_26\n      jump\t// in\n    tag_23:\n      stop\n        /* \"revision/first.sol\":367:531  function getUser(uint256 _num) public view returns(string memory,uint256){... */\n    tag_10:\n        /* \"revision/first.sol\":418:431  string memory */\n      0x60\n        /* \"revision/first.sol\":432:439  uint256 */\n      0x00\n        /* \"revision/first.sol\":444:468  UserFavNums memory users */\n      dup1\n        /* \"revision/first.sol\":472:483  listofusers */\n      0x00\n        /* \"revision/first.sol\":484:488  _num */\n      dup5\n        /* \"revision/first.sol\":472:489  listofusers[_num] */\n      dup2\n      sload\n      dup2\n      lt\n      tag_28\n      jumpi\n      tag_29\n      tag_30\n      jump\t// in\n    tag_29:\n    tag_28:\n      swap1\n      0x00\n      mstore\n      keccak256(0x00, 0x20)\n      swap1\n      0x02\n      mul\n      add\n        /* \"revision/first.sol\":444:489  UserFavNums memory users   =listofusers[_num] */\n      mload(0x40)\n      dup1\n      0x40\n      add\n      0x40\n      mstore\n      swap1\n      dup2\n      0x00\n      dup3\n      add\n      dup1\n      sload\n      tag_32\n      swap1\n      tag_33\n      jump\t// in\n    tag_32:\n      dup1\n      0x1f\n      add\n      0x20\n      dup1\n      swap2\n      div\n      mul\n      0x20\n      add\n      mload(0x40)\n      swap1\n      dup2\n      add\n      0x40\n      mstore\n      dup1\n      swap3\n      swap2\n      swap1\n      dup2\n      dup2\n      mstore\n      0x20\n      add\n      dup3\n      dup1\n      sload\n      tag_34\n      swap1\n      tag_33\n      jump\t// in\n    tag_34:\n      dup1\n      iszero\n      tag_35\n      jumpi\n      dup1\n      0x1f\n      lt\n      tag_36\n      jumpi\n      0x0100\n      dup1\n      dup4\n      sload\n      div\n      mul\n      dup4\n      mstore\n      swap2\n      0x20\n      add\n      swap2\n      jump(tag_35)\n    tag_36:\n      dup3\n      add\n      swap2\n      swap1\n      0x00\n      mstore\n      keccak256(0x00, 0x20)\n      swap1\n    tag_37:\n      dup2\n      sload\n      dup2\n      mstore\n      swap1\n      0x01\n      add\n      swap1\n      0x20\n      add\n      dup1\n      dup4\n      gt\n      tag_37\n      jumpi\n      dup3\n      swap1\n      sub\n      0x1f\n      and\n      dup3\n      add\n      swap2\n    tag_35:\n      pop\n      pop\n      pop\n      pop\n      pop\n      dup2\n      mstore\n      0x20\n      add\n      0x01\n      dup3\n      add\n      sload\n      dup2\n      mstore\n      pop\n      pop\n      swap1\n      pop\n        /* \"revision/first.sol\":501:506  users */\n      dup1\n        /* \"revision/first.sol\":501:511  users.name */\n      0x00\n      add\n      mload\n        /* \"revision/first.sol\":512:517  users */\n      dup2\n        /* \"revision/first.sol\":512:524  users.number */\n      0x20\n      add\n      mload\n        /* \"revision/first.sol\":493:525  return (users.name,users.number) */\n      swap3\n      pop\n      swap3\n      pop\n      pop\n        /* \"revision/first.sol\":367:531  function getUser(uint256 _num) public view returns(string memory,uint256){... */\n      swap2\n      pop\n      swap2\n      jump\t// out\n        /* \"revision/first.sol\":179:220  mapping(string=> uint256) public username */\n    tag_16:\n      0x01\n      dup2\n      dup1\n      mload\n      0x20\n      dup2\n      add\n      dup3\n      add\n      dup1\n      mload\n      dup5\n      dup3\n      mstore\n      0x20\n      dup4\n      add\n      0x20\n      dup6\n      add\n      keccak256\n      dup2\n      dup4\n      mstore\n      dup1\n      swap6\n      pop\n      pop\n      pop\n      pop\n      pop\n      pop\n      0x00\n      swap2\n      pop\n      swap1\n      pop\n      sload\n      dup2\n      jump\t// out\n        /* \"revision/first.sol\":142:174  UserFavNums[] public listofusers */\n    tag_21:\n      0x00\n      dup2\n      dup2\n      sload\n      dup2\n      lt\n      tag_38\n      jumpi\n      0x00\n      dup1\n      revert\n    tag_38:\n      swap1\n      0x00\n      mstore\n      keccak256(0x00, 0x20)\n      swap1\n      0x02\n      mul\n      add\n      0x00\n      swap2\n      pop\n      swap1\n      pop\n      dup1\n      0x00\n      add\n      dup1\n      sload\n      tag_40\n      swap1\n      tag_33\n      jump\t// in\n    tag_40:\n      dup1\n      0x1f\n      add\n      0x20\n      dup1\n      swap2\n      div\n      mul\n      0x20\n      add\n      mload(0x40)\n      swap1\n      dup2\n      add\n      0x40\n      mstore\n      dup1\n      swap3\n      swap2\n      swap1\n      dup2\n      dup2\n      mstore\n      0x20\n      add\n      dup3\n      dup1\n      sload\n      tag_41\n      swap1\n      tag_33\n      jump\t// in\n    tag_41:\n      dup1\n      iszero\n      tag_42\n      jumpi\n      dup1\n      0x1f\n      lt\n      tag_43\n      jumpi\n      0x0100\n      dup1\n      dup4\n      sload\n      div\n      mul\n      dup4\n      mstore\n      swap2\n      0x20\n      add\n      swap2\n      jump(tag_42)\n    tag_43:\n      dup3\n      add\n      swap2\n      swap1\n      0x00\n      mstore\n      keccak256(0x00, 0x20)\n      swap1\n    tag_44:\n      dup2\n      sload\n      dup2\n      mstore\n      swap1\n      0x01\n      add\n      swap1\n      0x20\n      add\n      dup1\n      dup4\n      gt\n      tag_44\n      jumpi\n      dup3\n      swap1\n      sub\n      0x1f\n      and\n      dup3\n      add\n      swap2\n    tag_42:\n      pop\n      pop\n      pop\n      pop\n      pop\n      swap1\n      dup1\n      0x01\n      add\n      sload\n      swap1\n      pop\n      dup3\n      jump\t// out\n        /* \"revision/first.sol\":226:363  function addusernum(string memory _name,uint256 _num) public{... */\n    tag_26:\n        /* \"revision/first.sol\":291:302  listofusers */\n      0x00\n        /* \"revision/first.sol\":308:331  UserFavNums(_name,_num) */\n      mload(0x40)\n      dup1\n      0x40\n      add\n      0x40\n      mstore\n      dup1\n        /* \"revision/first.sol\":320:325  _name */\n      dup5\n        /* \"revision/first.sol\":308:331  UserFavNums(_name,_num) */\n      dup2\n      mstore\n      0x20\n      add\n        /* \"revision/first.sol\":326:330  _num */\n      dup4\n        /* \"revision/first.sol\":308:331  UserFavNums(_name,_num) */\n      dup2\n      mstore\n      pop\n        /* \"revision/first.sol\":291:332  listofusers.push(UserFavNums(_name,_num)) */\n      swap1\n      dup1\n      0x01\n      dup2\n      sload\n      add\n      dup1\n      dup3\n      sstore\n      dup1\n      swap2\n      pop\n      pop\n      0x01\n      swap1\n      sub\n      swap1\n      0x00\n      mstore\n      keccak256(0x00, 0x20)\n      swap1\n      0x02\n      mul\n      add\n      0x00\n      swap1\n      swap2\n      swap1\n      swap2\n      swap1\n      swap2\n      pop\n      0x00\n      dup3\n      add\n      mload\n      dup2\n      0x00\n      add\n      swap1\n      dup2\n      tag_47\n      swap2\n      swap1\n      tag_48\n      jump\t// in\n    tag_47:\n      pop\n      0x20\n      dup3\n      add\n      mload\n      dup2\n      0x01\n      add\n      sstore\n      pop\n      pop\n        /* \"revision/first.sol\":353:357  _num */\n      dup1\n        /* \"revision/first.sol\":335:343  username */\n      0x01\n        /* \"revision/first.sol\":344:349  _name */\n      dup4\n        /* \"revision/first.sol\":335:350  username[_name] */\n      mload(0x40)\n      tag_49\n      swap2\n      swap1\n      tag_50\n      jump\t// in\n    tag_49:\n      swap1\n      dup2\n      mstore\n      0x20\n      add\n      mload(0x40)\n      dup1\n      swap2\n      sub\n      swap1\n      keccak256\n        /* \"revision/first.sol\":335:357  username[_name] = _num */\n      dup2\n      swap1\n      sstore\n      pop\n        /* \"revision/first.sol\":226:363  function addusernum(string memory _name,uint256 _num) public{... */\n      pop\n      pop\n      jump\t// out\n        /* \"#utility.yul\":7:82   */\n    tag_51:\n        /* \"#utility.yul\":40:46   */\n      0x00\n        /* \"#utility.yul\":73:75   */\n      0x40\n        /* \"#utility.yul\":67:76   */\n      mload\n        /* \"#utility.yul\":57:76   */\n      swap1\n      pop\n        /* \"#utility.yul\":7:82   */\n      swap1\n      jump\t// out\n        /* \"#utility.yul\":88:205   */\n    tag_52:\n        /* \"#utility.yul\":197:198   */\n      0x00\n        /* \"#utility.yul\":194:195   */\n      dup1\n        /* \"#utility.yul\":187:199   */\n      revert\n        /* \"#utility.yul\":211:328   */\n    tag_53:\n        /* \"#utility.yul\":320:321   */\n      0x00\n        /* \"#utility.yul\":317:318   */\n      dup1\n        /* \"#utility.yul\":310:322   */\n      revert\n        /* \"#utility.yul\":334:411   */\n    tag_54:\n        /* \"#utility.yul\":371:378   */\n      0x00\n        /* \"#utility.yul\":400:405   */\n      dup2\n        /* \"#utility.yul\":389:405   */\n      swap1\n      pop\n        /* \"#utility.yul\":334:411   */\n      swap2\n      swap1\n      pop\n      jump\t// out\n        /* \"#utility.yul\":417:539   */\n    tag_55:\n        /* \"#utility.yul\":490:514   */\n      tag_96\n        /* \"#utility.yul\":508:513   */\n      dup2\n        /* \"#utility.yul\":490:514   */\n      tag_54\n      jump\t// in\n    tag_96:\n        /* \"#utility.yul\":483:488   */\n      dup2\n        /* \"#utility.yul\":480:515   */\n      eq\n        /* \"#utility.yul\":470:533   */\n      tag_97\n      jumpi\n        /* \"#utility.yul\":529:530   */\n      0x00\n        /* \"#utility.yul\":526:527   */\n      dup1\n        /* \"#utility.yul\":519:531   */\n      revert\n        /* \"#utility.yul\":470:533   */\n    tag_97:\n        /* \"#utility.yul\":417:539   */\n      pop\n      jump\t// out\n        /* \"#utility.yul\":545:684   */\n    tag_56:\n        /* \"#utility.yul\":591:596   */\n      0x00\n        /* \"#utility.yul\":629:635   */\n      dup2\n        /* \"#utility.yul\":616:636   */\n      calldataload\n        /* \"#utility.yul\":607:636   */\n      swap1\n      pop\n        /* \"#utility.yul\":645:678   */\n      tag_99\n        /* \"#utility.yul\":672:677   */\n      dup2\n        /* \"#utility.yul\":645:678   */\n      tag_55\n      jump\t// in\n    tag_99:\n        /* \"#utility.yul\":545:684   */\n      swap3\n      swap2\n      pop\n      pop\n      jump\t// out\n        /* \"#utility.yul\":690:1019   */\n    tag_9:\n        /* \"#utility.yul\":749:755   */\n      0x00\n        /* \"#utility.yul\":798:800   */\n      0x20\n        /* \"#utility.yul\":786:795   */\n      dup3\n        /* \"#utility.yul\":777:784   */\n      dup5\n        /* \"#utility.yul\":773:796   */\n      sub\n        /* \"#utility.yul\":769:801   */\n      slt\n        /* \"#utility.yul\":766:885   */\n      iszero\n      tag_101\n      jumpi\n        /* \"#utility.yul\":804:883   */\n      tag_102\n      tag_52\n      jump\t// in\n    tag_102:\n        /* \"#utility.yul\":766:885   */\n    tag_101:\n        /* \"#utility.yul\":924:925   */\n      0x00\n        /* \"#utility.yul\":949:1002   */\n      tag_103\n        /* \"#utility.yul\":994:1001   */\n      dup5\n        /* \"#utility.yul\":985:991   */\n      dup3\n        /* \"#utility.yul\":974:983   */\n      dup6\n        /* \"#utility.yul\":970:992   */\n      add\n        /* \"#utility.yul\":949:1002   */\n      tag_56\n      jump\t// in\n    tag_103:\n        /* \"#utility.yul\":939:1002   */\n      swap2\n      pop\n        /* \"#utility.yul\":895:1012   */\n      pop\n        /* \"#utility.yul\":690:1019   */\n      swap3\n      swap2\n      pop\n      pop\n      jump\t// out\n        /* \"#utility.yul\":1025:1124   */\n    tag_57:\n        /* \"#utility.yul\":1077:1083   */\n      0x00\n        /* \"#utility.yul\":1111:1116   */\n      dup2\n        /* \"#utility.yul\":1105:1117   */\n      mload\n        /* \"#utility.yul\":1095:1117   */\n      swap1\n      pop\n        /* \"#utility.yul\":1025:1124   */\n      swap2\n      swap1\n      pop\n      jump\t// out\n        /* \"#utility.yul\":1130:1299   */\n    tag_58:\n        /* \"#utility.yul\":1214:1225   */\n      0x00\n        /* \"#utility.yul\":1248:1254   */\n      dup3\n        /* \"#utility.yul\":1243:1246   */\n      dup3\n        /* \"#utility.yul\":1236:1255   */\n      mstore\n        /* \"#utility.yul\":1288:1292   */\n      0x20\n        /* \"#utility.yul\":1283:1286   */\n      dup3\n        /* \"#utility.yul\":1279:1293   */\n      add\n        /* \"#utility.yul\":1264:1293   */\n      swap1\n      pop\n        /* \"#utility.yul\":1130:1299   */\n      swap3\n      swap2\n      pop\n      pop\n      jump\t// out\n        /* \"#utility.yul\":1305:1551   */\n    tag_59:\n        /* \"#utility.yul\":1386:1387   */\n      0x00\n        /* \"#utility.yul\":1396:1509   */\n    tag_107:\n        /* \"#utility.yul\":1410:1416   */\n      dup4\n        /* \"#utility.yul\":1407:1408   */\n      dup2\n        /* \"#utility.yul\":1404:1417   */\n      lt\n        /* \"#utility.yul\":1396:1509   */\n      iszero\n      tag_109\n      jumpi\n        /* \"#utility.yul\":1495:1496   */\n      dup1\n        /* \"#utility.yul\":1490:1493   */\n      dup3\n        /* \"#utility.yul\":1486:1497   */\n      add\n        /* \"#utility.yul\":1480:1498   */\n      mload\n        /* \"#utility.yul\":1476:1477   */\n      dup2\n        /* \"#utility.yul\":1471:1474   */\n      dup5\n        /* \"#utility.yul\":1467:1478   */\n      add\n        /* \"#utility.yul\":1460:1499   */\n      mstore\n        /* \"#utility.yul\":1432:1434   */\n      0x20\n        /* \"#utility.yul\":1429:1430   */\n      dup2\n        /* \"#utility.yul\":1425:1435   */\n      add\n        /* \"#utility.yul\":1420:1435   */\n      swap1\n      pop\n        /* \"#utility.yul\":1396:1509   */\n      jump(tag_107)\n    tag_109:\n        /* \"#utility.yul\":1543:1544   */\n      0x00\n        /* \"#utility.yul\":1534:1540   */\n      dup5\n        /* \"#utility.yul\":1529:1532   */\n      dup5\n        /* \"#utility.yul\":1525:1541   */\n      add\n        /* \"#utility.yul\":1518:1545   */\n      mstore\n        /* \"#utility.yul\":1367:1551   */\n      pop\n        /* \"#utility.yul\":1305:1551   */\n      pop\n      pop\n      pop\n      jump\t// out\n        /* \"#utility.yul\":1557:1659   */\n    tag_60:\n        /* \"#utility.yul\":1598:1604   */\n      0x00\n        /* \"#utility.yul\":1649:1651   */\n      0x1f\n        /* \"#utility.yul\":1645:1652   */\n      not\n        /* \"#utility.yul\":1640:1642   */\n      0x1f\n        /* \"#utility.yul\":1633:1638   */\n      dup4\n        /* \"#utility.yul\":1629:1643   */\n      add\n        /* \"#utility.yul\":1625:1653   */\n      and\n        /* \"#utility.yul\":1615:1653   */\n      swap1\n      pop\n        /* \"#utility.yul\":1557:1659   */\n      swap2\n      swap1\n      pop\n      jump\t// out\n        /* \"#utility.yul\":1665:2042   */\n    tag_61:\n        /* \"#utility.yul\":1753:1756   */\n      0x00\n        /* \"#utility.yul\":1781:1820   */\n      tag_112\n        /* \"#utility.yul\":1814:1819   */\n      dup3\n        /* \"#utility.yul\":1781:1820   */\n      tag_57\n      jump\t// in\n    tag_112:\n        /* \"#utility.yul\":1836:1907   */\n      tag_113\n        /* \"#utility.yul\":1900:1906   */\n      dup2\n        /* \"#utility.yul\":1895:1898   */\n      dup6\n        /* \"#utility.yul\":1836:1907   */\n      tag_58\n      jump\t// in\n    tag_113:\n        /* \"#utility.yul\":1829:1907   */\n      swap4\n      pop\n        /* \"#utility.yul\":1916:1981   */\n      tag_114\n        /* \"#utility.yul\":1974:1980   */\n      dup2\n        /* \"#utility.yul\":1969:1972   */\n      dup6\n        /* \"#utility.yul\":1962:1966   */\n      0x20\n        /* \"#utility.yul\":1955:1960   */\n      dup7\n        /* \"#utility.yul\":1951:1967   */\n      add\n        /* \"#utility.yul\":1916:1981   */\n      tag_59\n      jump\t// in\n    tag_114:\n        /* \"#utility.yul\":2006:2035   */\n      tag_115\n        /* \"#utility.yul\":2028:2034   */\n      dup2\n        /* \"#utility.yul\":2006:2035   */\n      tag_60\n      jump\t// in\n    tag_115:\n        /* \"#utility.yul\":2001:2004   */\n      dup5\n        /* \"#utility.yul\":1997:2036   */\n      add\n        /* \"#utility.yul\":1990:2036   */\n      swap2\n      pop\n        /* \"#utility.yul\":1757:2042   */\n      pop\n        /* \"#utility.yul\":1665:2042   */\n      swap3\n      swap2\n      pop\n      pop\n      jump\t// out\n        /* \"#utility.yul\":2048:2166   */\n    tag_62:\n        /* \"#utility.yul\":2135:2159   */\n      tag_117\n        /* \"#utility.yul\":2153:2158   */\n      dup2\n        /* \"#utility.yul\":2135:2159   */\n      tag_54\n      jump\t// in\n    tag_117:\n        /* \"#utility.yul\":2130:2133   */\n      dup3\n        /* \"#utility.yul\":2123:2160   */\n      mstore\n        /* \"#utility.yul\":2048:2166   */\n      pop\n      pop\n      jump\t// out\n        /* \"#utility.yul\":2172:2595   */\n    tag_12:\n        /* \"#utility.yul\":2313:2317   */\n      0x00\n        /* \"#utility.yul\":2351:2353   */\n      0x40\n        /* \"#utility.yul\":2340:2349   */\n      dup3\n        /* \"#utility.yul\":2336:2354   */\n      add\n        /* \"#utility.yul\":2328:2354   */\n      swap1\n      pop\n        /* \"#utility.yul\":2400:2409   */\n      dup2\n        /* \"#utility.yul\":2394:2398   */\n      dup2\n        /* \"#utility.yul\":2390:2410   */\n      sub\n        /* \"#utility.yul\":2386:2387   */\n      0x00\n        /* \"#utility.yul\":2375:2384   */\n      dup4\n        /* \"#utility.yul\":2371:2388   */\n      add\n        /* \"#utility.yul\":2364:2411   */\n      mstore\n        /* \"#utility.yul\":2428:2506   */\n      tag_119\n        /* \"#utility.yul\":2501:2505   */\n      dup2\n        /* \"#utility.yul\":2492:2498   */\n      dup6\n        /* \"#utility.yul\":2428:2506   */\n      tag_61\n      jump\t// in\n    tag_119:\n        /* \"#utility.yul\":2420:2506   */\n      swap1\n      pop\n        /* \"#utility.yul\":2516:2588   */\n      tag_120\n        /* \"#utility.yul\":2584:2586   */\n      0x20\n        /* \"#utility.yul\":2573:2582   */\n      dup4\n        /* \"#utility.yul\":2569:2587   */\n      add\n        /* \"#utility.yul\":2560:2566   */\n      dup5\n        /* \"#utility.yul\":2516:2588   */\n      tag_62\n      jump\t// in\n    tag_120:\n        /* \"#utility.yul\":2172:2595   */\n      swap4\n      swap3\n      pop\n      pop\n      pop\n      jump\t// out\n        /* \"#utility.yul\":2601:2718   */\n    tag_63:\n        /* \"#utility.yul\":2710:2711   */\n      0x00\n        /* \"#utility.yul\":2707:2708   */\n      dup1\n        /* \"#utility.yul\":2700:2712   */\n      revert\n        /* \"#utility.yul\":2724:2841   */\n    tag_64:\n        /* \"#utility.yul\":2833:2834   */\n      0x00\n        /* \"#utility.yul\":2830:2831   */\n      dup1\n        /* \"#utility.yul\":2823:2835   */\n      revert\n        /* \"#utility.yul\":2847:3027   */\n    tag_65:\n        /* \"#utility.yul\":2895:2972   */\n      0x4e487b7100000000000000000000000000000000000000000000000000000000\n        /* \"#utility.yul\":2892:2893   */\n      0x00\n        /* \"#utility.yul\":2885:2973   */\n      mstore\n        /* \"#utility.yul\":2992:2996   */\n      0x41\n        /* \"#utility.yul\":2989:2990   */\n      0x04\n        /* \"#utility.yul\":2982:2997   */\n      mstore\n        /* \"#utility.yul\":3016:3020   */\n      0x24\n        /* \"#utility.yul\":3013:3014   */\n      0x00\n        /* \"#utility.yul\":3006:3021   */\n      revert\n        /* \"#utility.yul\":3033:3314   */\n    tag_66:\n        /* \"#utility.yul\":3116:3143   */\n      tag_125\n        /* \"#utility.yul\":3138:3142   */\n      dup3\n        /* \"#utility.yul\":3116:3143   */\n      tag_60\n      jump\t// in\n    tag_125:\n        /* \"#utility.yul\":3108:3114   */\n      dup2\n        /* \"#utility.yul\":3104:3144   */\n      add\n        /* \"#utility.yul\":3246:3252   */\n      dup2\n        /* \"#utility.yul\":3234:3244   */\n      dup2\n        /* \"#utility.yul\":3231:3253   */\n      lt\n        /* \"#utility.yul\":3210:3228   */\n      0xffffffffffffffff\n        /* \"#utility.yul\":3198:3208   */\n      dup3\n        /* \"#utility.yul\":3195:3229   */\n      gt\n        /* \"#utility.yul\":3192:3254   */\n      or\n        /* \"#utility.yul\":3189:3277   */\n      iszero\n      tag_126\n      jumpi\n        /* \"#utility.yul\":3257:3275   */\n      tag_127\n      tag_65\n      jump\t// in\n    tag_127:\n        /* \"#utility.yul\":3189:3277   */\n    tag_126:\n        /* \"#utility.yul\":3297:3307   */\n      dup1\n        /* \"#utility.yul\":3293:3295   */\n      0x40\n        /* \"#utility.yul\":3286:3308   */\n      mstore\n        /* \"#utility.yul\":3076:3314   */\n      pop\n        /* \"#utility.yul\":3033:3314   */\n      pop\n      pop\n      jump\t// out\n        /* \"#utility.yul\":3320:3449   */\n    tag_67:\n        /* \"#utility.yul\":3354:3360   */\n      0x00\n        /* \"#utility.yul\":3381:3401   */\n      tag_129\n      tag_51\n      jump\t// in\n    tag_129:\n        /* \"#utility.yul\":3371:3401   */\n      swap1\n      pop\n        /* \"#utility.yul\":3410:3443   */\n      tag_130\n        /* \"#utility.yul\":3438:3442   */\n      dup3\n        /* \"#utility.yul\":3430:3436   */\n      dup3\n        /* \"#utility.yul\":3410:3443   */\n      tag_66\n      jump\t// in\n    tag_130:\n        /* \"#utility.yul\":3320:3449   */\n      swap2\n      swap1\n      pop\n      jump\t// out\n        /* \"#utility.yul\":3455:3763   */\n    tag_68:\n        /* \"#utility.yul\":3517:3521   */\n      0x00\n        /* \"#utility.yul\":3607:3625   */\n      0xffffffffffffffff\n        /* \"#utility.yul\":3599:3605   */\n      dup3\n        /* \"#utility.yul\":3596:3626   */\n      gt\n        /* \"#utility.yul\":3593:3649   */\n      iszero\n      tag_132\n      jumpi\n        /* \"#utility.yul\":3629:3647   */\n      tag_133\n      tag_65\n      jump\t// in\n    tag_133:\n        /* \"#utility.yul\":3593:3649   */\n    tag_132:\n        /* \"#utility.yul\":3667:3696   */\n      tag_134\n        /* \"#utility.yul\":3689:3695   */\n      dup3\n        /* \"#utility.yul\":3667:3696   */\n      tag_60\n      jump\t// in\n    tag_134:\n        /* \"#utility.yul\":3659:3696   */\n      swap1\n      pop\n        /* \"#utility.yul\":3751:3755   */\n      0x20\n        /* \"#utility.yul\":3745:3749   */\n      dup2\n        /* \"#utility.yul\":3741:3756   */\n      add\n        /* \"#utility.yul\":3733:3756   */\n      swap1\n      pop\n        /* \"#utility.yul\":3455:3763   */\n      swap2\n      swap1\n      pop\n      jump\t// out\n        /* \"#utility.yul\":3769:3915   */\n    tag_69:\n        /* \"#utility.yul\":3866:3872   */\n      dup3\n        /* \"#utility.yul\":3861:3864   */\n      dup2\n        /* \"#utility.yul\":3856:3859   */\n      dup4\n        /* \"#utility.yul\":3843:3873   */\n      calldatacopy\n        /* \"#utility.yul\":3907:3908   */\n      0x00\n        /* \"#utility.yul\":3898:3904   */\n      dup4\n        /* \"#utility.yul\":3893:3896   */\n      dup4\n        /* \"#utility.yul\":3889:3905   */\n      add\n        /* \"#utility.yul\":3882:3909   */\n      mstore\n        /* \"#utility.yul\":3769:3915   */\n      pop\n      pop\n      pop\n      jump\t// out\n        /* \"#utility.yul\":3921:4346   */\n    tag_70:\n        /* \"#utility.yul\":3999:4004   */\n      0x00\n        /* \"#utility.yul\":4024:4090   */\n      tag_137\n        /* \"#utility.yul\":4040:4089   */\n      tag_138\n        /* \"#utility.yul\":4082:4088   */\n      dup5\n        /* \"#utility.yul\":4040:4089   */\n      tag_68\n      jump\t// in\n    tag_138:\n        /* \"#utility.yul\":4024:4090   */\n      tag_67\n      jump\t// in\n    tag_137:\n        /* \"#utility.yul\":4015:4090   */\n      swap1\n      pop\n        /* \"#utility.yul\":4113:4119   */\n      dup3\n        /* \"#utility.yul\":4106:4111   */\n      dup2\n        /* \"#utility.yul\":4099:4120   */\n      mstore\n        /* \"#utility.yul\":4151:4155   */\n      0x20\n        /* \"#utility.yul\":4144:4149   */\n      dup2\n        /* \"#utility.yul\":4140:4156   */\n      add\n        /* \"#utility.yul\":4189:4192   */\n      dup5\n        /* \"#utility.yul\":4180:4186   */\n      dup5\n        /* \"#utility.yul\":4175:4178   */\n      dup5\n        /* \"#utility.yul\":4171:4187   */\n      add\n        /* \"#utility.yul\":4168:4193   */\n      gt\n        /* \"#utility.yul\":4165:4277   */\n      iszero\n      tag_139\n      jumpi\n        /* \"#utility.yul\":4196:4275   */\n      tag_140\n      tag_64\n      jump\t// in\n    tag_140:\n        /* \"#utility.yul\":4165:4277   */\n    tag_139:\n        /* \"#utility.yul\":4286:4340   */\n      tag_141\n        /* \"#utility.yul\":4333:4339   */\n      dup5\n        /* \"#utility.yul\":4328:4331   */\n      dup3\n        /* \"#utility.yul\":4323:4326   */\n      dup6\n        /* \"#utility.yul\":4286:4340   */\n      tag_69\n      jump\t// in\n    tag_141:\n        /* \"#utility.yul\":4005:4346   */\n      pop\n        /* \"#utility.yul\":3921:4346   */\n      swap4\n      swap3\n      pop\n      pop\n      pop\n      jump\t// out\n        /* \"#utility.yul\":4366:4706   */\n    tag_71:\n        /* \"#utility.yul\":4422:4427   */\n      0x00\n        /* \"#utility.yul\":4471:4474   */\n      dup3\n        /* \"#utility.yul\":4464:4468   */\n      0x1f\n        /* \"#utility.yul\":4456:4462   */\n      dup4\n        /* \"#utility.yul\":4452:4469   */\n      add\n        /* \"#utility.yul\":4448:4475   */\n      slt\n        /* \"#utility.yul\":4438:4560   */\n      tag_143\n      jumpi\n        /* \"#utility.yul\":4479:4558   */\n      tag_144\n      tag_63\n      jump\t// in\n    tag_144:\n        /* \"#utility.yul\":4438:4560   */\n    tag_143:\n        /* \"#utility.yul\":4596:4602   */\n      dup2\n        /* \"#utility.yul\":4583:4603   */\n      calldataload\n        /* \"#utility.yul\":4621:4700   */\n      tag_145\n        /* \"#utility.yul\":4696:4699   */\n      dup5\n        /* \"#utility.yul\":4688:4694   */\n      dup3\n        /* \"#utility.yul\":4681:4685   */\n      0x20\n        /* \"#utility.yul\":4673:4679   */\n      dup7\n        /* \"#utility.yul\":4669:4686   */\n      add\n        /* \"#utility.yul\":4621:4700   */\n      tag_70\n      jump\t// in\n    tag_145:\n        /* \"#utility.yul\":4612:4700   */\n      swap2\n      pop\n        /* \"#utility.yul\":4428:4706   */\n      pop\n        /* \"#utility.yul\":4366:4706   */\n      swap3\n      swap2\n      pop\n      pop\n      jump\t// out\n        /* \"#utility.yul\":4712:5221   */\n    tag_15:\n        /* \"#utility.yul\":4781:4787   */\n      0x00\n        /* \"#utility.yul\":4830:4832   */\n      0x20\n        /* \"#utility.yul\":4818:4827   */\n      dup3\n        /* \"#utility.yul\":4809:4816   */\n      dup5\n        /* \"#utility.yul\":4805:4828   */\n      sub\n        /* \"#utility.yul\":4801:4833   */\n      slt\n        /* \"#utility.yul\":4798:4917   */\n      iszero\n      tag_147\n      jumpi\n        /* \"#utility.yul\":4836:4915   */\n      tag_148\n      tag_52\n      jump\t// in\n    tag_148:\n        /* \"#utility.yul\":4798:4917   */\n    tag_147:\n        /* \"#utility.yul\":4984:4985   */\n      0x00\n        /* \"#utility.yul\":4973:4982   */\n      dup3\n        /* \"#utility.yul\":4969:4986   */\n      add\n        /* \"#utility.yul\":4956:4987   */\n      calldataload\n        /* \"#utility.yul\":5014:5032   */\n      0xffffffffffffffff\n        /* \"#utility.yul\":5006:5012   */\n      dup2\n        /* \"#utility.yul\":5003:5033   */\n      gt\n        /* \"#utility.yul\":5000:5117   */\n      iszero\n      tag_149\n      jumpi\n        /* \"#utility.yul\":5036:5115   */\n      tag_150\n      tag_53\n      jump\t// in\n    tag_150:\n        /* \"#utility.yul\":5000:5117   */\n    tag_149:\n        /* \"#utility.yul\":5141:5204   */\n      tag_151\n        /* \"#utility.yul\":5196:5203   */\n      dup5\n        /* \"#utility.yul\":5187:5193   */\n      dup3\n        /* \"#utility.yul\":5176:5185   */\n      dup6\n        /* \"#utility.yul\":5172:5194   */\n      add\n        /* \"#utility.yul\":5141:5204   */\n      tag_71\n      jump\t// in\n    tag_151:\n        /* \"#utility.yul\":5131:5204   */\n      swap2\n      pop\n        /* \"#utility.yul\":4927:5214   */\n      pop\n        /* \"#utility.yul\":4712:5221   */\n      swap3\n      swap2\n      pop\n      pop\n      jump\t// out\n        /* \"#utility.yul\":5227:5449   */\n    tag_18:\n        /* \"#utility.yul\":5320:5324   */\n      0x00\n        /* \"#utility.yul\":5358:5360   */\n      0x20\n        /* \"#utility.yul\":5347:5356   */\n      dup3\n        /* \"#utility.yul\":5343:5361   */\n      add\n        /* \"#utility.yul\":5335:5361   */\n      swap1\n      pop\n        /* \"#utility.yul\":5371:5442   */\n      tag_153\n        /* \"#utility.yul\":5439:5440   */\n      0x00\n        /* \"#utility.yul\":5428:5437   */\n      dup4\n        /* \"#utility.yul\":5424:5441   */\n      add\n        /* \"#utility.yul\":5415:5421   */\n      dup5\n        /* \"#utility.yul\":5371:5442   */\n      tag_62\n      jump\t// in\n    tag_153:\n        /* \"#utility.yul\":5227:5449   */\n      swap3\n      swap2\n      pop\n      pop\n      jump\t// out\n        /* \"#utility.yul\":5455:6109   */\n    tag_25:\n        /* \"#utility.yul\":5533:5539   */\n      0x00\n        /* \"#utility.yul\":5541:5547   */\n      dup1\n        /* \"#utility.yul\":5590:5592   */\n      0x40\n        /* \"#utility.yul\":5578:5587   */\n      dup4\n        /* \"#utility.yul\":5569:5576   */\n      dup6\n        /* \"#utility.yul\":5565:5588   */\n      sub\n        /* \"#utility.yul\":5561:5593   */\n      slt\n        /* \"#utility.yul\":5558:5677   */\n      iszero\n      tag_155\n      jumpi\n        /* \"#utility.yul\":5596:5675   */\n      tag_156\n      tag_52\n      jump\t// in\n    tag_156:\n        /* \"#utility.yul\":5558:5677   */\n    tag_155:\n        /* \"#utility.yul\":5744:5745   */\n      0x00\n        /* \"#utility.yul\":5733:5742   */\n      dup4\n        /* \"#utility.yul\":5729:5746   */\n      add\n        /* \"#utility.yul\":5716:5747   */\n      calldataload\n        /* \"#utility.yul\":5774:5792   */\n      0xffffffffffffffff\n        /* \"#utility.yul\":5766:5772   */\n      dup2\n        /* \"#utility.yul\":5763:5793   */\n      gt\n        /* \"#utility.yul\":5760:5877   */\n      iszero\n      tag_157\n      jumpi\n        /* \"#utility.yul\":5796:5875   */\n      tag_158\n      tag_53\n      jump\t// in\n    tag_158:\n        /* \"#utility.yul\":5760:5877   */\n    tag_157:\n        /* \"#utility.yul\":5901:5964   */\n      tag_159\n        /* \"#utility.yul\":5956:5963   */\n      dup6\n        /* \"#utility.yul\":5947:5953   */\n      dup3\n        /* \"#utility.yul\":5936:5945   */\n      dup7\n        /* \"#utility.yul\":5932:5954   */\n      add\n        /* \"#utility.yul\":5901:5964   */\n      tag_71\n      jump\t// in\n    tag_159:\n        /* \"#utility.yul\":5891:5964   */\n      swap3\n      pop\n        /* \"#utility.yul\":5687:5974   */\n      pop\n        /* \"#utility.yul\":6013:6015   */\n      0x20\n        /* \"#utility.yul\":6039:6092   */\n      tag_160\n        /* \"#utility.yul\":6084:6091   */\n      dup6\n        /* \"#utility.yul\":6075:6081   */\n      dup3\n        /* \"#utility.yul\":6064:6073   */\n      dup7\n        /* \"#utility.yul\":6060:6082   */\n      add\n        /* \"#utility.yul\":6039:6092   */\n      tag_56\n      jump\t// in\n    tag_160:\n        /* \"#utility.yul\":6029:6092   */\n      swap2\n      pop\n        /* \"#utility.yul\":5984:6102   */\n      pop\n        /* \"#utility.yul\":5455:6109   */\n      swap3\n      pop\n      swap3\n      swap1\n      pop\n      jump\t// out\n        /* \"#utility.yul\":6115:6295   */\n    tag_30:\n        /* \"#utility.yul\":6163:6240   */\n      0x4e487b7100000000000000000000000000000000000000000000000000000000\n        /* \"#utility.yul\":6160:6161   */\n      0x00\n        /* \"#utility.yul\":6153:6241   */\n      mstore\n        /* \"#utility.yul\":6260:6264   */\n      0x32\n        /* \"#utility.yul\":6257:6258   */\n      0x04\n        /* \"#utility.yul\":6250:6265   */\n      mstore\n        /* \"#utility.yul\":6284:6288   */\n      0x24\n        /* \"#utility.yul\":6281:6282   */\n      0x00\n        /* \"#utility.yul\":6274:6289   */\n      revert\n        /* \"#utility.yul\":6301:6481   */\n    tag_72:\n        /* \"#utility.yul\":6349:6426   */\n      0x4e487b7100000000000000000000000000000000000000000000000000000000\n        /* \"#utility.yul\":6346:6347   */\n      0x00\n        /* \"#utility.yul\":6339:6427   */\n      mstore\n        /* \"#utility.yul\":6446:6450   */\n      0x22\n        /* \"#utility.yul\":6443:6444   */\n      0x04\n        /* \"#utility.yul\":6436:6451   */\n      mstore\n        /* \"#utility.yul\":6470:6474   */\n      0x24\n        /* \"#utility.yul\":6467:6468   */\n      0x00\n        /* \"#utility.yul\":6460:6475   */\n      revert\n        /* \"#utility.yul\":6487:6807   */\n    tag_33:\n        /* \"#utility.yul\":6531:6537   */\n      0x00\n        /* \"#utility.yul\":6568:6569   */\n      0x02\n        /* \"#utility.yul\":6562:6566   */\n      dup3\n        /* \"#utility.yul\":6558:6570   */\n      div\n        /* \"#utility.yul\":6548:6570   */\n      swap1\n      pop\n        /* \"#utility.yul\":6615:6616   */\n      0x01\n        /* \"#utility.yul\":6609:6613   */\n      dup3\n        /* \"#utility.yul\":6605:6617   */\n      and\n        /* \"#utility.yul\":6636:6654   */\n      dup1\n        /* \"#utility.yul\":6626:6707   */\n      tag_164\n      jumpi\n        /* \"#utility.yul\":6692:6696   */\n      0x7f\n        /* \"#utility.yul\":6684:6690   */\n      dup3\n        /* \"#utility.yul\":6680:6697   */\n      and\n        /* \"#utility.yul\":6670:6697   */\n      swap2\n      pop\n        /* \"#utility.yul\":6626:6707   */\n    tag_164:\n        /* \"#utility.yul\":6754:6756   */\n      0x20\n        /* \"#utility.yul\":6746:6752   */\n      dup3\n        /* \"#utility.yul\":6743:6757   */\n      lt\n        /* \"#utility.yul\":6723:6741   */\n      dup2\n        /* \"#utility.yul\":6720:6758   */\n      sub\n        /* \"#utility.yul\":6717:6801   */\n      tag_165\n      jumpi\n        /* \"#utility.yul\":6773:6791   */\n      tag_166\n      tag_72\n      jump\t// in\n    tag_166:\n        /* \"#utility.yul\":6717:6801   */\n    tag_165:\n        /* \"#utility.yul\":6538:6807   */\n      pop\n        /* \"#utility.yul\":6487:6807   */\n      swap2\n      swap1\n      pop\n      jump\t// out\n        /* \"#utility.yul\":6813:6954   */\n    tag_73:\n        /* \"#utility.yul\":6862:6866   */\n      0x00\n        /* \"#utility.yul\":6885:6888   */\n      dup2\n        /* \"#utility.yul\":6877:6888   */\n      swap1\n      pop\n        /* \"#utility.yul\":6908:6911   */\n      dup2\n        /* \"#utility.yul\":6905:6906   */\n      0x00\n        /* \"#utility.yul\":6898:6912   */\n      mstore\n        /* \"#utility.yul\":6942:6946   */\n      0x20\n        /* \"#utility.yul\":6939:6940   */\n      0x00\n        /* \"#utility.yul\":6929:6947   */\n      keccak256\n        /* \"#utility.yul\":6921:6947   */\n      swap1\n      pop\n        /* \"#utility.yul\":6813:6954   */\n      swap2\n      swap1\n      pop\n      jump\t// out\n        /* \"#utility.yul\":6960:7053   */\n    tag_74:\n        /* \"#utility.yul\":6997:7003   */\n      0x00\n        /* \"#utility.yul\":7044:7046   */\n      0x20\n        /* \"#utility.yul\":7039:7041   */\n      0x1f\n        /* \"#utility.yul\":7032:7037   */\n      dup4\n        /* \"#utility.yul\":7028:7042   */\n      add\n        /* \"#utility.yul\":7024:7047   */\n      div\n        /* \"#utility.yul\":7014:7047   */\n      swap1\n      pop\n        /* \"#utility.yul\":6960:7053   */\n      swap2\n      swap1\n      pop\n      jump\t// out\n        /* \"#utility.yul\":7059:7166   */\n    tag_75:\n        /* \"#utility.yul\":7103:7111   */\n      0x00\n        /* \"#utility.yul\":7153:7158   */\n      dup3\n        /* \"#utility.yul\":7147:7151   */\n      dup3\n        /* \"#utility.yul\":7143:7159   */\n      shl\n        /* \"#utility.yul\":7122:7159   */\n      swap1\n      pop\n        /* \"#utility.yul\":7059:7166   */\n      swap3\n      swap2\n      pop\n      pop\n      jump\t// out\n        /* \"#utility.yul\":7172:7565   */\n    tag_76:\n        /* \"#utility.yul\":7241:7247   */\n      0x00\n        /* \"#utility.yul\":7291:7292   */\n      0x08\n        /* \"#utility.yul\":7279:7289   */\n      dup4\n        /* \"#utility.yul\":7275:7293   */\n      mul\n        /* \"#utility.yul\":7314:7411   */\n      tag_171\n        /* \"#utility.yul\":7344:7410   */\n      0xffffffffffffffffffffffffffffffffffffffffffffffffffffffffffffffff\n        /* \"#utility.yul\":7333:7342   */\n      dup3\n        /* \"#utility.yul\":7314:7411   */\n      tag_75\n      jump\t// in\n    tag_171:\n        /* \"#utility.yul\":7432:7471   */\n      tag_172\n        /* \"#utility.yul\":7462:7470   */\n      dup7\n        /* \"#utility.yul\":7451:7460   */\n      dup4\n        /* \"#utility.yul\":7432:7471   */\n      tag_75\n      jump\t// in\n    tag_172:\n        /* \"#utility.yul\":7420:7471   */\n      swap6\n      pop\n        /* \"#utility.yul\":7504:7508   */\n      dup1\n        /* \"#utility.yul\":7500:7509   */\n      not\n        /* \"#utility.yul\":7493:7498   */\n      dup5\n        /* \"#utility.yul\":7489:7510   */\n      and\n        /* \"#utility.yul\":7480:7510   */\n      swap4\n      pop\n        /* \"#utility.yul\":7553:7557   */\n      dup1\n        /* \"#utility.yul\":7543:7551   */\n      dup7\n        /* \"#utility.yul\":7539:7558   */\n      and\n        /* \"#utility.yul\":7532:7537   */\n      dup5\n        /* \"#utility.yul\":7529:7559   */\n      or\n        /* \"#utility.yul\":7519:7559   */\n      swap3\n      pop\n        /* \"#utility.yul\":7248:7565   */\n      pop\n      pop\n        /* \"#utility.yul\":7172:7565   */\n      swap4\n      swap3\n      pop\n      pop\n      pop\n      jump\t// out\n        /* \"#utility.yul\":7571:7631   */\n    tag_77:\n        /* \"#utility.yul\":7599:7602   */\n      0x00\n        /* \"#utility.yul\":7620:7625   */\n      dup2\n        /* \"#utility.yul\":7613:7625   */\n      swap1\n      pop\n        /* \"#utility.yul\":7571:7631   */\n      swap2\n      swap1\n      pop\n      jump\t// out\n        /* \"#utility.yul\":7637:7779   */\n    tag_78:\n        /* \"#utility.yul\":7687:7696   */\n      0x00\n        /* \"#utility.yul\":7720:7773   */\n      tag_175\n        /* \"#utility.yul\":7738:7772   */\n      tag_176\n        /* \"#utility.yul\":7747:7771   */\n      tag_177\n        /* \"#utility.yul\":7765:7770   */\n      dup5\n        /* \"#utility.yul\":7747:7771   */\n      tag_54\n      jump\t// in\n    tag_177:\n        /* \"#utility.yul\":7738:7772   */\n      tag_77\n      jump\t// in\n    tag_176:\n        /* \"#utility.yul\":7720:7773   */\n      tag_54\n      jump\t// in\n    tag_175:\n        /* \"#utility.yul\":7707:7773   */\n      swap1\n      pop\n        /* \"#utility.yul\":7637:7779   */\n      swap2\n      swap1\n      pop\n      jump\t// out\n        /* \"#utility.yul\":7785:7860   */\n    tag_79:\n        /* \"#utility.yul\":7828:7831   */\n      0x00\n        /* \"#utility.yul\":7849:7854   */\n      dup2\n        /* \"#utility.yul\":7842:7854   */\n      swap1\n      pop\n        /* \"#utility.yul\":7785:7860   */\n      swap2\n      swap1\n      pop\n      jump\t// out\n        /* \"#utility.yul\":7866:8135   */\n    tag_80:\n        /* \"#utility.yul\":7976:8015   */\n      tag_180\n        /* \"#utility.yul\":8007:8014   */\n      dup4\n        /* \"#utility.yul\":7976:8015   */\n      tag_78\n      jump\t// in\n    tag_180:\n        /* \"#utility.yul\":8037:8128   */\n      tag_181\n        /* \"#utility.yul\":8086:8127   */\n      tag_182\n        /* \"#utility.yul\":8110:8126   */\n      dup3\n        /* \"#utility.yul\":8086:8127   */\n      tag_79\n      jump\t// in\n    tag_182:\n        /* \"#utility.yul\":8078:8084   */\n      dup5\n        /* \"#utility.yul\":8071:8075   */\n      dup5\n        /* \"#utility.yul\":8065:8076   */\n      sload\n        /* \"#utility.yul\":8037:8128   */\n      tag_76\n      jump\t// in\n    tag_181:\n        /* \"#utility.yul\":8031:8035   */\n      dup3\n        /* \"#utility.yul\":8024:8129   */\n      sstore\n        /* \"#utility.yul\":7942:8135   */\n      pop\n        /* \"#utility.yul\":7866:8135   */\n      pop\n      pop\n      pop\n      jump\t// out\n        /* \"#utility.yul\":8141:8214   */\n    tag_81:\n        /* \"#utility.yul\":8186:8189   */\n      0x00\n        /* \"#utility.yul\":8141:8214   */\n      swap1\n      jump\t// out\n        /* \"#utility.yul\":8220:8409   */\n    tag_82:\n        /* \"#utility.yul\":8297:8329   */\n      tag_185\n      tag_81\n      jump\t// in\n    tag_185:\n        /* \"#utility.yul\":8338:8403   */\n      tag_186\n        /* \"#utility.yul\":8396:8402   */\n      dup2\n        /* \"#utility.yul\":8388:8394   */\n      dup5\n        /* \"#utility.yul\":8382:8386   */\n      dup5\n        /* \"#utility.yul\":8338:8403   */\n      tag_80\n      jump\t// in\n    tag_186:\n        /* \"#utility.yul\":8273:8409   */\n      pop\n        /* \"#utility.yul\":8220:8409   */\n      pop\n      pop\n      jump\t// out\n        /* \"#utility.yul\":8415:8601   */\n    tag_83:\n        /* \"#utility.yul\":8475:8595   */\n    tag_188:\n        /* \"#utility.yul\":8492:8495   */\n      dup2\n        /* \"#utility.yul\":8485:8490   */\n      dup2\n        /* \"#utility.yul\":8482:8496   */\n      lt\n        /* \"#utility.yul\":8475:8595   */\n      iszero\n      tag_190\n      jumpi\n        /* \"#utility.yul\":8546:8585   */\n      tag_191\n        /* \"#utility.yul\":8583:8584   */\n      0x00\n        /* \"#utility.yul\":8576:8581   */\n      dup3\n        /* \"#utility.yul\":8546:8585   */\n      tag_82\n      jump\t// in\n    tag_191:\n        /* \"#utility.yul\":8519:8520   */\n      0x01\n        /* \"#utility.yul\":8512:8517   */\n      dup2\n        /* \"#utility.yul\":8508:8521   */\n      add\n        /* \"#utility.yul\":8499:8521   */\n      swap1\n      pop\n        /* \"#utility.yul\":8475:8595   */\n      jump(tag_188)\n    tag_190:\n        /* \"#utility.yul\":8415:8601   */\n      pop\n      pop\n      jump\t// out\n        /* \"#utility.yul\":8607:9150   */\n    tag_84:\n        /* \"#utility.yul\":8708:8710   */\n      0x1f\n        /* \"#utility.yul\":8703:8706   */\n      dup3\n        /* \"#utility.yul\":8700:8711   */\n      gt\n        /* \"#utility.yul\":8697:9143   */\n      iszero\n      tag_193\n      jumpi\n        /* \"#utility.yul\":8742:8780   */\n      tag_194\n        /* \"#utility.yul\":8774:8779   */\n      dup2\n        /* \"#utility.yul\":8742:8780   */\n      tag_73\n      jump\t// in\n    tag_194:\n        /* \"#utility.yul\":8826:8855   */\n      tag_195\n        /* \"#utility.yul\":8844:8854   */\n      dup5\n        /* \"#utility.yul\":8826:8855   */\n      tag_74\n      jump\t// in\n    tag_195:\n        /* \"#utility.yul\":8816:8824   */\n      dup2\n        /* \"#utility.yul\":8812:8856   */\n      add\n        /* \"#utility.yul\":9009:9011   */\n      0x20\n        /* \"#utility.yul\":8997:9007   */\n      dup6\n        /* \"#utility.yul\":8994:9012   */\n      lt\n        /* \"#utility.yul\":8991:9040   */\n      iszero\n      tag_196\n      jumpi\n        /* \"#utility.yul\":9030:9038   */\n      dup2\n        /* \"#utility.yul\":9015:9038   */\n      swap1\n      pop\n        /* \"#utility.yul\":8991:9040   */\n    tag_196:\n        /* \"#utility.yul\":9053:9133   */\n      tag_197\n        /* \"#utility.yul\":9109:9131   */\n      tag_198\n        /* \"#utility.yul\":9127:9130   */\n      dup6\n        /* \"#utility.yul\":9109:9131   */\n      tag_74\n      jump\t// in\n    tag_198:\n        /* \"#utility.yul\":9099:9107   */\n      dup4\n        /* \"#utility.yul\":9095:9132   */\n      add\n        /* \"#utility.yul\":9082:9093   */\n      dup3\n        /* \"#utility.yul\":9053:9133   */\n      tag_83\n      jump\t// in\n    tag_197:\n        /* \"#utility.yul\":8712:9143   */\n      pop\n      pop\n        /* \"#utility.yul\":8697:9143   */\n    tag_193:\n        /* \"#utility.yul\":8607:9150   */\n      pop\n      pop\n      pop\n      jump\t// out\n        /* \"#utility.yul\":9156:9273   */\n    tag_85:\n        /* \"#utility.yul\":9210:9218   */\n      0x00\n        /* \"#utility.yul\":9260:9265   */\n      dup3\n        /* \"#utility.yul\":9254:9258   */\n      dup3\n        /* \"#utility.yul\":9250:9266   */\n      shr\n        /* \"#utility.yul\":9229:9266   */\n      swap1\n      pop\n        /* \"#utility.yul\":9156:9273   */\n      swap3\n      swap2\n      pop\n      pop\n      jump\t// out\n        /* \"#utility.yul\":9279:9448   */\n    tag_86:\n        /* \"#utility.yul\":9323:9329   */\n      0x00\n        /* \"#utility.yul\":9356:9407   */\n      tag_201\n        /* \"#utility.yul\":9404:9405   */\n      0x00\n        /* \"#utility.yul\":9400:9406   */\n      not\n        /* \"#utility.yul\":9392:9397   */\n      dup5\n        /* \"#utility.yul\":9389:9390   */\n      0x08\n        /* \"#utility.yul\":9385:9398   */\n      mul\n        /* \"#utility.yul\":9356:9407   */\n      tag_85\n      jump\t// in\n    tag_201:\n        /* \"#utility.yul\":9352:9408   */\n      not\n        /* \"#utility.yul\":9437:9441   */\n      dup1\n        /* \"#utility.yul\":9431:9435   */\n      dup4\n        /* \"#utility.yul\":9427:9442   */\n      and\n        /* \"#utility.yul\":9417:9442   */\n      swap2\n      pop\n        /* \"#utility.yul\":9330:9448   */\n      pop\n        /* \"#utility.yul\":9279:9448   */\n      swap3\n      swap2\n      pop\n      pop\n      jump\t// out\n        /* \"#utility.yul\":9453:9748   */\n    tag_87:\n        /* \"#utility.yul\":9529:9533   */\n      0x00\n        /* \"#utility.yul\":9675:9704   */\n      tag_203\n        /* \"#utility.yul\":9700:9703   */\n      dup4\n        /* \"#utility.yul\":9694:9698   */\n      dup4\n        /* \"#utility.yul\":9675:9704   */\n      tag_86\n      jump\t// in\n    tag_203:\n        /* \"#utility.yul\":9667:9704   */\n      swap2\n      pop\n        /* \"#utility.yul\":9737:9740   */\n      dup3\n        /* \"#utility.yul\":9734:9735   */\n      0x02\n        /* \"#utility.yul\":9730:9741   */\n      mul\n        /* \"#utility.yul\":9724:9728   */\n      dup3\n        /* \"#utility.yul\":9721:9742   */\n      or\n        /* \"#utility.yul\":9713:9742   */\n      swap1\n      pop\n        /* \"#utility.yul\":9453:9748   */\n      swap3\n      swap2\n      pop\n      pop\n      jump\t// out\n        /* \"#utility.yul\":9753:11148   */\n    tag_48:\n        /* \"#utility.yul\":9870:9907   */\n      tag_205\n        /* \"#utility.yul\":9903:9906   */\n      dup3\n        /* \"#utility.yul\":9870:9907   */\n      tag_57\n      jump\t// in\n    tag_205:\n        /* \"#utility.yul\":9972:9990   */\n      0xffffffffffffffff\n        /* \"#utility.yul\":9964:9970   */\n      dup2\n        /* \"#utility.yul\":9961:9991   */\n      gt\n        /* \"#utility.yul\":9958:10014   */\n      iszero\n      tag_206\n      jumpi\n        /* \"#utility.yul\":9994:10012   */\n      tag_207\n      tag_65\n      jump\t// in\n    tag_207:\n        /* \"#utility.yul\":9958:10014   */\n    tag_206:\n        /* \"#utility.yul\":10038:10076   */\n      tag_208\n        /* \"#utility.yul\":10070:10074   */\n      dup3\n        /* \"#utility.yul\":10064:10075   */\n      sload\n        /* \"#utility.yul\":10038:10076   */\n      tag_33\n      jump\t// in\n    tag_208:\n        /* \"#utility.yul\":10123:10190   */\n      tag_209\n        /* \"#utility.yul\":10183:10189   */\n      dup3\n        /* \"#utility.yul\":10175:10181   */\n      dup3\n        /* \"#utility.yul\":10169:10173   */\n      dup6\n        /* \"#utility.yul\":10123:10190   */\n      tag_84\n      jump\t// in\n    tag_209:\n        /* \"#utility.yul\":10217:10218   */\n      0x00\n        /* \"#utility.yul\":10241:10245   */\n      0x20\n        /* \"#utility.yul\":10228:10245   */\n      swap1\n      pop\n        /* \"#utility.yul\":10273:10275   */\n      0x1f\n        /* \"#utility.yul\":10265:10271   */\n      dup4\n        /* \"#utility.yul\":10262:10276   */\n      gt\n        /* \"#utility.yul\":10290:10291   */\n      0x01\n        /* \"#utility.yul\":10285:10903   */\n      dup2\n      eq\n      tag_211\n      jumpi\n        /* \"#utility.yul\":10947:10948   */\n      0x00\n        /* \"#utility.yul\":10964:10970   */\n      dup5\n        /* \"#utility.yul\":10961:11038   */\n      iszero\n      tag_212\n      jumpi\n        /* \"#utility.yul\":11013:11022   */\n      dup3\n        /* \"#utility.yul\":11008:11011   */\n      dup8\n        /* \"#utility.yul\":11004:11023   */\n      add\n        /* \"#utility.yul\":10998:11024   */\n      mload\n        /* \"#utility.yul\":10989:11024   */\n      swap1\n      pop\n        /* \"#utility.yul\":10961:11038   */\n    tag_212:\n        /* \"#utility.yul\":11064:11131   */\n      tag_213\n        /* \"#utility.yul\":11124:11130   */\n      dup6\n        /* \"#utility.yul\":11117:11122   */\n      dup3\n        /* \"#utility.yul\":11064:11131   */\n      tag_87\n      jump\t// in\n    tag_213:\n        /* \"#utility.yul\":11058:11062   */\n      dup7\n        /* \"#utility.yul\":11051:11132   */\n      sstore\n        /* \"#utility.yul\":10920:11142   */\n      pop\n        /* \"#utility.yul\":10255:11142   */\n      jump(tag_210)\n        /* \"#utility.yul\":10285:10903   */\n    tag_211:\n        /* \"#utility.yul\":10337:10341   */\n      0x1f\n        /* \"#utility.yul\":10333:10342   */\n      not\n        /* \"#utility.yul\":10325:10331   */\n      dup5\n        /* \"#utility.yul\":10321:10343   */\n      and\n        /* \"#utility.yul\":10371:10408   */\n      tag_214\n        /* \"#utility.yul\":10403:10407   */\n      dup7\n        /* \"#utility.yul\":10371:10408   */\n      tag_73\n      jump\t// in\n    tag_214:\n        /* \"#utility.yul\":10430:10431   */\n      0x00\n        /* \"#utility.yul\":10444:10652   */\n    tag_215:\n        /* \"#utility.yul\":10458:10465   */\n      dup3\n        /* \"#utility.yul\":10455:10456   */\n      dup2\n        /* \"#utility.yul\":10452:10466   */\n      lt\n        /* \"#utility.yul\":10444:10652   */\n      iszero\n      tag_217\n      jumpi\n        /* \"#utility.yul\":10537:10546   */\n      dup5\n        /* \"#utility.yul\":10532:10535   */\n      dup10\n        /* \"#utility.yul\":10528:10547   */\n      add\n        /* \"#utility.yul\":10522:10548   */\n      mload\n        /* \"#utility.yul\":10514:10520   */\n      dup3\n        /* \"#utility.yul\":10507:10549   */\n      sstore\n        /* \"#utility.yul\":10588:10589   */\n      0x01\n        /* \"#utility.yul\":10580:10586   */\n      dup3\n        /* \"#utility.yul\":10576:10590   */\n      add\n        /* \"#utility.yul\":10566:10590   */\n      swap2\n      pop\n        /* \"#utility.yul\":10635:10637   */\n      0x20\n        /* \"#utility.yul\":10624:10633   */\n      dup6\n        /* \"#utility.yul\":10620:10638   */\n      add\n        /* \"#utility.yul\":10607:10638   */\n      swap5\n      pop\n        /* \"#utility.yul\":10481:10485   */\n      0x20\n        /* \"#utility.yul\":10478:10479   */\n      dup2\n        /* \"#utility.yul\":10474:10486   */\n      add\n        /* \"#utility.yul\":10469:10486   */\n      swap1\n      pop\n        /* \"#utility.yul\":10444:10652   */\n      jump(tag_215)\n    tag_217:\n        /* \"#utility.yul\":10680:10686   */\n      dup7\n        /* \"#utility.yul\":10671:10678   */\n      dup4\n        /* \"#utility.yul\":10668:10687   */\n      lt\n        /* \"#utility.yul\":10665:10844   */\n      iszero\n      tag_218\n      jumpi\n        /* \"#utility.yul\":10738:10747   */\n      dup5\n        /* \"#utility.yul\":10733:10736   */\n      dup10\n        /* \"#utility.yul\":10729:10748   */\n      add\n        /* \"#utility.yul\":10723:10749   */\n      mload\n        /* \"#utility.yul\":10781:10829   */\n      tag_219\n        /* \"#utility.yul\":10823:10827   */\n      0x1f\n        /* \"#utility.yul\":10815:10821   */\n      dup10\n        /* \"#utility.yul\":10811:10828   */\n      and\n        /* \"#utility.yul\":10800:10809   */\n      dup3\n        /* \"#utility.yul\":10781:10829   */\n      tag_86\n      jump\t// in\n    tag_219:\n        /* \"#utility.yul\":10773:10779   */\n      dup4\n        /* \"#utility.yul\":10766:10830   */\n      sstore\n        /* \"#utility.yul\":10688:10844   */\n      pop\n        /* \"#utility.yul\":10665:10844   */\n    tag_218:\n        /* \"#utility.yul\":10890:10891   */\n      0x01\n        /* \"#utility.yul\":10886:10887   */\n      0x02\n        /* \"#utility.yul\":10878:10884   */\n      dup9\n        /* \"#utility.yul\":10874:10888   */\n      mul\n        /* \"#utility.yul\":10870:10892   */\n      add\n        /* \"#utility.yul\":10864:10868   */\n      dup9\n        /* \"#utility.yul\":10857:10893   */\n      sstore\n        /* \"#utility.yul\":10292:10903   */\n      pop\n      pop\n      pop\n        /* \"#utility.yul\":10255:11142   */\n    tag_210:\n      pop\n        /* \"#utility.yul\":9845:11148   */\n      pop\n      pop\n      pop\n        /* \"#utility.yul\":9753:11148   */\n      pop\n      pop\n      jump\t// out\n        /* \"#utility.yul\":11154:11302   */\n    tag_88:\n        /* \"#utility.yul\":11256:11267   */\n      0x00\n        /* \"#utility.yul\":11293:11296   */\n      dup2\n        /* \"#utility.yul\":11278:11296   */\n      swap1\n      pop\n        /* \"#utility.yul\":11154:11302   */\n      swap3\n      swap2\n      pop\n      pop\n      jump\t// out\n        /* \"#utility.yul\":11308:11698   */\n    tag_89:\n        /* \"#utility.yul\":11414:11417   */\n      0x00\n        /* \"#utility.yul\":11442:11481   */\n      tag_222\n        /* \"#utility.yul\":11475:11480   */\n      dup3\n        /* \"#utility.yul\":11442:11481   */\n      tag_57\n      jump\t// in\n    tag_222:\n        /* \"#utility.yul\":11497:11586   */\n      tag_223\n        /* \"#utility.yul\":11579:11585   */\n      dup2\n        /* \"#utility.yul\":11574:11577   */\n      dup6\n        /* \"#utility.yul\":11497:11586   */\n      tag_88\n      jump\t// in\n    tag_223:\n        /* \"#utility.yul\":11490:11586   */\n      swap4\n      pop\n        /* \"#utility.yul\":11595:11660   */\n      tag_224\n        /* \"#utility.yul\":11653:11659   */\n      dup2\n        /* \"#utility.yul\":11648:11651   */\n      dup6\n        /* \"#utility.yul\":11641:11645   */\n      0x20\n        /* \"#utility.yul\":11634:11639   */\n      dup7\n        /* \"#utility.yul\":11630:11646   */\n      add\n        /* \"#utility.yul\":11595:11660   */\n      tag_59\n      jump\t// in\n    tag_224:\n        /* \"#utility.yul\":11685:11691   */\n      dup1\n        /* \"#utility.yul\":11680:11683   */\n      dup5\n        /* \"#utility.yul\":11676:11692   */\n      add\n        /* \"#utility.yul\":11669:11692   */\n      swap2\n      pop\n        /* \"#utility.yul\":11418:11698   */\n      pop\n        /* \"#utility.yul\":11308:11698   */\n      swap3\n      swap2\n      pop\n      pop\n      jump\t// out\n        /* \"#utility.yul\":11704:11979   */\n    tag_50:\n        /* \"#utility.yul\":11836:11839   */\n      0x00\n        /* \"#utility.yul\":11858:11953   */\n      tag_226\n        /* \"#utility.yul\":11949:11952   */\n      dup3\n        /* \"#utility.yul\":11940:11946   */\n      dup5\n        /* \"#utility.yul\":11858:11953   */\n      tag_89\n      jump\t// in\n    tag_226:\n        /* \"#utility.yul\":11851:11953   */\n      swap2\n      pop\n        /* \"#utility.yul\":11970:11973   */\n      dup2\n        /* \"#utility.yul\":11963:11973   */\n      swap1\n      pop\n        /* \"#utility.yul\":11704:11979   */\n      swap3\n      swap2\n      pop\n      pop\n      jump\t// out\n\n    auxdata: 0xa26469706673582212204988872eea33775a69f68541be4a51ed183ff0b3ca1f2be1c65c74b0dc72449a64736f6c63430008120033\n}\n",
				"bytecode": {
					"linkReferences": {},
					"object": "608060405234801561001057600080fd5b50610a27806100206000396000f3fe608060405234801561001057600080fd5b506004361061004c5760003560e01c8063b0467deb14610051578063d3f1b16f14610082578063e665bbf1146100b2578063f48ea23a146100e3575b600080fd5b61006b600480360381019061006691906103a0565b6100ff565b60405161007992919061046c565b60405180910390f35b61009c600480360381019061009791906105d1565b6101e3565b6040516100a9919061061a565b60405180910390f35b6100cc60048036038101906100c791906103a0565b610211565b6040516100da92919061046c565b60405180910390f35b6100fd60048036038101906100f89190610635565b6102cd565b005b60606000806000848154811061011857610117610691565b5b9060005260206000209060020201604051806040016040529081600082018054610141906106ef565b80601f016020809104026020016040519081016040528092919081815260200182805461016d906106ef565b80156101ba5780601f1061018f576101008083540402835291602001916101ba565b820191906000526020600020905b81548152906001019060200180831161019d57829003601f168201915b505050505081526020016001820154815250509050806000015181602001519250925050915091565b6001818051602081018201805184825260208301602085012081835280955050505050506000915090505481565b6000818154811061022157600080fd5b9060005260206000209060020201600091509050806000018054610244906106ef565b80601f0160208091040260200160405190810160405280929190818152602001828054610270906106ef565b80156102bd5780601f10610292576101008083540402835291602001916102bd565b820191906000526020600020905b8154815290600101906020018083116102a057829003601f168201915b5050505050908060010154905082565b60006040518060400160405280848152602001838152509080600181540180825580915050600190039060005260206000209060020201600090919091909150600082015181600001908161032291906108cc565b506020820151816001015550508060018360405161034091906109da565b9081526020016040518091039020819055505050565b6000604051905090565b600080fd5b600080fd5b6000819050919050565b61037d8161036a565b811461038857600080fd5b50565b60008135905061039a81610374565b92915050565b6000602082840312156103b6576103b5610360565b5b60006103c48482850161038b565b91505092915050565b600081519050919050565b600082825260208201905092915050565b60005b838110156104075780820151818401526020810190506103ec565b60008484015250505050565b6000601f19601f8301169050919050565b600061042f826103cd565b61043981856103d8565b93506104498185602086016103e9565b61045281610413565b840191505092915050565b6104668161036a565b82525050565b600060408201905081810360008301526104868185610424565b9050610495602083018461045d565b9392505050565b600080fd5b600080fd5b7f4e487b7100000000000000000000000000000000000000000000000000000000600052604160045260246000fd5b6104de82610413565b810181811067ffffffffffffffff821117156104fd576104fc6104a6565b5b80604052505050565b6000610510610356565b905061051c82826104d5565b919050565b600067ffffffffffffffff82111561053c5761053b6104a6565b5b61054582610413565b9050602081019050919050565b82818337600083830152505050565b600061057461056f84610521565b610506565b9050828152602081018484840111156105905761058f6104a1565b5b61059b848285610552565b509392505050565b600082601f8301126105b8576105b761049c565b5b81356105c8848260208601610561565b91505092915050565b6000602082840312156105e7576105e6610360565b5b600082013567ffffffffffffffff81111561060557610604610365565b5b610611848285016105a3565b91505092915050565b600060208201905061062f600083018461045d565b92915050565b6000806040838503121561064c5761064b610360565b5b600083013567ffffffffffffffff81111561066a57610669610365565b5b610676858286016105a3565b92505060206106878582860161038b565b9150509250929050565b7f4e487b7100000000000000000000000000000000000000000000000000000000600052603260045260246000fd5b7f4e487b7100000000000000000000000000000000000000000000000000000000600052602260045260246000fd5b6000600282049050600182168061070757607f821691505b60208210810361071a576107196106c0565b5b50919050565b60008190508160005260206000209050919050565b60006020601f8301049050919050565b600082821b905092915050565b6000600883026107827fffffffffffffffffffffffffffffffffffffffffffffffffffffffffffffffff82610745565b61078c8683610745565b95508019841693508086168417925050509392505050565b6000819050919050565b60006107c96107c46107bf8461036a565b6107a4565b61036a565b9050919050565b6000819050919050565b6107e3836107ae565b6107f76107ef826107d0565b848454610752565b825550505050565b600090565b61080c6107ff565b6108178184846107da565b505050565b5b8181101561083b57610830600082610804565b60018101905061081d565b5050565b601f8211156108805761085181610720565b61085a84610735565b81016020851015610869578190505b61087d61087585610735565b83018261081c565b50505b505050565b600082821c905092915050565b60006108a360001984600802610885565b1980831691505092915050565b60006108bc8383610892565b9150826002028217905092915050565b6108d5826103cd565b67ffffffffffffffff8111156108ee576108ed6104a6565b5b6108f882546106ef565b61090382828561083f565b600060209050601f8311600181146109365760008415610924578287015190505b61092e85826108b0565b865550610996565b601f19841661094486610720565b60005b8281101561096c57848901518255600182019150602085019450602081019050610947565b868310156109895784890151610985601f891682610892565b8355505b6001600288020188555050505b505050505050565b600081905092915050565b60006109b4826103cd565b6109be818561099e565b93506109ce8185602086016103e9565b80840191505092915050565b60006109e682846109a9565b91508190509291505056fea26469706673582212204988872eea33775a69f68541be4a51ed183ff0b3ca1f2be1c65c74b0dc72449a64736f6c63430008120033",
					"opcodes": "PUSH1 0x80 PUSH1 0x40 MSTORE CALLVALUE DUP1 ISZERO PUSH2 0x10 JUMPI PUSH1 0x0 DUP1 REVERT JUMPDEST POP PUSH2 0xA27 DUP1 PUSH2 0x20 PUSH1 0x0 CODECOPY PUSH1 0x0 RETURN INVALID PUSH1 0x80 PUSH1 0x40 MSTORE CALLVALUE DUP1 ISZERO PUSH2 0x10 JUMPI PUSH1 0x0 DUP1 REVERT JUMPDEST POP PUSH1 0x4 CALLDATASIZE LT PUSH2 0x4C JUMPI PUSH1 0x0 CALLDATALOAD PUSH1 0xE0 SHR DUP1 PUSH4 0xB0467DEB EQ PUSH2 0x51 JUMPI DUP1 PUSH4 0xD3F1B16F EQ PUSH2 0x82 JUMPI DUP1 PUSH4 0xE665BBF1 EQ PUSH2 0xB2 JUMPI DUP1 PUSH4 0xF48EA23A EQ PUSH2 0xE3 JUMPI JUMPDEST PUSH1 0x0 DUP1 REVERT JUMPDEST PUSH2 0x6B PUSH1 0x4 DUP1 CALLDATASIZE SUB DUP2 ADD SWAP1 PUSH2 0x66 SWAP2 SWAP1 PUSH2 0x3A0 JUMP JUMPDEST PUSH2 0xFF JUMP JUMPDEST PUSH1 0x40 MLOAD PUSH2 0x79 SWAP3 SWAP2 SWAP1 PUSH2 0x46C JUMP JUMPDEST PUSH1 0x40 MLOAD DUP1 SWAP2 SUB SWAP1 RETURN JUMPDEST PUSH2 0x9C PUSH1 0x4 DUP1 CALLDATASIZE SUB DUP2 ADD SWAP1 PUSH2 0x97 SWAP2 SWAP1 PUSH2 0x5D1 JUMP JUMPDEST PUSH2 0x1E3 JUMP JUMPDEST PUSH1 0x40 MLOAD PUSH2 0xA9 SWAP2 SWAP1 PUSH2 0x61A JUMP JUMPDEST PUSH1 0x40 MLOAD DUP1 SWAP2 SUB SWAP1 RETURN JUMPDEST PUSH2 0xCC PUSH1 0x4 DUP1 CALLDATASIZE SUB DUP2 ADD SWAP1 PUSH2 0xC7 SWAP2 SWAP1 PUSH2 0x3A0 JUMP JUMPDEST PUSH2 0x211 JUMP JUMPDEST PUSH1 0x40 MLOAD PUSH2 0xDA SWAP3 SWAP2 SWAP1 PUSH2 0x46C JUMP JUMPDEST PUSH1 0x40 MLOAD DUP1 SWAP2 SUB SWAP1 RETURN JUMPDEST PUSH2 0xFD PUSH1 0x4 DUP1 CALLDATASIZE SUB DUP2 ADD SWAP1 PUSH2 0xF8 SWAP2 SWAP1 PUSH2 0x635 JUMP JUMPDEST PUSH2 0x2CD JUMP JUMPDEST STOP JUMPDEST PUSH1 0x60 PUSH1 0x0 DUP1 PUSH1 0x0 DUP5 DUP2 SLOAD DUP2 LT PUSH2 0x118 JUMPI PUSH2 0x117 PUSH2 0x691 JUMP JUMPDEST JUMPDEST SWAP1 PUSH1 0x0 MSTORE PUSH1 0x20 PUSH1 0x0 KECCAK256 SWAP1 PUSH1 0x2 MUL ADD PUSH1 0x40 MLOAD DUP1 PUSH1 0x40 ADD PUSH1 0x40 MSTORE SWAP1 DUP2 PUSH1 0x0 DUP3 ADD DUP1 SLOAD PUSH2 0x141 SWAP1 PUSH2 0x6EF JUMP JUMPDEST DUP1 PUSH1 0x1F ADD PUSH1 0x20 DUP1 SWAP2 DIV MUL PUSH1 0x20 ADD PUSH1 0x40 MLOAD SWAP1 DUP2 ADD PUSH1 0x40 MSTORE DUP1 SWAP3 SWAP2 SWAP1 DUP2 DUP2 MSTORE PUSH1 0x20 ADD DUP3 DUP1 SLOAD PUSH2 0x16D SWAP1 PUSH2 0x6EF JUMP JUMPDEST DUP1 ISZERO PUSH2 0x1BA JUMPI DUP1 PUSH1 0x1F LT PUSH2 0x18F JUMPI PUSH2 0x100 DUP1 DUP4 SLOAD DIV MUL DUP4 MSTORE SWAP2 PUSH1 0x20 ADD SWAP2 PUSH2 0x1BA JUMP JUMPDEST DUP3 ADD SWAP2 SWAP1 PUSH1 0x0 MSTORE PUSH1 0x20 PUSH1 0x0 KECCAK256 SWAP1 JUMPDEST DUP2 SLOAD DUP2 MSTORE SWAP1 PUSH1 0x1 ADD SWAP1 PUSH1 0x20 ADD DUP1 DUP4 GT PUSH2 0x19D JUMPI DUP3 SWAP1 SUB PUSH1 0x1F AND DUP3 ADD SWAP2 JUMPDEST POP POP POP POP POP DUP2 MSTORE PUSH1 0x20 ADD PUSH1 0x1 DUP3 ADD SLOAD DUP2 MSTORE POP POP SWAP1 POP DUP1 PUSH1 0x0 ADD MLOAD DUP2 PUSH1 0x20 ADD MLOAD SWAP3 POP SWAP3 POP POP SWAP2 POP SWAP2 JUMP JUMPDEST PUSH1 0x1 DUP2 DUP1 MLOAD PUSH1 0x20 DUP2 ADD DUP3 ADD DUP1 MLOAD DUP5 DUP3 MSTORE PUSH1 0x20 DUP4 ADD PUSH1 0x20 DUP6 ADD KECCAK256 DUP2 DUP4 MSTORE DUP1 SWAP6 POP POP POP POP POP POP PUSH1 0x0 SWAP2 POP SWAP1 POP SLOAD DUP2 JUMP JUMPDEST PUSH1 0x0 DUP2 DUP2 SLOAD DUP2 LT PUSH2 0x221 JUMPI PUSH1 0x0 DUP1 REVERT JUMPDEST SWAP1 PUSH1 0x0 MSTORE PUSH1 0x20 PUSH1 0x0 KECCAK256 SWAP1 PUSH1 0x2 MUL ADD PUSH1 0x0 SWAP2 POP SWAP1 POP DUP1 PUSH1 0x0 ADD DUP1 SLOAD PUSH2 0x244 SWAP1 PUSH2 0x6EF JUMP JUMPDEST DUP1 PUSH1 0x1F ADD PUSH1 0x20 DUP1 SWAP2 DIV MUL PUSH1 0x20 ADD PUSH1 0x40 MLOAD SWAP1 DUP2 ADD PUSH1 0x40 MSTORE DUP1 SWAP3 SWAP2 SWAP1 DUP2 DUP2 MSTORE PUSH1 0x20 ADD DUP3 DUP1 SLOAD PUSH2 0x270 SWAP1 PUSH2 0x6EF JUMP JUMPDEST DUP1 ISZERO PUSH2 0x2BD JUMPI DUP1 PUSH1 0x1F LT PUSH2 0x292 JUMPI PUSH2 0x100 DUP1 DUP4 SLOAD DIV MUL DUP4 MSTORE SWAP2 PUSH1 0x20 ADD SWAP2 PUSH2 0x2BD JUMP JUMPDEST DUP3 ADD SWAP2 SWAP1 PUSH1 0x0 MSTORE PUSH1 0x20 PUSH1 0x0 KECCAK256 SWAP1 JUMPDEST DUP2 SLOAD DUP2 MSTORE SWAP1 PUSH1 0x1 ADD SWAP1 PUSH1 0x20 ADD DUP1 DUP4 GT PUSH2 0x2A0 JUMPI DUP3 SWAP1 SUB PUSH1 0x1F AND DUP3 ADD SWAP2 JUMPDEST POP POP POP POP POP SWAP1 DUP1 PUSH1 0x1 ADD SLOAD SWAP1 POP DUP3 JUMP JUMPDEST PUSH1 0x0 PUSH1 0x40 MLOAD DUP1 PUSH1 0x40 ADD PUSH1 0x40 MSTORE DUP1 DUP5 DUP2 MSTORE PUSH1 0x20 ADD DUP4 DUP2 MSTORE POP SWAP1 DUP1 PUSH1 0x1 DUP2 SLOAD ADD DUP1 DUP3 SSTORE DUP1 SWAP2 POP POP PUSH1 0x1 SWAP1 SUB SWAP1 PUSH1 0x0 MSTORE PUSH1 0x20 PUSH1 0x0 KECCAK256 SWAP1 PUSH1 0x2 MUL ADD PUSH1 0x0 SWAP1 SWAP2 SWAP1 SWAP2 SWAP1 SWAP2 POP PUSH1 0x0 DUP3 ADD MLOAD DUP2 PUSH1 0x0 ADD SWAP1 DUP2 PUSH2 0x322 SWAP2 SWAP1 PUSH2 0x8CC JUMP JUMPDEST POP PUSH1 0x20 DUP3 ADD MLOAD DUP2 PUSH1 0x1 ADD SSTORE POP POP DUP1 PUSH1 0x1 DUP4 PUSH1 0x40 MLOAD PUSH2 0x340 SWAP2 SWAP1 PUSH2 0x9DA JUMP JUMPDEST SWAP1 DUP2 MSTORE PUSH1 0x20 ADD PUSH1 0x40 MLOAD DUP1 SWAP2 SUB SWAP1 KECCAK256 DUP2 SWAP1 SSTORE POP POP POP JUMP JUMPDEST PUSH1 0x0 PUSH1 0x40 MLOAD SWAP1 POP SWAP1 JUMP JUMPDEST PUSH1 0x0 DUP1 REVERT JUMPDEST PUSH1 0x0 DUP1 REVERT JUMPDEST PUSH1 0x0 DUP2 SWAP1 POP SWAP2 SWAP1 POP JUMP JUMPDEST PUSH2 0x37D DUP2 PUSH2 0x36A JUMP JUMPDEST DUP2 EQ PUSH2 0x388 JUMPI PUSH1 0x0 DUP1 REVERT JUMPDEST POP JUMP JUMPDEST PUSH1 0x0 DUP2 CALLDATALOAD SWAP1 POP PUSH2 0x39A DUP2 PUSH2 0x374 JUMP JUMPDEST SWAP3 SWAP2 POP POP JUMP JUMPDEST PUSH1 0x0 PUSH1 0x20 DUP3 DUP5 SUB SLT ISZERO PUSH2 0x3B6 JUMPI PUSH2 0x3B5 PUSH2 0x360 JUMP JUMPDEST JUMPDEST PUSH1 0x0 PUSH2 0x3C4 DUP5 DUP3 DUP6 ADD PUSH2 0x38B JUMP JUMPDEST SWAP2 POP POP SWAP3 SWAP2 POP POP JUMP JUMPDEST PUSH1 0x0 DUP2 MLOAD SWAP1 POP SWAP2 SWAP1 POP JUMP JUMPDEST PUSH1 0x0 DUP3 DUP3 MSTORE PUSH1 0x20 DUP3 ADD SWAP1 POP SWAP3 SWAP2 POP POP JUMP JUMPDEST PUSH1 0x0 JUMPDEST DUP4 DUP2 LT ISZERO PUSH2 0x407 JUMPI DUP1 DUP3 ADD MLOAD DUP2 DUP5 ADD MSTORE PUSH1 0x20 DUP2 ADD SWAP1 POP PUSH2 0x3EC JUMP JUMPDEST PUSH1 0x0 DUP5 DUP5 ADD MSTORE POP POP POP POP JUMP JUMPDEST PUSH1 0x0 PUSH1 0x1F NOT PUSH1 0x1F DUP4 ADD AND SWAP1 POP SWAP2 SWAP1 POP JUMP JUMPDEST PUSH1 0x0 PUSH2 0x42F DUP3 PUSH2 0x3CD JUMP JUMPDEST PUSH2 0x439 DUP2 DUP6 PUSH2 0x3D8 JUMP JUMPDEST SWAP4 POP PUSH2 0x449 DUP2 DUP6 PUSH1 0x20 DUP7 ADD PUSH2 0x3E9 JUMP JUMPDEST PUSH2 0x452 DUP2 PUSH2 0x413 JUMP JUMPDEST DUP5 ADD SWAP2 POP POP SWAP3 SWAP2 POP POP JUMP JUMPDEST PUSH2 0x466 DUP2 PUSH2 0x36A JUMP JUMPDEST DUP3 MSTORE POP POP JUMP JUMPDEST PUSH1 0x0 PUSH1 0x40 DUP3 ADD SWAP1 POP DUP2 DUP2 SUB PUSH1 0x0 DUP4 ADD MSTORE PUSH2 0x486 DUP2 DUP6 PUSH2 0x424 JUMP JUMPDEST SWAP1 POP PUSH2 0x495 PUSH1 0x20 DUP4 ADD DUP5 PUSH2 0x45D JUMP JUMPDEST SWAP4 SWAP3 POP POP POP JUMP JUMPDEST PUSH1 0x0 DUP1 REVERT JUMPDEST PUSH1 0x0 DUP1 REVERT JUMPDEST PUSH32 0x4E487B7100000000000000000000000000000000000000000000000000000000 PUSH1 0x0 MSTORE PUSH1 0x41 PUSH1 0x4 MSTORE PUSH1 0x24 PUSH1 0x0 REVERT JUMPDEST PUSH2 0x4DE DUP3 PUSH2 0x413 JUMP JUMPDEST DUP2 ADD DUP2 DUP2 LT PUSH8 0xFFFFFFFFFFFFFFFF DUP3 GT OR ISZERO PUSH2 0x4FD JUMPI PUSH2 0x4FC PUSH2 0x4A6 JUMP JUMPDEST JUMPDEST DUP1 PUSH1 0x40 MSTORE POP POP POP JUMP JUMPDEST PUSH1 0x0 PUSH2 0x510 PUSH2 0x356 JUMP JUMPDEST SWAP1 POP PUSH2 0x51C DUP3 DUP3 PUSH2 0x4D5 JUMP JUMPDEST SWAP2 SWAP1 POP JUMP JUMPDEST PUSH1 0x0 PUSH8 0xFFFFFFFFFFFFFFFF DUP3 GT ISZERO PUSH2 0x53C JUMPI PUSH2 0x53B PUSH2 0x4A6 JUMP JUMPDEST JUMPDEST PUSH2 0x545 DUP3 PUSH2 0x413 JUMP JUMPDEST SWAP1 POP PUSH1 0x20 DUP2 ADD SWAP1 POP SWAP2 SWAP1 POP JUMP JUMPDEST DUP3 DUP2 DUP4 CALLDATACOPY PUSH1 0x0 DUP4 DUP4 ADD MSTORE POP POP POP JUMP JUMPDEST PUSH1 0x0 PUSH2 0x574 PUSH2 0x56F DUP5 PUSH2 0x521 JUMP JUMPDEST PUSH2 0x506 JUMP JUMPDEST SWAP1 POP DUP3 DUP2 MSTORE PUSH1 0x20 DUP2 ADD DUP5 DUP5 DUP5 ADD GT ISZERO PUSH2 0x590 JUMPI PUSH2 0x58F PUSH2 0x4A1 JUMP JUMPDEST JUMPDEST PUSH2 0x59B DUP5 DUP3 DUP6 PUSH2 0x552 JUMP JUMPDEST POP SWAP4 SWAP3 POP POP POP JUMP JUMPDEST PUSH1 0x0 DUP3 PUSH1 0x1F DUP4 ADD SLT PUSH2 0x5B8 JUMPI PUSH2 0x5B7 PUSH2 0x49C JUMP JUMPDEST JUMPDEST DUP2 CALLDATALOAD PUSH2 0x5C8 DUP5 DUP3 PUSH1 0x20 DUP7 ADD PUSH2 0x561 JUMP JUMPDEST SWAP2 POP POP SWAP3 SWAP2 POP POP JUMP JUMPDEST PUSH1 0x0 PUSH1 0x20 DUP3 DUP5 SUB SLT ISZERO PUSH2 0x5E7 JUMPI PUSH2 0x5E6 PUSH2 0x360 JUMP JUMPDEST JUMPDEST PUSH1 0x0 DUP3 ADD CALLDATALOAD PUSH8 0xFFFFFFFFFFFFFFFF DUP2 GT ISZERO PUSH2 0x605 JUMPI PUSH2 0x604 PUSH2 0x365 JUMP JUMPDEST JUMPDEST PUSH2 0x611 DUP5 DUP3 DUP6 ADD PUSH2 0x5A3 JUMP JUMPDEST SWAP2 POP POP SWAP3 SWAP2 POP POP JUMP JUMPDEST PUSH1 0x0 PUSH1 0x20 DUP3 ADD SWAP1 POP PUSH2 0x62F PUSH1 0x0 DUP4 ADD DUP5 PUSH2 0x45D JUMP JUMPDEST SWAP3 SWAP2 POP POP JUMP JUMPDEST PUSH1 0x0 DUP1 PUSH1 0x40 DUP4 DUP6 SUB SLT ISZERO PUSH2 0x64C JUMPI PUSH2 0x64B PUSH2 0x360 JUMP JUMPDEST JUMPDEST PUSH1 0x0 DUP4 ADD CALLDATALOAD PUSH8 0xFFFFFFFFFFFFFFFF DUP2 GT ISZERO PUSH2 0x66A JUMPI PUSH2 0x669 PUSH2 0x365 JUMP JUMPDEST JUMPDEST PUSH2 0x676 DUP6 DUP3 DUP7 ADD PUSH2 0x5A3 JUMP JUMPDEST SWAP3 POP POP PUSH1 0x20 PUSH2 0x687 DUP6 DUP3 DUP7 ADD PUSH2 0x38B JUMP JUMPDEST SWAP2 POP POP SWAP3 POP SWAP3 SWAP1 POP JUMP JUMPDEST PUSH32 0x4E487B7100000000000000000000000000000000000000000000000000000000 PUSH1 0x0 MSTORE PUSH1 0x32 PUSH1 0x4 MSTORE PUSH1 0x24 PUSH1 0x0 REVERT JUMPDEST PUSH32 0x4E487B7100000000000000000000000000000000000000000000000000000000 PUSH1 0x0 MSTORE PUSH1 0x22 PUSH1 0x4 MSTORE PUSH1 0x24 PUSH1 0x0 REVERT JUMPDEST PUSH1 0x0 PUSH1 0x2 DUP3 DIV SWAP1 POP PUSH1 0x1 DUP3 AND DUP1 PUSH2 0x707 JUMPI PUSH1 0x7F DUP3 AND SWAP2 POP JUMPDEST PUSH1 0x20 DUP3 LT DUP2 SUB PUSH2 0x71A JUMPI PUSH2 0x719 PUSH2 0x6C0 JUMP JUMPDEST JUMPDEST POP SWAP2 SWAP1 POP JUMP JUMPDEST PUSH1 0x0 DUP2 SWAP1 POP DUP2 PUSH1 0x0 MSTORE PUSH1 0x20 PUSH1 0x0 KECCAK256 SWAP1 POP SWAP2 SWAP1 POP JUMP JUMPDEST PUSH1 0x0 PUSH1 0x20 PUSH1 0x1F DUP4 ADD DIV SWAP1 POP SWAP2 SWAP1 POP JUMP JUMPDEST PUSH1 0x0 DUP3 DUP3 SHL SWAP1 POP SWAP3 SWAP2 POP POP JUMP JUMPDEST PUSH1 0x0 PUSH1 0x8 DUP4 MUL PUSH2 0x782 PUSH32 0xFFFFFFFFFFFFFFFFFFFFFFFFFFFFFFFFFFFFFFFFFFFFFFFFFFFFFFFFFFFFFFFF DUP3 PUSH2 0x745 JUMP JUMPDEST PUSH2 0x78C DUP7 DUP4 PUSH2 0x745 JUMP JUMPDEST SWAP6 POP DUP1 NOT DUP5 AND SWAP4 POP DUP1 DUP7 AND DUP5 OR SWAP3 POP POP POP SWAP4 SWAP3 POP POP POP JUMP JUMPDEST PUSH1 0x0 DUP2 SWAP1 POP SWAP2 SWAP1 POP JUMP JUMPDEST PUSH1 0x0 PUSH2 0x7C9 PUSH2 0x7C4 PUSH2 0x7BF DUP5 PUSH2 0x36A JUMP JUMPDEST PUSH2 0x7A4 JUMP JUMPDEST PUSH2 0x36A JUMP JUMPDEST SWAP1 POP SWAP2 SWAP1 POP JUMP JUMPDEST PUSH1 0x0 DUP2 SWAP1 POP SWAP2 SWAP1 POP JUMP JUMPDEST PUSH2 0x7E3 DUP4 PUSH2 0x7AE JUMP JUMPDEST PUSH2 0x7F7 PUSH2 0x7EF DUP3 PUSH2 0x7D0 JUMP JUMPDEST DUP5 DUP5 SLOAD PUSH2 0x752 JUMP JUMPDEST DUP3 SSTORE POP POP POP POP JUMP JUMPDEST PUSH1 0x0 SWAP1 JUMP JUMPDEST PUSH2 0x80C PUSH2 0x7FF JUMP JUMPDEST PUSH2 0x817 DUP2 DUP5 DUP5 PUSH2 0x7DA JUMP JUMPDEST POP POP POP JUMP JUMPDEST JUMPDEST DUP2 DUP2 LT ISZERO PUSH2 0x83B JUMPI PUSH2 0x830 PUSH1 0x0 DUP3 PUSH2 0x804 JUMP JUMPDEST PUSH1 0x1 DUP2 ADD SWAP1 POP PUSH2 0x81D JUMP JUMPDEST POP POP JUMP JUMPDEST PUSH1 0x1F DUP3 GT ISZERO PUSH2 0x880 JUMPI PUSH2 0x851 DUP2 PUSH2 0x720 JUMP JUMPDEST PUSH2 0x85A DUP5 PUSH2 0x735 JUMP JUMPDEST DUP2 ADD PUSH1 0x20 DUP6 LT ISZERO PUSH2 0x869 JUMPI DUP2 SWAP1 POP JUMPDEST PUSH2 0x87D PUSH2 0x875 DUP6 PUSH2 0x735 JUMP JUMPDEST DUP4 ADD DUP3 PUSH2 0x81C JUMP JUMPDEST POP POP JUMPDEST POP POP POP JUMP JUMPDEST PUSH1 0x0 DUP3 DUP3 SHR SWAP1 POP SWAP3 SWAP2 POP POP JUMP JUMPDEST PUSH1 0x0 PUSH2 0x8A3 PUSH1 0x0 NOT DUP5 PUSH1 0x8 MUL PUSH2 0x885 JUMP JUMPDEST NOT DUP1 DUP4 AND SWAP2 POP POP SWAP3 SWAP2 POP POP JUMP JUMPDEST PUSH1 0x0 PUSH2 0x8BC DUP4 DUP4 PUSH2 0x892 JUMP JUMPDEST SWAP2 POP DUP3 PUSH1 0x2 MUL DUP3 OR SWAP1 POP SWAP3 SWAP2 POP POP JUMP JUMPDEST PUSH2 0x8D5 DUP3 PUSH2 0x3CD JUMP JUMPDEST PUSH8 0xFFFFFFFFFFFFFFFF DUP2 GT ISZERO PUSH2 0x8EE JUMPI PUSH2 0x8ED PUSH2 0x4A6 JUMP JUMPDEST JUMPDEST PUSH2 0x8F8 DUP3 SLOAD PUSH2 0x6EF JUMP JUMPDEST PUSH2 0x903 DUP3 DUP3 DUP6 PUSH2 0x83F JUMP JUMPDEST PUSH1 0x0 PUSH1 0x20 SWAP1 POP PUSH1 0x1F DUP4 GT PUSH1 0x1 DUP2 EQ PUSH2 0x936 JUMPI PUSH1 0x0 DUP5 ISZERO PUSH2 0x924 JUMPI DUP3 DUP8 ADD MLOAD SWAP1 POP JUMPDEST PUSH2 0x92E DUP6 DUP3 PUSH2 0x8B0 JUMP JUMPDEST DUP7 SSTORE POP PUSH2 0x996 JUMP JUMPDEST PUSH1 0x1F NOT DUP5 AND PUSH2 0x944 DUP7 PUSH2 0x720 JUMP JUMPDEST PUSH1 0x0 JUMPDEST DUP3 DUP2 LT ISZERO PUSH2 0x96C JUMPI DUP5 DUP10 ADD MLOAD DUP3 SSTORE PUSH1 0x1 DUP3 ADD SWAP2 POP PUSH1 0x20 DUP6 ADD SWAP5 POP PUSH1 0x20 DUP2 ADD SWAP1 POP PUSH2 0x947 JUMP JUMPDEST DUP7 DUP4 LT ISZERO PUSH2 0x989 JUMPI DUP5 DUP10 ADD MLOAD PUSH2 0x985 PUSH1 0x1F DUP10 AND DUP3 PUSH2 0x892 JUMP JUMPDEST DUP4 SSTORE POP JUMPDEST PUSH1 0x1 PUSH1 0x2 DUP9 MUL ADD DUP9 SSTORE POP POP POP JUMPDEST POP POP POP POP POP POP JUMP JUMPDEST PUSH1 0x0 DUP2 SWAP1 POP SWAP3 SWAP2 POP POP JUMP JUMPDEST PUSH1 0x0 PUSH2 0x9B4 DUP3 PUSH2 0x3CD JUMP JUMPDEST PUSH2 0x9BE DUP2 DUP6 PUSH2 0x99E JUMP JUMPDEST SWAP4 POP PUSH2 0x9CE DUP2 DUP6 PUSH1 0x20 DUP7 ADD PUSH2 0x3E9 JUMP JUMPDEST DUP1 DUP5 ADD SWAP2 POP POP SWAP3 SWAP2 POP POP JUMP JUMPDEST PUSH1 0x0 PUSH2 0x9E6 DUP3 DUP5 PUSH2 0x9A9 JUMP JUMPDEST SWAP2 POP DUP2 SWAP1 POP SWAP3 SWAP2 POP POP JUMP INVALID LOG2 PUSH5 0x6970667358 0x22 SLT KECCAK256 0x49 DUP9 DUP8 0x2E 0xEA CALLER PUSH24 0x5A69F68541BE4A51ED183FF0B3CA1F2BE1C65C74B0DC7244 SWAP11 PUSH5 0x736F6C6343 STOP ADDMOD SLT STOP CALLER "
				},
				"gasEstimates": {
					"creation": {
						"codeDepositCost": "519800",
						"executionCost": "556",
						"totalCost": "520356"
					},
					"external": {
						"addusernum(string,uint256)": "infinite",
						"getUser(uint256)": "infinite",
						"listofusers(uint256)": "infinite",
						"username(string)": "infinite"
					}
				},
				"methodIdentifiers": {
					"addusernum(string,uint256)": "f48ea23a",
					"getUser(uint256)": "b0467deb",
					"listofusers(uint256)": "e665bbf1",
					"username(string)": "d3f1b16f"
				}
			},
			"storageLayout": {
				"storage": [
					{
						"astId": 10,
						"contract": "revision/first.sol:First",
						"label": "listofusers",
						"offset": 0,
						"slot": "0",
						"type": "t_array(t_struct(UserFavNums)6_storage)dyn_storage"
					},
					{
						"astId": 14,
						"contract": "revision/first.sol:First",
						"label": "username",
						"offset": 0,
						"slot": "1",
						"type": "t_mapping(t_string_memory_ptr,t_uint256)"
					}
				],
				"types": {
					"t_array(t_struct(UserFavNums)6_storage)dyn_storage": {
						"base": "t_struct(UserFavNums)6_storage",
						"encoding": "dynamic_array",
						"label": "struct First.UserFavNums[]",
						"numberOfBytes": "32"
					},
					"t_mapping(t_string_memory_ptr,t_uint256)": {
						"encoding": "mapping",
						"key": "t_string_memory_ptr",
						"label": "mapping(string => uint256)",
						"numberOfBytes": "32",
						"value": "t_uint256"
					},
					"t_string_memory_ptr": {
						"encoding": "bytes",
						"label": "string",
						"numberOfBytes": "32"
					},
					"t_string_storage": {
						"encoding": "bytes",
						"label": "string",
						"numberOfBytes": "32"
					},
					"t_struct(UserFavNums)6_storage": {
						"encoding": "inplace",
						"label": "struct First.UserFavNums",
						"members": [
							{
								"astId": 3,
								"contract": "revision/first.sol:First",
								"label": "name",
								"offset": 0,
								"slot": "0",
								"type": "t_string_storage"
							},
							{
								"astId": 5,
								"contract": "revision/first.sol:First",
								"label": "number",
								"offset": 0,
								"slot": "1",
								"type": "t_uint256"
							}
						],
						"numberOfBytes": "64"
					},
					"t_uint256": {
						"encoding": "inplace",
						"label": "uint256",
						"numberOfBytes": "32"
					}
				}
			},
			"userdoc": {
				"kind": "user",
				"methods": {},
				"version": 1
			}
		}
	}
}